:020000040800F2
:100000000008002029020008E1130008F11200088E
:10001000DD13000821040008C116000800000000DC
:10002000000000000000000000000000151400089F
:1000300025040008000000001114000849140008FD
:10004000430200084302000843020008430200087C
:10005000430200084302000843020008430200086C
:10006000430200084302000843020008430200085C
:10007000430200084302000843020008430200084C
:10008000430200084302000843020008430200083C
:10009000430200084302000843020008430200082C
:1000A000430200084302000843020008430200081C
:1000B000430200084302000843020008430200080C
:1000C00043020008430200084302000843020008FC
:1000D00043020008430200084302000843020008EC
:1000E00043020008430200084302000843020008DC
:1000F00043020008430200084302000843020008CC
:1001000043020008430200084302000843020008BB
:1001100043020008430200084302000843020008AB
:10012000430200084302000843020008430200089B
:10013000430200084302000843020008430200088B
:10014000430200084302000843020008430200087B
:10015000430200084302000843020008430200086B
:10016000430200084302000843020008430200085B
:100170004302000843020008430200080000000098
:10018000430200084302000800F002F800F03CF8C7
:100190000AA090E8000C82448344AAF10107DA45E2
:1001A00001D100F031F8AFF2090EBAE80F0013F0F8
:1001B000010F18BFFB1A43F0010318478C18000009
:1001C000AC180000103A24BF78C878C1FAD852079A
:1001D00024BF30C830C144BF04680C6070470000C1
:1001E0000023002400250026103A28BF78C1FBD840
:1001F000520728BF30C148BF0B6070471FB501F0E0
:1002000009FC1FBD10B510BD00F0D0F81146FFF776
:10021000F5FF01F061FB00F0EEF803B4FFF7F2FF29
:1002200003BC00F0F5F80000094880470948004782
:10023000FEE7FEE7FEE7FEE7FEE7FEE7FEE7FEE796
:10024000FEE7FEE704480549054A064B70470000F3
:10025000DD140008890100080002002000080020C9
:10026000000400200004002053EA020C00F0698022
:100270002DE9F04B4FF00006002B1FBFB3FA83F5BA
:1002800003FA05F424FA05F65E4012BF1643B2FAEB
:1002900082F502FA05F4C5F120051EBF22FA05FC1D
:1002A00044EA0C04203556EA044C4FEA144418BFC3
:1002B000641C4FF000084FF00009904271EB030CF2
:1002C00039D3002919BFB1FA81F701FA07F6B0FA5C
:1002D00080F700FA07F6C7F120071EBF20FA07FCD7
:1002E00046EA0C062037B6FBF4FCA7EB0507103FE7
:1002F00007F01F0BCBF120062CFA06F60CFA0BFBCD
:1003000044BFB3460026202FA4BF5E464FF0000B2B
:100310005BEA060C08BF4FF0010B19EB0B0948EB29
:100320000608ABFB027C06FB02CC0BFB03CCC01B1C
:1003300071EB0C01C1E70B46024641464846BDE859
:10034000F08B13B5084318BF4FF0FF300146AFF3F1
:100350000080BDE81C4070474FF0000200B5134616
:1003600094469646203922BFA0E80C50A0E80C50D5
:10037000B1F12001BFF4F7AF090728BFA0E80C5086
:1003800048BF0CC05DF804EB890028BF40F8042B7F
:1003900008BF704748BF20F8022B11F0804F18BFEC
:1003A00000F8012B7047704770477047754600F0A2
:1003B0002BF8AE4605006946534620F007008546F7
:1003C00018B020B5FFF73EFFBDE820404FF0000613
:1003D0004FF000074FF000084FF0000BAC46ACE8C0
:1003E000C009ACE8C009ACE8C009ACE8C00921F01C
:1003F00007018D46704710B50446AFF300802046D4
:10040000BDE81040FFF709BF0048704728000020F2
:1004100001491820ABBEFEE726000200704700002D
:10042000FEE7000070470000EFF3108072B600BFD7
:10043000FEE7000080B543F61043C4F20203D3F890
:1004400000C04FF4407E2CF440721A601A680329F1
:1004500038BF4FEA012E42EA0E011960196821F0F7
:10046000F8011960196841EAC00040F00200186004
:10047000186840F48030186080BD000043F61042D8
:10048000C4F20202136823F440731360136813600C
:10049000136843F0010313600170704780B543F6A1
:1004A000104EC4F2020EDEF800C02CF44071CEF8FB
:1004B0000010DEF8001041F44071CEF80010DEF8B4
:1004C000001041F00101CEF800100260BFF36F8F01
:1004D000436080BD43F61042C4F20202136823F465
:1004E00040731360136843F480731360136843F020
:1004F000010313600180704743F61042C4F2020208
:10050000136823F440731360136843F4007313609B
:10051000136843F0010313600160704743F60C4019
:10052000C4F202000168C90640F2D401C2F200011F
:1005300005D5CA6942F01002CA6110220260026841
:10054000920605D5CA6942F00802CA6120220260FB
:100550000268520605D5CA6942F00402CA61402207
:1005600002600268120605D5CA6942F00202CA6139
:10057000802202600268920758BF7047CA6942F041
:100580002002CA610221016070470000F0B581B00D
:10059000044640F2D40043F60C46C2F200000021AB
:1005A000C4F20206C16100F089F93168C9030DD4B3
:1005B0003068C0071CBF01203060306810F0F20FB7
:1005C0000BD0FFF7ABFF012001B0F0BD0546671C63
:1005D00006D054B9032001B0F0BD002001B0F0BD39
:1005E0003068C003E4D5002FFAD000F067F9401B53
:1005F000A042F5D9EEE70000B0B50024C0F6020431
:10060000656800F0B9FA00F009F8EFF3108072B6EF
:10061000206880F30888A847B0BD000080B543F685
:100620001000C4F202004FF0FF31002201610261AC
:1006300041614261016002604160426081608260AC
:1006400000F0B8F9002080BD43F61041C4F2020169
:10065000086840F0004200200A6070472DE9F04130
:1006600040F2D408C2F20008144698F81820012A73
:1006700004BF0220BDE8F0810746012088F8180079
:100680004CF250301E460D46FFF780FF20BB022F74
:1006900007D0012F0AD077B9E1B22846FFF7EEFE66
:1006A0000EE028462146FFF727FF09E0A1B22846C1
:1006B000FFF710FF04E0284622463346FFF7EEFE20
:1006C0004CF25030FFF762FF43F61041C4F20201D2
:1006D0000A6822F001020A60002188F81810BDE8BB
:1006E000F081000043F60440C4F20200C168B1F199
:1006F000FF3FC4BF0020704740F22311C4F267518E
:10070000016048F6AB11CCF6EF510160C068C00F34
:10071000704700002DE9F04F83B000F13E4202F136
:10072000FF7243F6004E4FEAB22241F60047C4F290
:10073000010E0192C4F2020708224FF0010B0025BE
:100740004FF000084FF00009B84208BF072200929E
:100750000AE000BF09F1010908F10408B9F1100F1E
:1007600005F1020500F0A0800F680BFA09F417EA02
:10077000040CEFD0D1F804A0BAF1120F15D80BFA7F
:100780000AF717F0061F10D087680322CE68AA4028
:1007900027EA0202AE40324382604268A243CAF3B3
:1007A000001404FA09F422434260C26803238C68EF
:1007B00003FA05FB22EA0B02AC4022434AF0100484
:1007C000122CC2600FD16FF0030202EA59020244F8
:1007D00008F01C060F23146A03FA06F70B69BC43E2
:1007E000B3402343136203684C686FEA0B021A405C
:1007F00004F00303AB401A43E3004FF0010B026027
:10080000A8D5002243F644030292C4F202031A68F8
:100810004FF6084A42F480421A601A68CFF6FF7A0F
:1008200002F480420292029A29F00302724452F8C2
:100830000A3008F00C040F26A640019FB343009E27
:10084000072F38BF3E4606FA04F4234342F80A3025
:10085000DEF800204B6842EA0C04DE0358BF22EAAF
:100860000C04CEF80040DEF804209E0342EA0C049B
:1008700058BF22EA0C04CEF80440DEF80820DE025D
:1008800042EA0C0458BF22EA0C04CEF8084043F6B2
:100890000C44C4F2010422689B0242EA0C0358BFD4
:1008A00022EA0C03236055E703B0BDE8F08F000097
:1008B000002A08BF090481617047000040F2F81067
:1008C000C2F2000000687047B0B5C8B104460068C5
:1008D000D4E901124CF6CC43036045F25553036052
:1008E00041608260FFF7EAFF054600BF2068C168EB
:1008F00041B1FFF7E3FF401B3028F7D90320B0BD1B
:100900000120B0BD4AF6AA2101600020B0BD000060
:1009100040F21C0040F2F811C2F20000C2F20001E5
:1009200000780A68104408607047000080B543F6FC
:100930000040C4F20200016841F4007101600168E6
:1009400041F480610160016841F48071016003201D
:1009500000F05EF80F2000F005F800F02DF8002000
:1009600080BD0000B0B540F21C02C2F2000240F2AD
:1009700000011278C2F200014FF47A730968B3FBE8
:10098000F2F20446B1FBF2F1084600F081FB0F2CB5
:100990004FF001050CD858B94FF0FF302146002226
:1009A000002500F025F840F22000C2F200000460AB
:1009B0002846B0BD7047000082B0002043F64001D9
:1009C0000190C4F202014A6842F480424A604A68D7
:1009D00002F480420192019A0090086840F0805031
:1009E0000860086800F080500090009802B07047DE
:1009F00070B514460D46064600F064FE29462246B0
:100A000000F0F0FC0146304600F064FE70BD0000CE
:100A100080B500F071FE80BD2DE9F041002800F0A6
:100A20008B8043F60808C4F202080446D8F8F8039D
:100A30000D4600F00F00884207D288F8F853D8F826
:100A4000F80300F00F00A84276D12068810717D57F
:100A5000410705D5D8F8001041F4E051C8F800105E
:100A6000010705D5D8F8001041F46041C8F800101E
:100A7000D8F80010A26821F0F0011143C8F8001066
:100A8000C0073FD1D8F8F80300F00F00A84207D9FB
:100A900088F8F853D8F8F80300F00F00A8424BD1BB
:100AA0002068410707D5D8F80010E26821F4E0512A
:100AB0001143C8F80010000708D5D8F800002169D4
:100AC00020F4604040EAC100C8F8000000F010F9CE
:100AD000D8F8001041F62E22C1F30311C0F600022F
:100AE000515C40F2000220FA01F140F22000C2F213
:100AF00000000068C2F200021160FFF733FF00201F
:100B0000BDE8F0816068811E022907D258F8081CF0
:100B100089015CBF0120BDE8F08110E0012807D108
:100B200058F8081C89035CBF0120BDE8F08106E08D
:100B300058F8081C890702D40120BDE8F081D8F8D4
:100B4000001021F003010843C8F80000FFF7B6FECB
:100B5000064641F2883700BFD8F80000616800F00F
:100B60000C00B0EB810F8DD0FFF7A8FE801BB842C0
:100B7000F2D90320BDE8F081F0B581B043F600065C
:100B8000C4F20206FFF79AFE3168044641F0010004
:100B9000306000BF3068800705D4FFF78FFE001B70
:100BA0000228F7D93EE0306840F080003060FFF75F
:100BB00085FE0546002041F28837B060B468FFF733
:100BC0007DFE14F00C0F044603D0601BB842F5D92B
:100BD00028E0306820F45020306000BF3568FFF70F
:100BE0006DFEA903054603D5281B6428F6D919E034
:100BF000306820F0807030603468FFF75FFEA1013C
:100C0000044603D5601B0228F6D90BE0306820F0BB
:100C1000806030603068000107D5FFF74FFE001B91
:100C20000228F7D9032001B0F0BD43F21000C0F252
:100C30000040706043F20000C2F20000C6F8840079
:100C4000F06840F2000120F4F850F060F06842F2E1
:100C5000004220F40050F060F068C2F2000140F45D
:100C60001F00F060F068C0F2F40240F40010F06081
:100C7000706F20F001007067706F40F080707067D7
:100C800040F22000C2F2000000680A60FFF76AFE2E
:100C9000002818BF012001B0F0BD000040F20000A4
:100CA000C2F200000068704780B5FFF7F7FF43F617
:100CB0000801C4F20201096841F63E22C1F3822113
:100CC000C0F60002515CC84080BD000080B5FFF74F
:100CD000E5FF43F60801C4F20201096841F63E222D
:100CE000C1F34231C0F60002515CC84080BD000033
:100CF00010B543F60404C4F20204606800F00C016D
:100D000042F200400829C0F2F40007D0042918BFBD
:100D100010BD41F20020C0F27A0010BD216801F040
:100D20003F02216823684902C3F3881105D4A1FB5F
:100D300000010023FFF798FA06E041F20020C0F21C
:100D40007A004843B0FBF2F021680222C1F301416E
:100D500002EB4101B0FBF1F010BD00002DE9F041C4
:100D600082B0002800F098800446007843F6000620
:100D7000C007C4F2020643D0B06800F00C0004289B
:100D800005D1306880033BD56068C8BB84E0B0689B
:100D900000F00C00082802D170684002F1D46568A8
:100DA000B5F5A02F0AD0B5F5803F0BD0306820F400
:100DB00080303060306820F4802006E0306840F4F5
:100DC00080203060306840F480303060FFF776FD7E
:100DD000002D054611D000BF3068800310D4FFF706
:100DE0006DFD401B6428F7D918E100BFFFF766FDD1
:100DF000401B64284FF003004BD830688003F5D4C3
:100E00002078800719D5B06810F00C0F08D0B068B2
:100E100000F00C00082840F08080706840027CD40C
:100E20003068800702D5E068012835D13068216933
:100E300020F0F80040EAC1003060207800072FD48D
:100E40002078400743D4A56915B3B06800F00C00C2
:100E5000082840F09580012D1ED07068E16900F4EB
:100E600080028A4218D1216A00F03F028A4213D1DF
:100E700047F6C071626A014091420DD1A16A00F447
:100E800040328A4208D1E16A00F07060884203D1A2
:100E9000002002B0BDE8F081012002B0BDE8F08181
:100EA0006069002840F20000C4F2472057D00121B9
:100EB000C0F8801EFFF702FD054600BF706F800777
:100EC000BED4FFF7FBFC401B0228F7D9A6E0306C2C
:100ED00010F080580AD100200190306C40F0805012
:100EE0003064306C00F080500190019847F20007A8
:100EF000C4F200073868C00524D4386840F4807014
:100F00003860FFF7DBFC05463868C0051AD4FFF7E8
:100F1000D5FC401B0228F7D980E0E068002851D0BA
:100F20000020C4F2472001210160FFF7C7FC0546FD
:100F3000306880073FF57AAFFFF7C0FC401B0228FE
:100F4000F6D96BE0A568052D50D0012D52D0306F39
:100F500020F001003067306F20F004004DE00021E8
:100F6000C0F8801EFFF7AAFC054600BF706F80071F
:100F70007FF566AFFFF7A2FC401B0228F6D94DE0D3
:100F80000027C4F2472700203866FFF797FC022DA0
:100F900005460BD13068800158D5FFF78FFC401B08
:100FA00002284FF00300F5D973E700BF30688001D5
:100FB0007FF56EAFFFF782FC401B02284FF0030065
:100FC000F4D966E70020C4F2472000210160FFF752
:100FD00075FC0546306880077FF52FAFFFF76EFC84
:100FE000401B02284FF00300F4D952E7306F40F065
:100FF00004003067306F40F001003067FFF75EFC9F
:10100000002D054641F2883714D000BF306F8007AD
:1010100013D4FFF753FC401BB842F7D9032002B0AA
:10102000BDE8F081FFF74AFC401BB8424FF00300D7
:101030003FF62FAF306F8007F4D4B8F1000F7FF484
:1010400002AF306C20F080503064FCE604F11C05E7
:101050002FCD08430021CFF6FF7140EA821001EB4B
:10106000C3316FF30F0140EA05600843706001204F
:101070003866FFF723FC0446306880013FF508AF6F
:10108000FFF71CFC001B02284FF00300F4D900E717
:1010900080B500F0C1F980BD002804BF0120704771
:1010A00010B5044690F8390028B9002084F83800BB
:1010B000204600F021F8242084F839002068C16817
:1010C00021F40051C160204600F012FA2068016945
:1010D00021F490410161416921F02A014161C16817
:1010E00041F40051C16000202021E06384F83910F0
:1010F00084F83A1010BD000080B586B044F6004177
:101100000068C4F20001002288420592CDE9032262
:101110000292019201D006B080BD43F630000092E9
:10112000C4F20200036943F400230361036903F47A
:1011300000230093009B0092036843F001030360C7
:101140000068022300F00100009000980320019045
:1011500004900820059001F5DA3001A9CDE90232AA
:10116000FFF7D8FA06B080BD2DE9F041054690F8AA
:101170003A0020280DD10E4600294FF0010050D032
:101180001746002A08BFBDE8F08195F8380001280D
:1011900002D10220BDE8F081012085F838004FF02F
:1011A000000822201C46C5F83C8085F83A00FFF76D
:1011B00085FBAF85EF8585F83880E98D69B380467A
:1011C00007E000BF28684068C0B226F8010BE88D30
:1011D00018B3E88D20210138E885AF6828464246DB
:1011E000234600F03BFAB7F5805F0BD1D8B92869E8
:1011F0000028E7D1286840686FF35F2026F8020BCB
:10120000E5E700BF78B9286900282868406818BF5A
:1012100000F07F0006F8010BD9E7202085F83A009E
:101220000020BDE8F0810320BDE8F0812DE9F04108
:10123000044690F8390020280DD10E4600294FF0C1
:10124000010052D01746002A08BFBDE8F08194F88B
:101250003800012802D10220BDE8F081012084F885
:1012600038004FF0000821201D46C4F83C8084F867
:101270003900FFF723FBA784E78484F83880E18CEA
:10128000804661B92046402142462B4600F0E6F9EF
:1012900038B30320BDE8F081E08C0028F2D0E08C68
:1012A00080210138E084A768204642462B4600F0A2
:1012B000D5F9B7F5805F0DD10028EAD130882169D2
:1012C00022686FF35F200029506014BF0136023698
:1012D000E2E700BF0028DCD116F8010B2168486066
:1012E000DAE7202084F839000020BDE8F081000012
:1012F000FEE7000070B586B0002543F63000059586
:10130000CDE90355CDE901550095C4F2020001680D
:1013100040F6004441F0800101600168C4F202041B
:1013200001F080010091009900950168002241F0D0
:101330000101016001684FF4405601F00101009184
:1013400000990095016841F00801016000684FF4C0
:10135000405100F00800009000982046FFF7A8FADE
:101360000120CDE9020501A9204601960495FFF769
:10137000D1F906B070BD000080B540F2880043F29C
:101380000001C2F20000C4F20001062240F6FF7321
:1013900080E80E00FFF798FA002808BF80BDFFF72D
:1013A00043F8000080B540F2940044F60041C2F2D8
:1013B0000000C4F2000100234FF00C0C4FF4E132A6
:1013C00080E80E00C0E90333C0E905C3C361FFF73D
:1013D00063FE002808BF80BDFFF726F8FEE7000087
:1013E000FEE7000000F0070080F00703042B28BF91
:1013F00004234FF0FF3C03380CFA03F338BF0020FE
:10140000994381400CFA00F022EA0000084370473B
:101410007047000070470000B0B501380024B4EBFD
:10142000106F1CBF0120B0BD4EF21005CEF20005BA
:1014300068604FF0FF300F2100F04CF90720AC60DE
:1014400028602046B0BD000080B5FFF761FA80BD7E
:1014500070B592B006AC20463021FEF77DFF002526
:1014600043F640000595CDE90355CDE901550095BA
:10147000C4F202000168012641F080510160006859
:1014800000F080500090009847F200000095C4F2F0
:101490000000016841F480410160006800F4804070
:1014A00000900098092006904FF480300790204665
:1014B000CDE90B65FFF752FC68B90F20CDE90106B5
:1014C00001A80021CDE903550595FFF7A5FA0028ED
:1014D00004BF12B070BDFEF7A7FF00004EF68850A3
:1014E000CEF20000016841F4700101607047000015
:1014F000B0B50546006805F108030ECB0469194331
:1015000024F44054224302616A69EB691143C268C2
:1015100049F20C641943A2431143C1604169AA69AD
:1015200021F440711143416141F20041B3F5004F94
:1015300040F48060C4F2010124D1884246D1FFF713
:10154000C5FB6B681921A0FB01015A00DB0FFEF7F8
:101550008BFE48F21F51C5F2EB11A0FB01235A0983
:101560006FF0630302FB0300322303EBC000A0FB18
:1015700001014FF4F87000EA111000EB0210C1F302
:10158000421167E0884244D1FFF7A0FB6B68192144
:10159000A0FB01019A009B0FFEF766FE48F21F5167
:1015A000C5F2EB11A0FB01235A096FF0630302FBA4
:1015B0000300322303EB0010A0FB0101F02000EA3E
:1015C000511000EB0210C1F3431143E0FFF76CFB35
:1015D0006B681921A0FB01015A00DB0FFEF744FEE6
:1015E00048F21F51C5F2EB11A0FB01235A096FF01D
:1015F000630302FB0300322303EBC000A0FB0101E5
:101600004FF4F87000EA111000EB0210C1F3421120
:1016100020E0FFF749FB6B681921A0FB01019A004C
:101620009B0FFEF721FE48F21F51C5F2EB11A0FB04
:1016300001235A096FF0630302FB0300322303EB1B
:101640000010A0FB0101F02000EA511000EB021095
:10165000C1F343112A6808439060B0BD2DE9F04101
:101660000446006800680840884202D10020BDE8B6
:10167000F0811D460E4690465F1C04E0206800681D
:101680003040B042F2D0002FF8D02DB1FFF716F95C
:10169000A0EB0800A842F1D92068C16821F4D071FC
:1016A000C160416921F001014161202084F83900C5
:1016B00084F83A00002084F838000320BDE8F08167
:1016C000FEE700004EF60C50CEF200000068C0F3BA
:1016D000022070474EF6145300F00F02CEF20003C2
:1016E00009011A4400F16043B0F1FF3FC8BF03F5A0
:1016F00064421170704700004EF60C51CEF20001AA
:101700000A684FF6FF031A4060F30A2242F0806035
:1017100040F0FD7008607047B0B500EE100A9FED14
:10172000131AB8EE400A20EE010A9FED111A43F693
:101730000C4120EE010A9FED0F1AC4F20201912024
:1017400020EE010A086000F02FF9BDEEC00A10EE8D
:10175000104A002C08BFB0BD002500BF681D022143
:10176000FEF768FE0135AC42F8D1B0BD0000804301
:101770000000803A0000003CB0B5044640F29400FE
:1017800040F20401C2F20000C2F20001082241F25C
:101790008833FFF74BFD70BB40F2F40540F2940034
:1017A000C2F20005C2F200002946082243F698233F
:1017B000FFF7DAFCF8B9287802281CD16878A978F4
:1017C00051EA000217D041EA002000EE100A9FED16
:1017D0000B1AB8EE400A20EE010A9FED091A9FEDA0
:1017E000092A20EE010AB4EE420AF1EE10FA208036
:1017F000DCBF0120B0BD0020B0BD00BF00008043B1
:101800000000803A000040440229A1F1010C0BD3F2
:1018100000210022002300BF415C01320B4491B241
:101820008C45DBB2F8DC00E0002310F80C00181A3D
:10183000B0FA80F0400970472DE9F04F83B00446BC
:1018400000204FF0000BC0F602008DF80BB00190A5
:10185000FFF734F8E4B340F2940540F20C07064673
:101860004EF65F28C2F200050DF1040AC2F200072D
:101870004FF000090AE000BF9DF80B00002808BFE8
:1018800009F101095FFA89F0A04221D2FFF716F8A9
:10189000801B40451CD8FFF711F89DF80B10064639
:1018A00021B1284639468DF80BB004E040F214010E
:1018B0002846C2F2000108224FF4FA73FFF7B6FC83
:1018C0000028D9D10DF10B00514600F01DF8D3E7E7
:1018D00003B0BDE8F08F0000FFF728F8FFF7B8FD70
:1018E000FFF708FDFFF748FDFFF75CFD42F2080037
:1018F000CEF20400016841F48051016000F03CF830
:10190000FEF77AFEFEE7000070B540F2F4050646E9
:1019100040F29400C2F200050C46C2F200002946D3
:101920004FF481724FF4FA73FFF71EFC002818BFC2
:1019300070BD287803281CD140F2F405C2F20005DE
:1019400028464FF48171FFF75FFF90B1002000BF80
:101950004119D1F801202168061D02200023FEF75D
:101960007DFE2068011DB0B2B0F5807F2160EFD30D
:1019700070BD0120307070BD10B582B00020ADF890
:1019800006000DF10600FFF7F7FE58B1FEF7AAFEBC
:10199000BDF806402046FFF7BFFE2046FFF74CFF8C
:1019A000FEF752FE02B010BD10EE100AC0F3C75190
:1019B0007F391729A8BF7047DFED140A002970EEA0
:1019C000200A0CDAF5EEC00AF1EE10FA1ADD002852
:1019D000C8BF4FF07E50B8BF4FF0004012E00C4A35
:1019E00022FA01F2104208BF7047F5EEC00AF1EE8C
:1019F00010FA07DD002804DD4FF4000323FA01F19B
:101A00000844904300EE100A70470000CAF2497182
:101A1000FFFF7F00F1EE100A4FF6FF71C0F2C031F8
:101A200020EA010040F04070E1EE100A704700002B
:101A3000000000000000010203040607080900007E
:101A40000000010203040000681A000800000020E2
:101A500028000000C4010008901A00082800002097
:101A6000D8070000E00100080024F4000201000093
:101A70000000000003FF0000000000000301000060
:101A80000000000001000000100000000000000045
:040000050800018965
:00000001FF
