:020000040802F0
:10000000B853002029020208311B02087D1902089A
:100010002D1B020895050208C920020800000000F7
:10002000000000000000000000000000D11B0208DA
:100030009905020800000000611B0208FD1B020870
:100040004302020843020208430202084302020874
:100050004302020843020208430202084302020864
:100060004302020843020208430202084302020854
:100070004302020843020208430202084302020844
:100080004302020843020208430202084302020834
:100090004302020843020208430202084302020824
:1000A00043020208C11C020843020208430202087C
:1000B0004302020843020208430202084302020804
:1000C00043020208430202084302020843020208F4
:1000D00043020208430202084302020843020208E4
:1000E00043020208430202084302020843020208D4
:1000F00043020208430202084302020843020208C4
:1001000043020208430202084302020843020208B3
:10011000051E020843020208D11C0208430202081D
:100120004302020843020208430202084302020893
:100130004302020843020208430202084302020883
:100140004302020843020208430202084302020873
:10015000430202084302020843020208B9200208CF
:100160004302020843020208430202084302020853
:100170004302020843020208430202080000000092
:10018000430202084302020800F002F800F03CF8C3
:100190000AA090E8000C82448344AAF10107DA45E2
:1001A00001D100F031F8AFF2090EBAE80F0013F0F8
:1001B000010F18BFFB1A43F001031847104E00004F
:1001C000304E0000103A24BF78C878C1FAD85207E0
:1001D00024BF30C830C144BF04680C6070470000C1
:1001E0000023002400250026103A28BF78C1FBD840
:1001F000520728BF30C148BF0B6070471FB504F0DD
:1002000063FE1FBD10B510BD00F089F91146FFF760
:10021000F5FF02F043F900F0A7F903B4FFF7F2FF8E
:1002200003BC00F0AFF900000948804709480047C7
:10023000FEE7FEE7FEE7FEE7FEE7FEE7FEE7FEE796
:10024000FEE7FEE704480549054A064B70470000F3
:10025000A51C020889010208B84D0020B8530020EF
:10026000B84F0020B84F002053EA020C00F069801C
:100270002DE9F04B4FF00006002B1FBFB3FA83F5BA
:1002800003FA05F424FA05F65E4012BF1643B2FAEB
:1002900082F502FA05F4C5F120051EBF22FA05FC1D
:1002A00044EA0C04203556EA044C4FEA144418BFC3
:1002B000641C4FF000084FF00009904271EB030CF2
:1002C00039D3002919BFB1FA81F701FA07F6B0FA5C
:1002D00080F700FA07F6C7F120071EBF20FA07FCD7
:1002E00046EA0C062037B6FBF4FCA7EB0507103FE7
:1002F00007F01F0BCBF120062CFA06F60CFA0BFBCD
:1003000044BFB3460026202FA4BF5E464FF0000B2B
:100310005BEA060C08BF4FF0010B19EB0B0948EB29
:100320000608ABFB027C06FB02CC0BFB03CCC01B1C
:1003300071EB0C01C1E70B46024641464846BDE859
:10034000F08B13B5084318BF4FF0FF300146AFF3F1
:100350000080BDE81C40704753EA020C23D010B562
:100360004C1084EA530404D54042C1F1000138BF67
:10037000491E1B4204D55242C3F1000338BF5B1E25
:10038000FFF772FF14F0804F04D04042C1F100012A
:1003900038BF491E14F0004F04D05242C3F100038D
:1003A00038BF5B1E10BD13B540424FF0000070EB2C
:1003B0000104B8BF012001F0004100281CBF6FF00C
:1003C00000414FF0FF30AFF300801CBD032A40F224
:1003D000308010F0030C00F0158011F8013BBCF1E7
:1003E000020F624498BF11F801CB00F8013B38BFFF
:1003F00011F8013BA2F1040298BF00F801CB38BF0D
:1004000000F8013B11F0030300F05780083AC0F0F8
:10041000088051F8043B083A51F804CBA0E80810D2
:10042000F5E7121D5CBF51F8043B40F8043BAFF305
:100430000080D20724BF11F8013B11F801CB48BF5F
:1004400011F8012B24BF00F8013B00F801CB48BF95
:1004500000F8012B704702F0FF0343EA032242EA4F
:10046000024200F002B84FF0000200B51346944675
:100470009646203922BFA0E80C50A0E80C50B1F1FC
:100480002001BFF4F7AF090728BFA0E80C5048BF10
:100490000CC05DF804EB890028BF40F8042B08BFAE
:1004A000704748BF20F8022B11F0804F18BF00F8AA
:1004B000012B704770477047704710B5203AC0F065
:1004C0000B80B1E81850A0E81850B1E81850A0E827
:1004D0001850203ABFF4F5AF5FEA027C24BFB1E8C0
:1004E0001850A0E8185044BF18C918C0BDE8104003
:1004F0005FEA827C24BF51F8043B40F8043B08BF0C
:100500007047D20728BF31F8023B48BF11F8012BD2
:1005100028BF20F8023B48BF00F8012B7047754602
:1005200000F02CF8AE4605006946534620F007005F
:10053000854618B020B5FFF785FEBDE820404FF096
:1005400000064FF000074FF000084FF0000BAC46DC
:10055000ACE8C009ACE8C009ACE8C009ACE8C00927
:1005600021F007018D46704710B50446AFF30080B7
:100570002046BDE81040FFF750BE0000004870471D
:100580002800002001491820ABBEFEE7260002002B
:1005900070470000FEE7000070470000EFF3108096
:1005A00072B600BFFEE7000070B5866D044600F02D
:1005B00045F994F83510022925D105462068216CAB
:1005C000026822F016020260426922F08002426153
:1005D00009B9A16C19B1016821F008010160016835
:1005E00021F00101016000BF20680068C0070ED043
:1005F00000F024F9401B0628F6D320206065032074
:1006000084F835000CE080206065012008E0E06D92
:100610003F2101FA00F0B060012084F8350000208D
:10062000002184F8341070BD90F83510022909D1EA
:10063000052180F835100068016821F00101016092
:1006400000207047802141650120704780B543F646
:100650001000C4F202004FF0FF310022016102617C
:10066000416142610160026041604260816082607C
:1006700000F098F9002080BD2DE9F04F83B000F123
:100680003E4202F1FF724FEAB22241F60047019268
:10069000C4F2020708224FF0010E00254FF0000AB5
:1006A0004FF00008B84208BF072200920AE000BFDE
:1006B00008F101080AF1040AB8F1100F05F102056A
:1006C00000F0A4800C680EFA08FB14EA0B09EFD0C6
:1006D0004C6804F0030CACF1010EBEF1010F11D80F
:1006E0000322876802FA05F6CA68B743AA403A436C
:1006F00082604268C4F3001722EA0B0207FA08F787
:100700003A434260BCF1030F1CD0C26803238E68D9
:1007100003FA05F7BA4306FA05F73A43BCF1020FAC
:10072000C2600FD16FF0030202EA580202440AF0DD
:100730001C060F23176A03FA06F40B69A743B3409C
:100740003B431362026803234F68AB409A4307F0B0
:100750000303AB401A4317F4403F4FF0010E026011
:10076000A6D0002243F644030292C4F202031A68A0
:1007700043F6004442F480421A601A68C4F201044D
:1007800002F480420292029A28F003024FF6084BCC
:100790002244CFF6FF7B52F80B300AF00C070F26ED
:1007A000BE4023EA060C019B009E072B38BF1E4665
:1007B00006FA07F747EA0C0342F80B30A2684B68C9
:1007C00042EA090743F60C4CDE0258BF22EA090749
:1007D000A760C4F2010CDCF800209E0242EA09077F
:1007E00058BF22EA0907CCF8007062689E0342EA0B
:1007F000090758BF22EA090767602268DB0342EA5B
:10080000090358BF22EA0903236051E703B0BDE89A
:10081000F08F00000069084018BF012070470000F9
:10082000426902EA0103914341EA03418161704751
:10083000002A08BF090481617047000044F2E840C3
:10084000C2F2000000687047B0B538B304460068D3
:10085000D4E901124CF6CC43036045F255530360D2
:1008600041608260FFF7EAFF2168CA68920710D0F2
:10087000054603E02168C86880070AD0FFF7DEFF5D
:10088000401B3228F6D32068C0688007F2D00320CE
:10089000B0BD4AF6AA2008600020B0BD0120B0BD5E
:1008A00001684AF6AA2200200A60704740F216004A
:1008B00044F2E841C2F20000C2F2000100780A6886
:1008C000104408607047000080B543F60040C4F251
:1008D0000200016841F400710160016841F4806127
:1008E0000160016841F480710160032000F094F818
:1008F0000F2000F005F800F057F8002080BD000040
:10090000B0B586B0002543F644010195C4F202015A
:100910000A68044642F001020A60096801A801F071
:10092000010101910199694600F0BEF900F0F4F966
:100930004DF68361C4F21B31A0FB01014FF0FF3083
:1009400000EB914140F2A4000022C2F20000C4F288
:10095000010240F2E733C0E90021C0E9025305611A
:10096000856100F025FC0546C0B940F2A400C2F242
:10097000000000F06FFC054680B9192000F038F83F
:100980000F2C0AD819202146002200F035F840F239
:100990001800C2F20000046000E00125284606B0FD
:1009A000B0BD00007047000080B582B0002043F663
:1009B00040010190C4F202014A6842F480424A6058
:1009C0004A6802F480420192019A0090086800226D
:1009D00040F08050086008680F2100F080500090BF
:1009E00000986FF0010000F007F802B080BD000031
:1009F00080B501F06BFB80BD70B514460D46064610
:100A000001F074FB2946224601F094F80146304675
:100A100001F074FB70BD000080B501F089FB80BD62
:100A200001F096FB2DE9F041002800F08B8043F6A1
:100A30000808C4F202080446D8F8F8030D4600F08E
:100A40000700884207D288F8F853D8F8F80300F076
:100A50000700A84276D12068810717D5410705D540
:100A6000D8F8001041F4E051C8F80010010705D58E
:100A7000D8F8001041F46041C8F80010D8F8001010
:100A8000A26821F0F0011143C8F80010C0073FD15F
:100A9000D8F8F80300F00700A84207D988F8F853FF
:100AA000D8F8F80300F00700A8424BD120684107AE
:100AB00007D5D8F80010E26821F4E0511143C8F8D6
:100AC0000010000708D5D8F80000216920F4604024
:100AD00040EAC100C8F8000000F030F9D8F8001072
:100AE00044F6E262C1F30311C0F60202515C40F227
:100AF000000220FA01F140F21800C2F20000006882
:100B0000C2F200021160FFF7FBFE0020BDE8F08199
:100B10006068811E022907D258F8081C89015CBF51
:100B20000120BDE8F08110E0012807D158F8081C29
:100B300089035CBF0120BDE8F08106E058F8081C7D
:100B4000890702D40120BDE8F081D8F8001021F017
:100B500003010843C8F80000FFF770FE064641F2A3
:100B6000883700BFD8F80000616800F00C00B0EBD7
:100B7000810F8DD0FFF762FE801BB842F2D90320AF
:100B8000BDE8F081F0B581B043F60006C4F202067C
:100B9000FFF754FE3168044641F00100306000BFA9
:100BA0003068800705D4FFF749FE001B0228F7D9FB
:100BB0003EE0306840F080003060FFF73FFE0546C1
:100BC000002041F28837B060B468FFF737FE14F0B8
:100BD0000C0F044603D0601BB842F5D928E03068FA
:100BE00020F45020306000BF3568FFF727FEA903CE
:100BF000054603D5281B6428F6D919E0306820F093
:100C0000807030603468FFF719FEA101044603D5F7
:100C1000601B0228F6D90BE0306820F0806030605D
:100C20003068000107D5FFF709FE001B0228F7D93D
:100C3000032001B0F0BD43F21000C0F2004070602C
:100C400043F20000C2F20000C6F88400F06840F2EF
:100C5000000120F4F850F060F06842F2004220F405
:100C60000050F060F068C2F2000140F41F00F06034
:100C7000F068C0F2F40240F40010F060706F20F0F1
:100C800001007067706F40F08070706740F218006C
:100C9000C2F2000000680A60FFF732FE002818BFA9
:100CA000012001B0F0BD00000F22026043F60802EF
:100CB000C4F20202136803F003034360136803F0F5
:100CC000F0038360136803F4E053C360D2F800C0FC
:100CD0004FF4E05303EADC030361D2F8F80300F0B9
:100CE000070008607047000040F20000C2F20000F8
:100CF0000068704780B5FFF7F7FF43F60801C4F2BC
:100D00000201096844F6F262C1F38221C0F60202D0
:100D1000515CC84080BD000080B5FFF7E5FF43F699
:100D20000801C4F20201096844F6F262C1F34231DB
:100D3000C0F60202515CC84080BD000010B543F609
:100D40000404C4F20204606800F00C0142F20040A6
:100D50000829C0F2F40007D0042918BF10BD41F2E1
:100D60000020C0F27A0010BD216801F03F02216826
:100D700023684902C3F3881105D4A1FB00010023B5
:100D8000FFF772FA06E041F20020C0F27A00484311
:100D9000B0FBF2F021680222C1F3014102EB4101F4
:100DA000B0FBF1F010BD00002DE9F04182B0002849
:100DB00000F0A2800446007843F60006C007C4F2A3
:100DC000020643D0B06800F00C00042805D130685A
:100DD00080033BD56068C8BB8EE0B06800F00C00B3
:100DE000082802D170684002F1D46568B5F5A02FDB
:100DF0000AD0B5F5803F0BD0306820F480303060E9
:100E0000306820F4802006E0306840F480203060B4
:100E1000306840F480303060FFF710FD002D05464B
:100E200011D000BF3068800310D4FFF707FD401BCE
:100E30006428F7D922E100BFFFF700FD401B6428BA
:100E40004FF0030055D830688003F5D42078800730
:100E50001AD5B06810F00C0F09D0B06800F00C0083
:100E6000082840F08A807068400200F1868030686F
:100E7000800702D5E06801283ED13068216920F062
:100E8000F80040EAC10030602078000738D42078AC
:100E900040074CD4A5695DB3B06800F00C00082889
:100EA00040F09E80012D27D07068E16900F4800237
:100EB0008A4221D1216A00F03F028A421CD147F6C2
:100EC000C071626A0140B1EB821F15D1A26A002392
:100ED000CFF6FF7303EBC23200F440316FF30F0221
:100EE000914209D1E16A00F07060B0EB016F03D16B
:100EF000002002B0BDE8F081012002B0BDE8F08121
:100F00006069002840F20000C4F2472057D0012158
:100F1000C0F8801EFFF792FC054600BF706F800787
:100F2000B5D4FFF78BFC401B0228F7D9A6E0306C44
:100F300010F080580AD100200190306C40F08050B1
:100F40003064306C00F080500190019847F2000747
:100F5000C4F200073868C00524D4386840F48070B3
:100F60003860FFF76BFC05463868C0051AD4FFF7F8
:100F700065FC401B0228F7D980E0E068002851D0CA
:100F80000020C4F2472001210160FFF757FC05460D
:100F9000306880073FF571AFFFF750FC401B022817
:100FA000F6D96BE0A568052D50D0012D52D0306FD9
:100FB00020F001003067306F20F004004DE0002188
:100FC000C0F8801EFFF73AFC054600BF706F80072F
:100FD0007FF55DAFFFF732FC401B0228F6D94DE0EC
:100FE0000027C4F2472700203866FFF727FC022DB0
:100FF00005460BD13068800158D5FFF71FFC401B18
:1010000002284FF00300F5D973E700BF3068800174
:101010007FF56EAFFFF712FC401B02284FF0030074
:10102000F4D966E70020C4F2472000210160FFF7F1
:1010300005FC0546306880077FF526AFFFF7FEFB0D
:10104000401B02284FF00300F4D952E7306F40F004
:1010500004003067306F40F001003067FFF7EEFBAF
:10106000002D054641F2883714D000BF306F80074D
:1010700013D4FFF7E3FB401BB842F7D9032002B0BB
:10108000BDE8F081FFF7DAFB401BB8424FF00300E8
:101090003FF62FAF306F8007F4D4B8F1000F7FF424
:1010A000F9AE306C20F080503064F3E604F11C059A
:1010B0002FCD08430021CFF6FF7140EA821001EBEB
:1010C000C3316FF30F0140EA0560084370600120EF
:1010D0003866FFF7B3FB0446306880013FF508AF80
:1010E000FFF7ACFB001B02284FF00300F4D900E728
:1010F000704700007047000010B590F83C20012AAE
:101100004FF0020252D0012380F83C3080F83D209D
:101110000268D2F804E0D2F808C00C682EF0700320
:10112000234341F2FF74C4F20004A24253600DDC79
:1011300040F2FF73C4F200039A4215DCB2F1804F13
:1011400029D040F20043C4F2000322E040F2FF3312
:10115000C4F201039A4212DC41F60003C4F2000318
:101160009A4218D0002312E040F60003C4F20003B4
:101170009A4210D040F60043C4F2000309E044F262
:101180000003C4F201039A4205D040F20043C4F2C6
:1011900001039A4204D149682CF0800319439160FD
:1011A0000121002280F83D1080F83C20104610BD3F
:1011B000002804BF0120704710B5044690F83D0098
:1011C00028B9002084F83C00204600F01FF80220D7
:1011D00084F83D002068211D00F082FD012084F884
:1011E000460084F83E0084F83F0084F8400084F80C
:1011F000410084F8420084F8430084F8440084F8F5
:10120000450084F83D00002010BD000080B582B08C
:10121000006841F20001C4F20001884201D002B02E
:1012200080BD0020019043F64000C4F20200016836
:10123000002241F0100101600068062100F010005A
:10124000019001983620FFF7D7FB3620FFF7D0FB3F
:1012500002B080BD90F83D1001291CBF01207047ED
:10126000022180F83D10006841F2FF72C168C4F2AB
:101270000002904241F00101C1600DDC40F2FF71BB
:10128000C4F20001884215DCB0F1804F29D040F251
:101290000041C4F2000122E040F2FF31C4F201013A
:1012A000884212DC41F60001C4F20001884218D0E5
:1012B000002112E040F60001C4F20001884210D083
:1012C00040F60041C4F2000109E044F20001C4F21A
:1012D0000101884205D040F20041C4F20101884278
:1012E00006D1816801F00701062904BF002070477C
:1012F000016841F001010160002070477047000063
:1013000010B5044600680169890744BFC1685FEAF7
:10131000817138D420680169490744BFC1685FEA18
:1013200041713CD420680169090744BFC1685FEA84
:10133000017141D420680169C90644BFC1685FEAF0
:10134000C16145D420680169C9071CBFC1685FEA53
:10135000C1714AD120680169090644BFC1685FEACA
:10136000016149D420680169490644BFC1685FEA48
:10137000416148D420680169890644BFC1685FEAB9
:10138000816147D410BD6FF0020101610121217715
:101390008069800745D02046FFF7B0FF47E06FF037
:1013A0000401016102212177806910F4407F41D05E
:1013B0002046FFF7A3FF43E06FF00801016104211D
:1013C0002177C06980073ED02046FFF797FF40E0B5
:1013D0006FF01001016108212177C06910F4407F8E
:1013E0003AD02046FFF78AFF3CE06FF0010101612F
:1013F000204600F03FF8ADE76FF080010161204624
:10140000FFF776FEAEE76FF040010161204600F085
:1014100045F8AFE76FF0200101612046FFF76AFE53
:1014200010BD204600F022F8204600F021F80020F0
:1014300020776FE7204600F019F8204600F018F8F2
:10144000002020776EE7204600F010F8204600F0DC
:101450000FF8002020776DE7204600F007F82046BF
:1014600000F006F8002020776CE7000070470000CD
:1014700070470000B0B541F200050446C4F2000513
:10148000006805F57041884208BFFFF70FFA206831
:10149000A84208BF00F07EFEB0BD0000704700000B
:1014A0007047000070470000B0B582B00368044682
:1014B0001868D9685A6900F02F05202D01F0200521
:1014C00005D125B1204600F0E1FC02B0B0BD5FEAD5
:1014D000007C1EBF02F0010E01F4907212EB0E02AE
:1014E00048D1226B0840C1063BD5012A39D10020E2
:1014F0000190186801905868019001985869400659
:1015000040D4A08DE18DE28D002A1CBF401A5FEA15
:10151000004101D102B0B0BD216851E8031F22682B
:1015200021F4907142E80313002BF5D1216851E8B2
:10153000051F226821F0010142E80513002BF5D1B7
:10154000202184F83E100021216300BF216851E86A
:10155000031F226821F0100142E80313002BF5D18C
:1015600052E0010656D44006D4D5204600F082FC55
:1015700002B0B0BDC20718BF11F480724FD142074C
:1015800053D459E0A06B016849688AB2002AC1D0DF
:10159000A38D9A42BED2E185C069B0F5807F30D07C
:1015A000206850E8030F216820F4807041E80302AE
:1015B000002AF5D1206850E8050F216820F00100CD
:1015C00041E80502002AF5D1206850E8050F21689E
:1015D00020F0400041E80502002AF5D1202084F8DF
:1015E0003E000020206300BF206850E8030F216800
:1015F00020F0100041E80302002AF5D1A06BFEF7AD
:10160000D3FFA08DE18D401A81B22046FFF748FF3D
:1016100002B0B0BD204600F025FD02B0B0BD226C86
:1016200042F001022264420706D5BEF1000F03D04A
:10163000226C42F002022264820706D5BEF1000F3E
:1016400003D0226C42F004022264BCF1000F06D5E4
:101650005EEA050203D0226C42F008022264226C8A
:10166000002A3FF457AF0840800602D5204600F01C
:101670000DFC20684069216C00F0400001F0080179
:10168000401827D0204600F0CDFB20684069400676
:101690001BD500BF206850E8050F216820F04000EE
:1016A00041E80502002AF5D1A06B70B141F6156141
:1016B000C0F602010165FEF7B7FF00283FF42AAF2C
:1016C000A06B016D884702B0B0BD2046FFF7EAFE6F
:1016D00002B0B0BD2046FFF7E5FE0020206402B056
:1016E000B0BD0000002804BF0120704710B50446BB
:1016F00090F83D0028B9002084F83C00204600F016
:1017000021F8242084F83D002068C16821F40051AC
:10171000C160204600F01CFC2068016921F4904162
:101720000161416921F02A014161C16841F4005120
:10173000C16000202021206484F83D1084F83E1010
:1017400010BD000010B586B0006841F20042C4F23E
:10175000010200219042CDE90411CDE9021101916D
:1017600025D044F60041C4F20001884252D1002045
:1017700043F630010090C4F202010A69342442F4B5
:1017800000220A610A6902F400220092009A009085
:10179000086840F001000860086800F0010000904F
:1017A0000098032001900020C4F202001FE043F6DD
:1017B00030000091C4F202004269472442F0200246
:1017C0004261426902F020020092009A0091016891
:1017D00041F004010160006800F0040000900098EE
:1017E000C02001900020C4F2020000F50060022138
:1017F000029100210391032104910821059101A97F
:10180000FEF73AFF204605210022FFF7F5F82046B3
:10181000FFF7EEF806B010BD10B590F83E30202B63
:101820000BD100294FF0010418BF002A01D1204636
:1018300010BD90F83C30012B01D1022010BD0123D6
:10184000002480F83C30046300F0F0FB204610BD1B
:10185000B0B50446006844F60045C4F20005A8424D
:1018600012D140F28E00C2F20000007801280BD1A4
:1018700040F2B470C2F200000178012904D140782E
:10188000012801D1FFF7CCF8206805F548418842CE
:1018900000D0B0BD40F6B604C2F2000420780228A1
:1018A00011D0012818BFB0BD40F2BC11C2F2000136
:1018B00011F8012B40F27810C2F20000FFF7ACFFE4
:1018C00002202070B0BD40F2BC10C2F2000001F056
:1018D000F9FD40F21400C2F2000000210170B0BD19
:1018E000034690F83D0020280AD100294FF001005E
:1018F00018BF002A00D1704793F83C00012801D19D
:10190000022070471962002021219A84DA84186429
:1019100083F83D10196883F83C00CA6842F08002E1
:10192000CA607047B0B50446006844F60045C4F28A
:101930000005A8420AD140F2341040F2B471C2F25C
:101940000000C2F200010822FFF766FF206805F5DB
:101950004841884218BFB0BD40F2781040F2BC1137
:10196000C2F20000C2F2000101220124FFF754FF7D
:1019700040F6B600C2F200000470B0BDFEE7000001
:101980002DE9F04387B0002743F630000697CDE9F4
:101990000477CDE902770197C4F20200016840F2B2
:1019A000000941F0800101600168C4F2020901F000
:1019B0008001019101990197016809F5406541F0A5
:1019C000010101600168002201F00101019101990A
:1019D0000197016843F2500641F008010160016877
:1019E00001F00801019101990197016841F004019A
:1019F0000160006843F2500100F00400019001987A
:101A00002846FEF715FF48464FF4807100224FF438
:101A10008078FEF70DFF029602AE0124284631467B
:101A2000CDE903470597FEF727FE48463146CDE945
:101A30000284CDE90477FEF71FFE07B0BDE8F0830E
:101A400080B540F2980043F20001C2F20000C4F2F7
:101A50000001062240F6FF7380E80E00FEF7F4FE58
:101A6000002808BF80BDFEF799FD000010B582B0C8
:101A700040F2EC0041F200010024C2F20000C4F286
:101A8000000140F2E733CDE9004441F63F7280E8BF
:101A90001600C3608461FFF78BFB68B92020CDE995
:101AA000000440F2EC00C2F200006946FFF724FB9C
:101AB000002804BF02B010BDFEF770FD80B540F2F3
:101AC000341044F60041C2F20000C4F200010023C9
:101AD0004FF00C0C4FF4E13280E80E00C0E9033304
:101AE000C0E905C3C361FFF7FDFD002808BF80BD45
:101AF000FEF754FD80B540F2781041F20041C2F289
:101B00000000C4F2010100234FF00C0C4FF46142BD
:101B100080E80E00C0E90333C0E905C3C361FFF7E5
:101B2000E1FD002808BF80BDFEF738FDFEE700009C
:101B3000FEE7000000F0070080F00703042B28BF39
:101B400004234FF0FF3C03380CFA03F338BF0020A6
:101B5000994381400CFA00F022EA000008437047E4
:101B6000EFF30980BFF36F8F154B1A681EF0100F4B
:101B700008BF20ED108A20E9F04F10602DE9090020
:101B80004FF0500080F31188BFF34F8FBFF36F8F7A
:101B900002F080F84FF0000080F31188BDE80900E2
:101BA00019680868B0E8F04F1EF0100F08BFB0ECDD
:101BB000108A80F30988BFF36F8F704700BF00BFA2
:101BC00030030020000000000000000000000000C2
:101BD000074B19680868B0E8F04F80F30988BFF335
:101BE0006F8F4FF0000080F31188704700BF00BF77
:101BF0003003002080B500F093FA80BD80B54EF22E
:101C00001000CEF20000006802F0BAFE012818BFF2
:101C100002F04AF980BD000070B592B006AC2046D3
:101C20003021FEF720FC002543F640000595CDE964
:101C30000355CDE901550095C4F202000168012663
:101C400041F080510160006800F0805000900098E1
:101C500047F200000095C4F20000016841F48041A1
:101C60000160006800F48040009000980920069010
:101C70004FF4803007902046CDE90B65FFF794F8CC
:101C800068B90F20CDE9010601A80021CDE903556F
:101C90000595FEF7C7FE002804BF12B070BDFEF721
:101CA0007DFC00004EF68850CEF20000016841F441
:101CB000700101604FF0006140F8801C7047000027
:101CC00080B540F2A400C2F20000FFF719FB80BD0E
:101CD00080B540F2EC00C2F20000FFF711FB80BDBE
:101CE00010B540F6FF3E0368C4F2000E40F2004C0F
:101CF0007045C4F2010C0FDCB0F1804F19D040F2F6
:101D00000042C4F20002904213D040F60002C4F236
:101D1000000290420DD010E040F60042C4F20002F2
:101D2000904206D0604504D00022C4F201029042E5
:101D300003D14A6823F07003134341F6FF72C4F2E3
:101D4000000290420DDC70451FDCB0F1804F41D0A5
:101D500040F20042C4F2000290423BD040F6000242
:101D600021E043F6FF72C4F20102904220DC42F20D
:101D70000002C4F2000290422CD00022C4F2010200
:101D8000904227D0604525D028E040F60042C4F2BA
:101D9000000290421ED041F60002C4F200029042BE
:101DA00018D041F60042C4F20002904212D015E071
:101DB00044F20002C4F2010290420BD044F6000249
:101DC000C4F20102904205D044F20042C4F2010282
:101DD000904203D1CA6823F44073134323F0800276
:101DE0004B69D1F800E08C681A430260C46240F489
:101DF0008062C0F828E0624504BF096901630121DF
:101E0000416110BD80B540F23410C2F20000FFF70E
:101E10004BFB80BD80B5806B0021C185C184FFF77D
:101E200041FB80BD016851E8031F026821F49071F5
:101E300042E80313002BF5D1016851E8051F026841
:101E400021F0010142E80513002BF5D1016B0129B6
:101E50000AD100BF016851E8031F026821F0100198
:101E600042E80313002BF5D1202180F83E10002119
:101E70000163704780B50168CA6822F04002CA60F9
:101E8000202180F83D10FFF74DFD80BD80B582B068
:101E900090F83E1022291ED18268B2F5805F02D1EF
:101EA0000169002948D0816AB2F5805F07D00AB97C
:101EB000026922B10268526802F07F0201E0026802
:101EC00052680A700121826A11448162C18D013910
:101ED0000A04C18501D002B080BD0168CA6822F041
:101EE0002002CA60CA6822F48072CA604A6922F07D
:101EF00001024A61202180F83E10016B012923D1A3
:101F000000210163016851E8031F026821F01001FC
:101F100042E80313002BF5D101680A68D20606D502
:101F2000002201920A680192496801910199818D0C
:101F3000FFF7B6FA02B080BD0168826A49686FF3A4
:101F40005F2111800221BEE7FFF782FC02B080BD55
:101F500010B504460068D4E902C22369016921F47E
:101F6000405111430161626943EA0C01E369114385
:101F7000C268194349F20C639A431143C160416935
:101F8000A26921F4407141F20043114340F48062A0
:101F9000C4F201039A42416102D1FEF7BDFE01E0A5
:101FA000FEF7A8FEE16963681922B1F5004FA0FBB6
:101FB00002011CD15A00DB0FFEF756F948F21F51FF
:101FC000C5F2EB11A0FB01235A096FF0630302FB7A
:101FD0000300322303EBC000A0FB01014FF4F870B3
:101FE00000EA111000EB0210C1F342111AE09A004E
:101FF0009B0FFEF739F948F21F51C5F2EB11A0FB18
:1020000001235A096FF0630302FB0300322303EB41
:102010000010A0FB0101F02000EA511000EB0210BB
:10202000C1F3431122680843906010BD816282852C
:10203000C28500212222016480F83E20026980F8D6
:102040003C1022B10168CA6842F48072CA6001681B
:10205000486940F001004861C86840F02002002053
:10206000CA60704790F83D10212923D18168B1F5ED
:10207000805F01D1016931B1016A02684B1C0362C2
:102080000978516007E0016A036831F8022B6FF3A9
:102090005F225A600162C18C01390A04C18418BFF1
:1020A00070470068C16821F08001C160C16841F0DB
:1020B0004001C1607047000080B540F27810C2F264
:1020C0000000FFF7F1F980BDFEE70000002848BFDF
:1020D000704700F01F01012202FA01F14EF20012D6
:1020E0004009CEF2000242F8201070474EF60C5024
:1020F000CEF200000068C0F3022070474EF6145381
:1021000000F00F02CEF2000309011A4400F160430F
:10211000B0F1FF3FC8BF03F5644211707047000083
:102120004EF61F50CEF200000021017070470000F3
:102130004EF60C51CEF200010A684FF6FF031A402A
:1021400060F30A2242F0806040F0FD700860704742
:102150004EF60C50BFF34F8FCEF200000168042200
:1021600001F4E061C0F2FA5211430160BFF34F8FF6
:1021700000BFFDE7B0B505780446681EC1B2204631
:1021800001F0A4FA291931F8011C081A18BF4FF000
:10219000FF30B0BD80B540F6B800C2F20000018843
:1021A0004EF6EF62013101800188CEF6EE625143B6
:1021B00044F244424FEAB101C0F24442914240F23B
:1021C0008D01C2F200019CBF01220A700288B2F5A3
:1021D000617F40F6E202C2F2000203D900230380CD
:1021E0000120107008781178084308BF80BD40F6C0
:1021F000BC00C2F20000006800F0B2FA80BD00002E
:1022000001384FF0FF3200BF10F801CF8B180132B8
:10221000052A83F801C0F7D17047000080ED040A59
:10222000704700006FF0030000BF00BF00BF013027
:1022300000BFF9D3704700002DE9F04F85B0DDF8FD
:1022400038801D4616460F46044600F03BF84FF016
:1022500000092681CDF81090CDF8089000966E46C2
:102260004FF0010A4FF0020B38463146C4E90075C1
:10227000A4F80A80CDF804A0CDF80CB0FEF7FCF964
:10228000284631468DE8000FFEF7F6F920682189CF
:102290000122FEF7CDFA0A2000F08AF92068218990
:1022A0000022FEF7C5FA0A2000F082F9204600F06D
:1022B00041F8204600F03EF8204600F037F805B01F
:1022C000BDE8F08F10B50446007D28B1012000F074
:1022D0006FF9207D0028F9D10120207510BD000084
:1022E0002DE9F0410D468046FFF7ECFF7DB100245B
:1022F00000260027404600F01DF8361847EBE0772F
:10230000052000F055F90134AC42F3D301E000267A
:102310000027304639462A460023FEF71DF8C8F844
:102320000C00404600F002F8BDE8F0810021017584
:102330007047000070B50446FEF780FA054600BFFE
:1023400060686189FEF766FA012809D1012000F072
:102350002FF9FEF773FA401B9628F1D9002070BDC3
:1023600000260025206821890122FEF761FAFFF787
:1023700059FF206821890022FEF75AFAFFF752FF21
:10238000606861896D00FEF745FA012808BF0135D4
:10239000172E06F10106E5D320682189012285F474
:1023A0000005FEF745FAFFF73DFF2068218900226E
:1023B000FEF73EFAFFF736FF284670BD2DE9F041E3
:1023C0002DED028B0D468046FFF77CFF002600278F
:1023D00065B100244046FFF7ADFF361847EBE077C4
:1023E000052000F0E5F80134AC42F3D3304639461D
:1023F0002A460023FDF7B0FFD8F80C1098ED041A18
:10240000401A00EE100AB8EEC00A404680EE018A7B
:10241000FFF78CFFB0EE480ABDEC028BBDE8F081FF
:1024200010B582B040F2F01440F60041C2F2000450
:10243000C4F202014FF0100C204640220B46CDF8AA
:1024400000C0FFF7F9FEB7EE000A2046FFF7E6FEF0
:10245000642000F0ADF820460A21FFF741FF02B0EA
:1024600010BD000080B540F2EC00C2F20000FEF7A3
:10247000F1FE80BD002200BF90F800C00B789C45A3
:102480001CBF00207047042A00F1010002F1010284
:1024900001F1010184BF01207047EDE74EF60850BD
:1024A0000021CEF20000C0F60201016043F63000C8
:1024B000C4F20200016821F001010160016821F00D
:1024C00002010160016821F004010160016821F04E
:1024D00008010160FEF756FBFEF7B8F862B6FEF79A
:1024E000F3F9FFF799FBFFF74BFAFFF7A9FAFFF7AC
:1024F000E5FAFFF7BBFAFFF7FDFA42F20800CEF269
:102500000400016841F480510160FFF7ABFF00F067
:1025100061F844F65472C0F602020120012100F075
:10252000BDF840F6BC01C2F2000144F6207208601A
:10253000C0F602020120012100F0B0F840F2AC71B7
:10254000C2F20001086043F2096044F66472C0F60A
:102550000200C0F60202002100F032F940F6C0018C
:10256000C2F20001086043F20D5044F63072C0F62A
:102570000200C0F60202002100F022F940F2B07120
:10258000C2F20001086043F2594044F6FC62C0F612
:102590000200C0F60202002100F012F940F2A87118
:1025A000C2F20001086000F029F800BFFEE7000059
:1025B000EFF3058100291CBF6FF00500704700286C
:1025C00004BF0020704780B580B201F041FA0020BE
:1025D00080BD0000EFF3058000281CBF6FF00500F0
:1025E000704740F28800C2F200000168002911BF64
:1025F0004FF0FF30012101600020704710B5EFF36C
:10260000058000281CBF6FF0050010BD40F2880453
:10261000C2F20004206801281CBF4FF0FF3010BD3B
:10262000FFF7E8FA0220206001F0DAFA002010BD7E
:1026300010B582B020B10C46EFF3058121B184B111
:102640006FF0030002B010BDA1B201F0F7FF012846
:102650001CD06FF00100002C08BF6FF0020002B028
:1026600010BD0021019101AA002101F091FF012874
:102670000FD1019850B14EF60450CEF200004FF049
:1026800080510160BFF34F8FBFF36F8F002002B006
:1026900010BD6FF0020002B010BD000070B582B036
:1026A0000D4685424FF00006EFF3058155D800280E
:1026B00053D0002951D114469AB1A36863B1E6689A
:1026C00000224F2E4FF0000188BF0122502E38BF4C
:1026D00001214F2E07D833B9E168002918BF012125
:1026E00000E00021002209B1002636E0012809D1CE
:1026F00072B1A3680326012000210022009601F098
:1027000059FC0AE0DAB1A268294601F007FC19E099
:1027100001200021032201F029FC0646002D18BFEC
:10272000002E10D0304600210022002301F0CEFC04
:10273000012808D0304601F03BF9002603E0294685
:1027400001F0CAFB06463EB1002C14BF21680021EF
:10275000304601F019F900E00026304602B070BDA5
:1027600080B582B0C8B1EFF30581D1B100210191EC
:1027700001A901F0E9FD01281ED1019850B14EF6E2
:102780000450CEF200004FF080510160BFF34F8F34
:10279000BFF36F8F002002B080BD6FF0030002B066
:1027A00080BD00210022002301F090FC013818BFF9
:1027B0006FF0020002B080BD6FF0020002B080BD79
:1027C00070B584B08E46002100280391EFF3058197
:1027D00046D0002944D1FAB19369002B08BF1823D1
:1027E000382B16D81179C90713D155699468116827
:1027F0004FEA950C002D08BF4FF0800CFCB1D66855
:102800005C2E1BD3D5B11569C5B10024012555B97E
:102810001BE0002004B070BD0124002118234FF0FC
:10282000800C00258DB1946812690294CDE90032C4
:102830006246734602F068F8039011E00CB9D46860
:102840009CB100250024002DEDD14CB103AC0093C8
:102850001FFA8CF27346019402F022F8012802D18B
:10286000039804B070BD0020E6E71469B4FA84F45C
:102870006409D6E7F0B581B00C4644F6A85140F2A1
:102880003036C2F20001C2F200060F8831680546F8
:10289000081D00F037FF4FF6FF7085420AD14CB19A
:1028A0003068011D44F68050C2F2000000F086FF3F
:1028B00001B0F0BD7C19A5B23068A54284800AD071
:1028C00040F24030C2F2000000683168043100F08C
:1028D00057FF01B0F0BD40F23830C2F2000000688E
:1028E0003168043100F04CFF44F60C50C2F2000095
:1028F00001888D4238BF048001B0F0BD70B5044638
:1029000000F074FF44F2EC40C2F20000016840F2B3
:10291000303501310160C2F20005296844F6745671
:10292000C2F2000641B1306860B92868E16AC06A45
:10293000884298BF2C6005E02C600068012801D116
:1029400000F0CEF944F2F840C2F200000168013113
:102950000160616444F2FC41C2F20001E06A0A686D
:10296000904288BF086040F2483100EB8000C2F21C
:10297000000101EB8000211D00F020FF00F05AFF54
:10298000306880B12868E16AC06A884228BF70BD9B
:102990004EF60450CEF200004FF080510160BFF3BC
:1029A0004F8FBFF36F8F70BD70B582B000F01EFF08
:1029B00044F6AC56C2F20006306850BB44F6AC4454
:1029C000C2F20004204600F0CBFE44F6C045C2F23D
:1029D0000005284600F0C4FE40F23430C2F2000088
:1029E000046040F24430C2F2000040F23A2240F269
:1029F000DC2305600025C2F20002C2F200030A20B7
:102A00001021009501F0D6FA306010B103A100F05A
:102A1000BBFF00F00FFF02B070BD00BF546D7251DC
:102A200000000000F0B581B044F2F045C2F20005AC
:102A30002868E0B144F6945644F2EC47C2F200062E
:102A4000C2F2000700F0D2FEF068C468201D00F05A
:102A500059FE38680138386028680138286000F06D
:102A6000E9FE204600F058F828680028EAD101B0B5
:102A7000F0BD000080B5026C002A08BF80BDD0E91F
:102A800002C31344C360634524BF0368C360C368C3
:102A900008461946FDF79AFC80BD000070B5866BAC
:102AA000036C0446E3B115461AB3E0681A46FDF715
:102AB0008DFCE168206C2268091A9142E16003D222
:102AC000A16840420844E060A81EB0FA80F04009C6
:102AD0003146002E18BF01210840361A002516E0A5
:102AE0002068002598B9A06802F01CF8A56005468A
:102AF0000DE060681A46FDF769FC216CD4E901021B
:102B0000002508446060904224BF20686060711C0A
:102B10002846A16370BD000010B5044690F8590026
:102B2000022808BF10BD012803D030B9206B00F087
:102B300099FE204600F096FE10BD4FF0500080F345
:102B40001188BFF36F8FBFF34F8F00BFFEE7000008
:102B5000416A00290FBF0020006B0088C0F13800D7
:102B60007047000040F23431C2F2000109680A687F
:102B7000B2FA82F35B090360002A0EBF0020C86826
:102B80000088704740F6E300C2F20000C21D22F048
:102B9000070210F0070CA0EB020318BF104644F622
:102BA0007852C2F200020021C2E900014FF47052D3
:102BB000BCF1000F18BF03F570520244083A40F20E
:102BC0003C3322F00702C2F200031A60C2E900118E
:102BD000111A1A68C0E9002144F60850C2F2000038
:102BE000016044F60050C2F20000016044F6D44097
:102BF000C2F20000012101707047000040F2483429
:102C00004EF60455C2F20004CEF200054FF0805695
:102C1000FFF708FF20680228FAD32E60BFF34F8F1A
:102C2000BFF36F8FF4E70000B0B5049D002914BF17
:102C30002A602D60C5E90F01284601211C4601F0DC
:102C400005FA85F84C40B0BD2DE9F0470A9C824654
:102C5000206B16460F46DDE908599100A5229846DB
:102C6000FDF7F9FB206B00EB8600A0F1040020F0DB
:102C700007067FB104F13400002100BF7A5C4254A2
:102C80007A5C1AB10F2901F10101F7D3002084F811
:102C9000430002E0002084F834000027201D372D77
:102CA00028BF3725E562C4E9135700F065FD04F13C
:102CB000180000F061FDC5F1380020833046514610
:102CC000424624616462676584F8587000F054FBE2
:102CD000B9F1000F206018BFC9F80040BDE8F087C7
:102CE000B0B540F248350024C2F20005281900F0C2
:102CF00037FD1434B4F58C6FF8D144F6D844C2F2E1
:102D00000004204600F02CFD44F6EC45C2F200051C
:102D1000284600F025FD44F62050C2F2000000F0E5
:102D20001FFD44F69450C2F2000000F019FD44F675
:102D30008050C2F2000000F013FD40F23830C2F2C1
:102D40000000046040F24030C2F200000560B0BDF7
:102D500080B544F67852C2F2000200BF11461268F4
:102D60008242FBD3D1F804C001EB0C03834203D1B0
:102D70004068604448600846D0F804C000EB0C038B
:102D8000934201D013460BE040F23C33C2F2000301
:102D90001B689A4204D0D2E9003E0EEB0C0242605E
:102DA0008142036018BF086080BD000080B58C467A
:102DB000014621F804CF9445006108D99A4201D216
:102DC0009C4512D240F23430C2F2000008E0D21A20
:102DD000008B92B2824208D240F24430C2F200002C
:102DE000006800F0CDFC002080BD012080BD000007
:102DF00010B5044600F0FAFCA06BB0FA80F044096C
:102E000000F018FD204610BD10B5044600F0EEFCA1
:102E1000A06BE16B401AB0FA80F0440900F00AFDA3
:102E2000204610BD08480068006880F308884FF00D
:102E3000000080F3148862B661B6BFF34F8FBFF312
:102E40006F8F00DF00BF00BF08ED00E070B582B0FB
:102E500040F23432C2F2000212680546D2680E46D1
:102E6000D468201D00F04EFC94F82800410704D4DB
:102E700000F0FE0084F8280011E0208B3246284440
:102E800081B220462B46FFF791FF40B10026204635
:102E900000212A460023009601F0E2FF20B1216ABA
:102EA0002046884702B070BD4FF0500080F3118873
:102EB000BFF36F8FBFF34F8FFEE700002DE9F041A6
:102EC00086B044F6AC57C2F20007386802A9002267
:102ED0004FF0000801F098FA002800F0708001AC73
:102EE00002AD0AE000F0FE0086F8280038682946A6
:102EF000002201F089FA002861D00298B0F1FF3F6A
:102F000003DCDDE903200599904702980028EDD401
:102F1000049E706910B1301D00F0F4FB204600F0F3
:102F2000BBF802990929E1D80246DFE801F0080858
:102F300008052E3F0808052E96F82800D2E796F8D7
:102F40002800BDF80C30318B40F0010086F82800D5
:102F5000C81881B23046FFF729FF0028C6D0316A71
:102F60003046884796F828004007BFD5BDF80C00CA
:102F7000318B0023084482B230460021CDF8008016
:102F800001F06EFF0028B1D125E096F8280040F04E
:102F90000101BDF80C0086F82810308390B1104470
:102FA00081B230461346FFF701FF9FE796F82800ED
:102FB00081073FF597AF304600F054FC96E706B026
:102FC000BDE8F0814FF0500080F31188BFF36F8FA0
:102FD000BFF34F8FFEE74FF0500080F31188BFF32F
:102FE0006F8FBFF34F8F00BFFEE7000070B582B058
:102FF0000E46044600F046FE01A800F04DF8019987
:1030000019B101F067FE02B070BD05464EB9A54288
:1030100007D301F05FFE20462946FFF717FF02B0F5
:1030200070BD4EB140F24430C2F20000006800684A
:10303000B0FA80F0420900E0002244F6AC50C2F23F
:1030400000000068611B89B200F0E0FC01F042FE64
:103050000028D8D14EF60450CEF200004FF0805137
:103060000160BFF34F8FBFF36F8F02B070BD0000E0
:1030700040F23830C2F200000168096821B10068EE
:10308000C068C068808801E04FF6FF7044F60C51BC
:10309000C2F200010880704770B5044601F084FC5C
:1030A00040F22C36C2F2000631880546884203D22F
:1030B00000F008F8012000E000202060284635805C
:1030C00070BD00002DE9F04182B040F23437C2F209
:1030D00000073868016891B34FF0000809E000BFAD
:1030E000A08038682946246100F04AFB38680168EE
:1030F00029B3C068C4680688251D284600F002FB75
:10310000216A2046884794F828004007EED5208B96
:10311000304481B2B142E3D8204600213246002338
:10312000CDF8008001F09CFE0028DFD14FF0500068
:1031300080F31188BFF36F8FBFF34F8FFEE740F22C
:103140004431C2F200010A6808603A6002B0BDE88A
:10315000F081000081B00020009040F21C00C2F21B
:10316000000000684FF0500181F31188BFF36F8FAA
:10317000BFF34F8F013001D0FEE700BF0098002859
:10318000FCD001B07047000082B001AC2046FFF7D0
:10319000E9FC0199FFF72AFFFFF790FEF6E7000030
:1031A000F0B581B0044600F021FB94F94560012E92
:1031B0000FDB04F1240500BF286850B1284601F058
:1031C00041FD002818BF00F07BFC70B2013E0128D1
:1031D000F2DCFF2684F8456000F02CFB00F006FBD3
:1031E00094F94470012F0EDB04F11005286850B1EA
:1031F000284601F027FD002818BF00F061FC78B2D6
:10320000013F0128F2DC84F8446000F013FB01B0B8
:10321000F0BD00002DE9F04381B0044600F032FD1E
:1032200040F23C36C2F200063068002808BFFFF7C3
:10323000A9FC44F6D448C2F2000898F8000000281F
:1032400018BF4FF0004020420DD0002401F042FD95
:1032500060071ED04FF0500080F31188BFF36F8FCE
:10326000BFF34F8FFEE7C4B114F0070004F108016B
:103270001EBF081A00F108015FEA41700ED04FF03E
:10328000500080F31188BFF36F8FBFF34F8F00BFE3
:10329000FEE7204601B0BDE8F083002144F6005966
:1032A000C2F20009D9F800004A1E8242CDD244F68B
:1032B0007850C2F2000005682F4657F8042F8A4262
:1032C00011D22B685BB100BF1F4657F8042F284668
:1032D0001D468A4207D22B68002BF5D103E044F645
:1032E0007850C2F2000033689D42AED004682B686B
:1032F000521A112A036010D36818430709D04FF0FF
:10330000500080F31188BFF36F8FBFF34F8F00BF62
:10331000FEE742603960FFF71BFD44F6085039684C
:10332000D9F80020C2F200000368511A9942C9F886
:10333000001038BF016098F80000396800284FF08D
:10334000000018BF41F00041286044F61450C2F25A
:103350000000026808343960511C016076E7000003
:1033600040F23030C2F20000016819B101680A6D04
:1033700001320A6500687047034643F25510C0F6F3
:1033800002004FF0807C21F0010103E903106FF08F
:10339000020043F8240CA3F1440043F8202C7047AA
:1033A0002DE9F04182B0427940F6C40CC2F2000C23
:1033B00042B3ACF1010400F10A0E4FF00008694677
:1033C000DEF80350DEF80060CDF8035000964FF0B1
:1033D000FF3526464F19BB787F781B063F0147EA29
:1033E00013730135052D06F8013FF3D1013A08F1B9
:1033F0000108130604F10604E2D14FF0FF3151FA3F
:1034000088F101E04FF0FF31407988B101EB4100D4
:103410000CEB400440F29001C2F200012046FFF79D
:1034200029F840F28C01C2F200010978084302D069
:1034300002B0BDE8F08140F29001C2F200012046E6
:10344000FEF7DEFE40F2AC70C2F200000068FFF74B
:1034500087F902B0BDE8F08100F09CF840F2140456
:10346000C2F20004207878B1002501E0207858B13C
:103470004FF47A70FFF79CF80135E8B2FF28F5D1D8
:1034800000F09EF80025F1E740F2082440F298058C
:1034900040F60046C2F20004C2F20005C4F2020681
:1034A0004FF47A70FFF784F82046012100F09EF86F
:1034B0002846FDF7F5F930464FF48051FDF7B0F995
:1034C000EEE7000010B50446FEF754FE00B110BD53
:1034D00040F28F00C2F200000178A0788142F6D15C
:1034E000012808D02128F2D1607840F29601C2F27A
:1034F0000001087010BDE0780128E8D1607900284B
:1035000008BF10BD2046FFF74BFF10BDFEF788FF38
:1035100040F2AC7A40F2150640F28C0944F6A84716
:1035200040F2F01444F6B835C2F2000AC2F20006C6
:10353000C2F200094FF00108C2F200074FF0000B81
:10354000C2F20004C2F2000503E000BF484680F862
:1035500000B0DAF800004FF6FF71FFF769F8307835
:1035600000283046F3D189F8008087F800B000BF0A
:103570001420FFF71DF820460A21FEF71FFF3878B8
:1035800005EB8001013081ED000AC1B23C293870A1
:10359000EED3DBE780B50020C4F202004FF4807167
:1035A0000122FDF745F94FF4FA60FFF701F840F208
:1035B0000820C2F20000212100F018F880BD0000B0
:1035C00010B50020C4F202004FF4807100220024E4
:1035D000FDF72EF94FF47A70FEF7EAFF40F6B600D9
:1035E000C2F200000470FFF7D5FF10BD10B504460D
:1035F00000F09EFB20782146421C40F27810C2F277
:103600000000FEF76DF910BD40F6BC0740F28D05D5
:1036100040F28E0A40F2341440F2200940F20406CF
:10362000C2F20007C2F20005C2F2000A4FF0000B1E
:10363000C2F200044FF00108C2F20009C2F2000613
:1036400012E000BFB9F80000314600BA000CA6F83D
:10365000010020460822FEF743F98AF8008085F829
:1036600000B00120FEF7A4FF38684FF6FF71FEF7A7
:10367000DFFF28780028E5D140F6E200C2F2000022
:1036800000780028EDD006208AF8000040F6E2001D
:10369000C2F2000040F20C0180F800B02046C2F2F5
:1036A00000010822FEF71CF9DBE70000B0B5057841
:1036B0000446681EC1B2204600F008F8291901F836
:1036C000010C2178000A6054B0BD0000B0B54FF67F
:1036D000FF72A9B14FF0000C48F2084E10F80C3000
:1036E0005A4000238EEA5204D50708BF54082246E8
:1036F000072B03F10103F5D30CF1010C8C45EDD13F
:1037000090B2B0BDD0E9013201699A60D1F804C02D
:1037100082688445536008BF4A60002202610868DD
:10372000013808600868704744F20073C2F2000371
:10373000036044F20050C2F2000008608020106074
:103740007047000044F65C33C2F20003036044F2A9
:103750005C70C2F2000008604FF480701060704727
:103760004FF6FF71024622F8081F00214260C0E9AF
:1037700003220160704700000021016170470000D2
:1037800080B5B1F800C04FF6FF72944502D1D0F871
:1037900010E006E000F108039E465B681A88624567
:1037A000FAD9DEF8042008614A609160C1F808E0A7
:1037B000CEF8041001680131016080BDD0F800C06E
:1037C000436808619A684B608A609A6899605160A2
:1037D0000CF1010101607047DFF80C00016841F451
:1037E00070010160704700BF88ED00E04FF05000AD
:1037F00080F31188BFF36F8FBFF34F8F40F21C002F
:10380000C2F2000001684A1C026001B170474EF626
:103810000450CEF200000068000608BF70474FF069
:10382000500080F31188BFF36F8FBFF34F8F00BF3D
:10383000FEE7000040F21C00C2F20000016839B14E
:103840000139016018BF7047002080F3118870476C
:103850004FF0500080F31188BFF36F8FBFF34F8F8D
:10386000FEE70000B0B5002808BFB0BD044644F62E
:10387000D440C2F20000007854F8041C002818BF9D
:103880004FF0004008420CD0A4F108052A6892B11C
:103890004FF0500080F31188BFF36F8FBFF34F8F4D
:1038A000FEE74FF0500080F31188BFF36F8FBFF336
:1038B0004F8F00BFFEE721EA000044F8040C00F03F
:1038C000E1F944F60051C2F2000154F8040C0A6810
:1038D000104408602846FFF73BFA44F61850C2F23D
:1038E000000001680131016001F0F4F9B0BD000091
:1038F0004EF21000CEF2000000210160816040F223
:103900000001C2F20001096844F6D352C1F262021A
:10391000A1FB02124FF0FF3101EB92114160072130
:1039200001607047EFF30580102814D34EF2F03198
:10393000CEF20001405C44F2E341C2F2000109789A
:10394000884208D24FF0500080F31188BFF36F8F88
:10395000BFF34F8FFEE74EF60C50CEF2000044F25C
:10396000E4410068C2F20001096800F4E0608842A6
:1039700098BF70474FF0500080F31188BFF36F8FEE
:10398000BFF34F8FFEE7000044F6345C0022C2F222
:10399000000C00BF5CF8323023B10132082A08BFA6
:1039A0007047F7E70CEBC2034CF8321058607047D1
:1039B00010B558B1044600F013F894F846000028FA
:1039C00018BF10BD2046FFF74DFF10BD4FF050004F
:1039D00080F31188BFF36F8FBFF34F8FFEE70000B6
:1039E00044F6345C0021C2F2000C00BF0CEBC103B2
:1039F0005A68824204D00131082908BF7047F5E7B0
:103A000000204CF8310058607047000070B5154632
:103A10000E460446FFF7EAFE94F84400FF2804BF70
:103A2000002084F8440094F84500FF2804BF0020DB
:103A300084F84500FFF7FEFEA06B28B904F12400CE
:103A400031462A4600F05EF82046FFF7A9FB70BD1C
:103A500010B5D8B1044644F2F440C2F20000006848
:103A600048B14FF0500080F31188BFF36F8FBFF360
:103A70004F8F00BFFEE700F005F920460021FEF75A
:103A8000F9FE01F027F9002818BF10BD4EF60450CA
:103A9000CEF200004FF080510160BFF34F8FBFF3B3
:103AA0006F8F10BD44F61051C2F200010968016029
:103AB00044F6A851C2F200010988818070470000D5
:103AC00044F6B450C2F200000121016070470000CA
:103AD00010B568B10C4640F23031C2F200010968FD
:103AE0001831FFF74DFE20460121FEF7C3FE10BD41
:103AF0004FF0500080F31188BFF36F8FBFF34F8FEB
:103B0000FEE70000B0B590B10D4640F23031C2F290
:103B10000001096814461831FFF750FE002C18BF49
:103B20004FF6FF7528462146FEF7A4FEB0BD4FF0C4
:103B3000500080F31188BFF36F8FBFF34F8F00BF2A
:103B4000FEE7000070B510B3026D044602B3E06CEE
:103B5000884238BF0846012A19D1E16A814208BF6C
:103B600070BD40F23032C2F200021268A24218D098
:103B700040F24836626901EB8101C2F2000606EBB1
:103B800081018A42E062C0F13800208313D070BD09
:103B90004FF0500080F31188BFF36F8FBFF34F8F4A
:103BA000FEE74FF0500080F31188BFF36F8FBFF333
:103BB0004F8F00BFFEE7251D2846FFF7A3FD44F207
:103BC000FC41C2F20001E06A0A68904288BF0860C6
:103BD00000EB800006EB80002946FFF7EFFD70BD8B
:103BE00010B586B0002405A804A903AACDE90444B1
:103BF000FFF79AFDDDE9032005990023CDE90101D6
:103C000042F6FD30C0F602001CA1009400F07CFEDC
:103C100044F60451C2F20001086010B101F0E6F868
:103C20000446601C20D0012C1CD14FF0500080F3C2
:103C30001188BFF36F8FBFF34F8F44F60C50C2F261
:103C400000004FF6FF71018044F67450C2F200008C
:103C50000121016044F6A850C2F200000021018059
:103C600000F08EF806B010BD4FF0500080F31188C0
:103C7000BFF36F8FBFF34F8FFEE700BF49444C4542
:103C80000000000044F2F440C2F20000016801317B
:103C90000160704744F2F440C2F20000006830B1A5
:103CA00044F6B450C2F2000001210160704744F6AE
:103CB000B450C2F20000002144F2FC4C0160C2F298
:103CC000000CDCF8001040F2483201EB8103C2F234
:103CD000000252F8230048B902EB8300A0F114035C
:103CE000D9B153F8140901390028F9D001EB81004A
:103CF00002EB800252F8040F4368101D83421360E8
:103D000001D158681060106840F23032C068C2F2C9
:103D100000021060CCF8001070474FF0500080F3A4
:103D20001188BFF36F8FBFF34F8F00BFFEE7000016
:103D300010B50129044606D0212916D14FF604708A
:103D40002080A17011E00D20207040F29600C2F298
:103D500000000078A17060700420A4F80300012026
:103D600060710020C4F8060060812046FFF79EFCC9
:103D7000A07840F28F01C2F20001087010BD00006F
:103D800080B582B04EF20040CEF200004CF27021BD
:103D9000C4F20F11D0F800294B1C9A4209D14FF000
:103DA000500080F31188BFF36F8FBFF34F8F00BFB8
:103DB000FEE7D0F800298A4209D14FF0500080F385
:103DC0001188BFF36F8FBFF34F8F00BFFEE70178FD
:103DD00044F2E3420191FF2101700178C2F2000236
:103DE0008DF803109DF8031011F05001117047D0A9
:103DF00044F2E441C2F2000107220A609DF9032067
:103E0000B2F1FF3F0BDC0A689DF80330013A5B001A
:103E10008DF803309DF90330002BF5D40A600A6851
:103E2000032A36D14FF4E06303EA02220A600199C3
:103E30000170D0F8201941F47F01C0F82019D0F8A2
:103E4000201941F07F41C0F82019FFF751FD40F2E1
:103E50001C00C2F2000000210160FFF7BDFC4EF61D
:103E60003470CEF20000016841F040410160FEF77D
:103E7000D9FFFFF70FFFFFF76DF9002002B080BDFB
:103E80004FF0500080F31188BFF36F8FBFF34F8F57
:103E9000FEE74FF0500080F31188BFF36F8FBFF340
:103EA0004F8F00BFFEE7000080B54FF0500080F359
:103EB0001188BFF36F8FBFF34F8F00F081FD30B1DA
:103EC0004EF60450CEF200004FF080510160002009
:103ED00080F3118880BD000010B560B10C468142AE
:103EE00013D94FF0500080F31188BFF36F8FBFF3E9
:103EF0004F8F00BFFEE74FF0500080F31188BFF3F3
:103F00006F8FBFF34F8F00BFFEE70021022200F04A
:103F10002DF8002818BF846310BD000010B582B0D2
:103F200058B10C46814212D94FF0500080F31188ED
:103F3000BFF36F8FBFF34F8FFEE74FF0500080F35A
:103F40001188BFF36F8FBFF34F8F00BFFEE713469B
:103F50004FF0020C00210022CDF800C000F02AF83A
:103F6000002818BF846302B010BD0000F0B581B016
:103F7000B0B105464843503014460E46FFF74AF9A3
:103F8000074650B1002007F1500287F84600284646
:103F9000314623460097FEF747FE384601B0F0BD94
:103FA0004FF0500080F31188BFF36F8FBFF34F8F36
:103FB000FEE70000B0B582B068B11D46ABB1F1B903
:103FC000EAB14FF0500080F31188BFF36F8FBFF359
:103FD0004F8F00BFFEE74FF0500080F31188BFF312
:103FE0006F8FBFF34F8F00BFFEE74FF0500080F39D
:103FF0001188BFF36F8FBFF34F8F00BFFEE751B142
:104000004AB94FF0500080F31188BFF36F8FBFF3B0
:104010004F8F00BFFEE750230193019B502B0AD125
:10402000069B019C012485F846400095FEF7FCFDA7
:10403000284602B0B0BD4FF0500080F31188BFF3A6
:104040006F8FBFF34F8F00BFFEE7000070B5F8B170
:1040500004460E46FFF7CAFB2068D4E90F1200257C
:1040600002FB0103013901FB0201A563C4E901035D
:10407000FF20E16084F8440084F8450004F110005A
:104080007EB1FFF76DFB04F12400FFF769FB18E038
:104090004FF0500080F31188BFF36F8FBFF34F8F45
:1040A000FEE7016869B100F0CDFD50B14EF6045055
:1040B000CEF200004FF080510160BFF34F8FBFF38D
:1040C0006F8FFFF7B7FB012070BD00002DE9F04FA7
:1040D00083B0ADF80A20C0B11D460E460446F1B1CA
:1040E000022D03D1E06B012840F09D8000F048FCD8
:1040F00008BBBDF80A00F0B14FF0500080F3118802
:10410000BFF36F8FBFF34F8FFEE74FF0500080F388
:104110001188BFF36F8FBFF34F8F00BFFEE7206C96
:104120000028DDD04FF0500080F31188BFF36F8F6F
:10413000BFF34F8FFEE7FFF759FBA06B022D5AD05C
:10414000E16B884257D304F1100801206F464FF00D
:10415000000B0DF10A094FF0805A00BFBDF80A109C
:10416000002900F07C80C00702D03846FFF79AFC97
:10417000FFF760FBFFF786FDFFF738FB94F844007C
:10418000FF2808BF84F844B094F84500FF2808BF12
:1041900084F845B0FFF74EFB3846494600F038FB3F
:1041A00000285FD12046FEF72FFEA8B1BDF80A1007
:1041B0004046FFF78DFC2046FEF7F2FF00F08AFD37
:1041C00078B94EF60450CEF20000C0F800A0BFF35C
:1041D0004F8FBFF36F8F04E02046FEF7E1FF00F042
:1041E00079FDFFF703FBA06B022D04D0E16B884241
:1041F0004FF00000B2D2204631462A46FEF74EFC70
:1042000054F8241FC9B1204600F01CFD08B34EF637
:104210000450CEF200004FF080510160BFF34F8F89
:10422000BFF36F8F15E04FF0500080F31188BFF39C
:104230006F8FBFF34F8F00BFFEE750B14EF60450B3
:10424000CEF200004FF080510160BFF34F8FBFF3FB
:104250006F8FFFF7EFFA012003B0BDE8F08FFFF793
:10426000E9FA04E02046FEF79BFF00F033FD002052
:1042700003B0BDE8F08F00002DE9F04381B0E8B154
:104280001E46914605460F4609B3022E02D1E86B41
:10429000012837D1FFF746FBEFF311884FF05000AC
:1042A00080F31188BFF36F8FBFF34F8FA86B022E7F
:1042B00019D0E96B884216D300203FE04FF0500040
:1042C00080F31188BFF36F8FBFF34F8FFEE7286C29
:1042D0000028DAD04FF0500080F31188BFF36F8FC1
:1042E000BFF34F8FFEE795F84540A86B2846394647
:1042F0003246FEF7D3FBFF2C0DD0601C85F845003D
:1043000001201BE04FF0500080F31188BFF36F8F46
:10431000BFF34F8FFEE755F8240F70B1284600F029
:1043200091FC0146B9F1000F4FF0010006D00029C1
:104330001CBF0120C9F8000000E0012088F31188AB
:1043400001B0BDE8F083000070B560B10546006CB7
:1043500098B14FF0500080F31188BFF36F8FBFF317
:104360004F8F00BFFEE74FF0500080F31188BFF37E
:104370006F8FBFF34F8F00BFFEE728680C46F0B188
:10438000FFF7D0FAEFF311864FF0500080F3118859
:10439000BFF36F8FBFF34F8FA96BE86B81420AD2D7
:1043A00095F845000131FF28A96314D0013085F844
:1043B000450001201CE0002086F3118870BDA8682C
:1043C0000028DDD04FF0500080F31188BFF36F8FCD
:1043D000BFF34F8FFEE755F8240F60B1284600F079
:1043E00031FC0146002C4FF0010018BF002906D116
:1043F00086F3118870BD012086F3118870BD0120FD
:10440000206086F3118870BD2DE9F04F85B0ADF8BE
:104410001220A0B10C460546002900F0A78000F04C
:10442000AFFAB0B9BDF8120098B14FF0500080F368
:104430001188BFF36F8FBFF34F8F00BFFEE74FF0C0
:10444000500080F31188BFF36F8FBFF34F8F00BF11
:10445000FEE705F1240005F11009019002AF0DF10E
:10446000120A4FF000080AE02846FEF799FE00F015
:1044700031FC2846FEF7BCFC002840F08480FFF7A2
:10448000B5F9D5F838B0BBF1000F1DD0284621464C
:10449000FEF7F0FAABF10100A863286970B1484655
:1044A00000F0D0FB50B14EF60450CEF200004FF0B9
:1044B00080510160BFF34F8FBFF36F8FFFF7BAF9E1
:1044C00000200126A0B95FE0BDF8120050B1B8F19C
:1044D000000F02D13846FFF7E5FA4FF0010801203E
:1044E00030B951E0FFF7A6F90026002000284BD094
:1044F000FFF7A0F9FFF7C6FBFFF778F995F844003E
:10450000FF2804BF002085F8440095F84500FF28E7
:1045100004BF002085F84500FFF78CF93846514666
:1045200000F076F900289FD12846FEF761FCB8B16B
:10453000BDF812100198FFF7CBFA2846FEF730FEBF
:1045400000F0C8FB00289AD14EF60450CEF20000CD
:104550004FF080510160BFF34F8FBFF36F8F8EE735
:104560002846FEF71DFE00F0B5FB88E7286C002802
:104570003FF455AF4FF0500080F31188BFF36F8FB9
:10458000BFF34F8FFEE70026304605B0BDE8F08F41
:104590002DE9F04381B000B3914605460E4631B394
:1045A000FFF7C0F9EFF311884FF0500080F3118846
:1045B000BFF36F8FBFF34F8FAC6B24B395F844708C
:1045C00028463146FEF756FA601EFF2FA8631CD01E
:1045D000781C85F8440001202AE04FF0500080F359
:1045E0001188BFF36F8FBFF34F8F00BFFEE7286CBA
:1045F0000028D5D04FF0500080F31188BFF36F8FA3
:10460000BFF34F8FFEE7002012E055F8100F70B196
:10461000284600F017FB0146B9F1000F4FF00100EA
:1046200006D000291CBF0120C9F8000000E00120CD
:1046300088F3118801B0BDE8F08300002DE9F04F48
:1046400085B0ADF8121060B10446006C98B14FF01F
:10465000500080F31188BFF36F8FBFF34F8F00BFFF
:10466000FEE74FF0500080F31188BFF36F8FBFF368
:104670004F8F00BFFEE700F083F960B9BDF812006C
:1046800048B14FF0500080F31188BFF36F8FBFF334
:104690004F8F00BFFEE704F1240004F110050190E4
:1046A0004FF0000802AF0DF1120A4FF000094FF071
:1046B000000B0AE02046FEF773FD00F00BFB2046DE
:1046C000FEF796FB002840F08280FFF78FF8A06B82
:1046D000F0B10138A063206810B9FEF741FEA06078
:1046E000286870B1284600F0ADFA50B14EF604507B
:1046F000CEF200004FF080510160BFF34F8FBFF347
:104700006F8FFFF797F801260020C8B972E000BF4D
:10471000BDF8120050B1BBF1000F02D13846FFF7CF
:10472000C1F94FF0010B012050B963E0B9F1000F5E
:1047300064D1FFF77FF80020002600285AD000BF80
:10474000FFF778F8FFF79EFAFFF750F894F8440067
:10475000FF2808BF84F8448094F84500FF2808BF6C
:1047600084F84580FFF766F83846514600F050F867
:1047700000289FD12046FEF73BFB28B92046FEF7D4
:104780000FFD00F0A7FAA0E7206838B9FFF72EF870
:10479000A06800F011FA8146FFF74CF8BDF812103E
:1047A0000198FFF795F92046FEF7FAFC00F092FA1F
:1047B00000287FF48AAF4EF60450CEF200004FF08E
:1047C00080510160BFF34F8FBFF36F8F7DE7B9F169
:1047D000000F0ED0FFF70AF82046FEF7B9F9A168DE
:1047E000024608461146FFF7ADF9FFF723F8002609
:1047F00000E00026304605B0BDE8F08F4FF05000D5
:1048000080F31188BFF36F8FBFF34F8FFEE7000077
:10481000B0B5E0B10D4621B30446FEF7E7FF44F61C
:10482000A850C2F20000018828884FF6FF7290421B
:1048300021D044F61053A288C2F20003D3F800C07E
:1048400091421AD323689C4517D0012423E04FF0EE
:10485000500080F31188BFF36F8FBFF34F8F00BFFD
:10486000FEE74FF0500080F31188BFF36F8FBFF366
:104870004F8F00BFFEE700240DE0891A8AB29042F4
:1048800006D9401A28802046FFF70CF9002402E0E0
:10489000002001242880FEF7CDFF2046B0BD000097
:1048A0002DE9F04383B007469000984615468946A7
:1048B000FEF7B0FC78B106465C20FEF7ABFC38B1E1
:1048C0000446066354B94FF0FF3003B0BDE8F083EF
:1048D0003046FEF7C7FF0024002CF4D0DDE90A10B3
:1048E000002284F85920CDE90010384649462A466E
:1048F00043460294FEF7A8F92046FDF7FFFF01208A
:1049000003B0BDE8F083000070B586B00B9CCCB15D
:104910000C9E06B35C250495049D5C2D25D1049D59
:10492000DDF828C0022586F8595005AD3463CDE97D
:1049300000C50296FEF788F93046FDF7DFFF0598BF
:1049400006B070BD4FF0500080F31188BFF36F8F39
:10495000BFF34F8FFEE74FF0500080F31188BFF395
:104960006F8FBFF34F8F00BFFEE74FF0500080F313
:104970001188BFF36F8FBFF34F8F00BFFEE70000BA
:1049800044F67450C2F200000068002804BF012001
:10499000704744F2F440C2F200000068B0FA80F0C0
:1049A000400940007047000010B5FEF71FFF44F6B5
:1049B000A850C2F200000488FEF73CFF204610BD5C
:1049C0002DE9F04F81B044F2F440C2F200000068DB
:1049D00040B144F61C50C2F20000018800240131AD
:1049E00001809AE044F6A850C2F20000018801312B
:1049F0008EB28E42018021D040F23830C2F20000E7
:104A00000168096849B14FF0500080F31188BFF385
:104A10006F8FBFF34F8F00BFFEE740F24032C2F20C
:104A2000000201681368036044F610501160C2F27E
:104A30000000016801310160FEF71AFB44F60C51D9
:104A4000C2F20001088840F2303B40F2483886420A
:104A5000C2F2000BC2F2000801D200244BE040F287
:104A60003837C2F2000738680024006800284FF683
:104A7000FF703FD044F2FC49C2F200091AE000BFC7
:104A8000DAF82C00D9F80010884288BFC9F8000075
:104A900000EB800008EB80002946FEF78FFEDAF875
:104AA0002C00DBF80010C96A3A68884228BF01244C
:104AB0001068A0B13868C068D0F80CA0554635F829
:104AC000040F864212D32846FEF71CFEDAF82800AF
:104AD0000028D5D00AF11800FEF714FED0E744F6FE
:104AE0000C51C2F200014FF6FF7003E044F60C5186
:104AF000C2F200010880DBF80000C06A00EB800011
:104B000058F82000012844F6B450C2F2000088BFD3
:104B100001240068002818BF0124204601B0BDE828
:104B2000F08F0000B0B580B1044640F23030C2F2E0
:104B300000000068A0420AD04FF0500080F31188B6
:104B4000BFF36F8FBFF34F8FFEE70020B0BD206D26
:104B500038B3013820654FF0000018BFB0BDE16ADE
:104B6000E26C91421CD0251D2846FEF7CBFDE06C7F
:104B7000C0F13801218344F2FC41E062C2F200013D
:104B80000A68904288BF086040F2483100EB80001C
:104B9000C2F2000101EB80002946FEF70FFE012062
:104BA000B0BD4FF0500080F31188BFF36F8FBFF39B
:104BB0004F8F00BFFEE70000F0B581B0E8B140F2D2
:104BC0003036C2F200060446C06A3168C96A8842BB
:104BD00016D2316840F24837898D626900EB800057
:104BE000C2F2000707EB80008242C1F13800208347
:104BF0000FD03068C06AE06221E0002001B0F0BD53
:104C0000E16C3068C26A0020914238BF012001B0D7
:104C1000F0BD251D2846FEF775FD306844F2FC41C5
:104C2000C06AC2F20001E0620A68904288BF086070
:104C300000EB800007EB80002946FEF7BFFD012056
:104C400001B0F0BDB0B5C068C5687DB105F118040C
:104C50002046FEF757FD44F2F440C2F2000000681F
:104C600068B144F62050C2F200001DE04FF0500041
:104C700080F31188BFF36F8FBFF34F8FFEE72C1DBA
:104C80002046FEF73FFD44F2FC41C2F20001E86A13
:104C90000A68904288BF086040F2483100EB80000B
:104CA000C2F2000101EB80002146FEF787FD40F2D1
:104CB0003031C2F20001E86A0968C96A884291BFCE
:104CC000002044F6B451C2F20001012088BF086000
:104CD000B0BD00002DE9F04F81B044F2F444C2F2BF
:104CE0000004206868B1FEF781FD2068013820606B
:104CF000206880B10024FEF79DFD204601B0BDE88C
:104D0000F08F4FF0500080F31188BFF36F8FBFF327
:104D10004F8F00BFFEE744F2EC40C2F20000006893
:104D200000285FD044F62056C2F20006306844F6F0
:104D3000B458C2F2000890B344F2FC4740F248393C
:104D400040F2303BC2F20007C2F20009C2F2000B8F
:104D50004FF0010AF068C56805F11800FEF7D2FCB3
:104D60002C1D2046FEF7CEFCE86A3968884288BFD1
:104D7000386000EB800009EB80002146FEF71EFD45
:104D8000E86ADBF80010C96A884228BFC8F800A0AA
:104D900030680028DED1002D18BFFEF769F944F60F
:104DA0001C54C2F20004258865B10126FFF708FEF5
:104DB0000028A5F1010518BFC8F800602804F5D146
:104DC00000202080D8F8000070B14EF60450CEF2DA
:104DD00000004FF080510160BFF34F8F0124BFF3FB
:104DE0006F8F88E7002486E7002484E780B586B0CB
:104DF000FDF7DAFD44F6AC50C2F20000006808B3DB
:104E00000020CDE9040005A804A903AAFEF79AFC36
:104E1000DDE903200221DDF814C0CDE9001043F2E2
:104E20008910C0F602000CA10023CDF808C0FFF7DE
:104E30006BFD44F6B051C2F20001086010B10120D0
:104E400006B080BD4FF0500080F31188BFF36F8F24
:104E5000BFF34F8FFEE700BF546D7220537663009F
:104E600010B584B0B0B144F6AC54C2F2000484462C
:104E70002068C0B105290091ADF80420CDF808C024
:104E800014DCFFF77DFD01462068022915D1069A42
:104E9000694614E04FF0500080F31188BFF36F8F24
:104EA000BFF34F8FFEE7002004B010BD69461A46DD
:104EB0000023FFF7E1F904B010BD6946002200238A
:104EC000FFF704F904B010BDF1EE100A4FF6FF71C0
:104ED000C0F2C03120EA010040F04070E1EE100A5B
:104EE00070470000000000000000010203040607F4
:104EF000080900000000010203040000884F0208B6
:104F000000000000000000000000000000000000A1
:104F10000002000019000000000000000000000076
:104F2000BB4F02080000000000000000000000006D
:104F3000A14F020800000000000000000000000077
:104F40000000000000020000180000000000000047
:104F500000000000B04F0208000000000000000048
:104F600000000000954F0208000000000000000053
:104F70000000000000000000000200001700000018
:104F80000000000000000000726561645266696400
:104F90005461736B0073656E644D73675461736B1A
:104FA00000726561645765696768745461736B006A
:104FB00073656E644D736753656D00726561645708
:104FC000656967687453656D00000000F04F020862
:104FD0000000002028000000C40102081850020848
:104FE0002800002090530000E001020800000000AB
:104FF0000024F40001000100000000000601000090
:1050000000000000FF01010010000000AAAAAAAAE7
:08501000010000000000000097
:040000050802018963
:00000001FF
