:020000040802F0
:10000000F853002029020208511B02089D1902081A
:100010004D1B020895050208E920020800000000B7
:10002000000000000000000000000000F11B0208BA
:100030009905020800000000811B02081D1C02082F
:100040004302020843020208430202084302020874
:100050004302020843020208430202084302020864
:100060004302020843020208430202084302020854
:100070004302020843020208430202084302020844
:100080004302020843020208430202084302020834
:100090004302020843020208430202084302020824
:1000A00043020208E11C020843020208430202085C
:1000B0004302020843020208430202084302020804
:1000C00043020208430202084302020843020208F4
:1000D00043020208430202084302020843020208E4
:1000E00043020208430202084302020843020208D4
:1000F00043020208430202084302020843020208C4
:1001000043020208430202084302020843020208B3
:10011000251E020843020208F11C020843020208DD
:100120004302020843020208430202084302020893
:100130004302020843020208430202084302020883
:100140004302020843020208430202084302020873
:10015000430202084302020843020208D9200208AF
:100160004302020843020208430202084302020853
:100170004302020843020208430202080000000092
:10018000430202084302020800F002F800F03CF8C3
:100190000AA090E8000C82448344AAF10107DA45E2
:1001A00001D100F031F8AFF2090EBAE80F0013F0F8
:1001B000010F18BFFB1A43F001031847C850000095
:1001C000E8500000103A24BF78C878C1FAD8520726
:1001D00024BF30C830C144BF04680C6070470000C1
:1001E0000023002400250026103A28BF78C1FBD840
:1001F000520728BF30C148BF0B6070471FB504F0DD
:1002000099FF1FBD10B510BD00F089F91146FFF729
:10021000F5FF02F0ABF900F0A7F903B4FFF7F2FF26
:1002200003BC00F0AFF900000948804709480047C7
:10023000FEE7FEE7FEE7FEE7FEE7FEE7FEE7FEE796
:10024000FEE7FEE704480549054A064B70470000F3
:10025000C51C020889010208F84D0020F85300204F
:10026000F84F0020F84F002053EA020C00F069809C
:100270002DE9F04B4FF00006002B1FBFB3FA83F5BA
:1002800003FA05F424FA05F65E4012BF1643B2FAEB
:1002900082F502FA05F4C5F120051EBF22FA05FC1D
:1002A00044EA0C04203556EA044C4FEA144418BFC3
:1002B000641C4FF000084FF00009904271EB030CF2
:1002C00039D3002919BFB1FA81F701FA07F6B0FA5C
:1002D00080F700FA07F6C7F120071EBF20FA07FCD7
:1002E00046EA0C062037B6FBF4FCA7EB0507103FE7
:1002F00007F01F0BCBF120062CFA06F60CFA0BFBCD
:1003000044BFB3460026202FA4BF5E464FF0000B2B
:100310005BEA060C08BF4FF0010B19EB0B0948EB29
:100320000608ABFB027C06FB02CC0BFB03CCC01B1C
:1003300071EB0C01C1E70B46024641464846BDE859
:10034000F08B13B5084318BF4FF0FF300146AFF3F1
:100350000080BDE81C40704753EA020C23D010B562
:100360004C1084EA530404D54042C1F1000138BF67
:10037000491E1B4204D55242C3F1000338BF5B1E25
:10038000FFF772FF14F0804F04D04042C1F100012A
:1003900038BF491E14F0004F04D05242C3F100038D
:1003A00038BF5B1E10BD13B540424FF0000070EB2C
:1003B0000104B8BF012001F0004100281CBF6FF00C
:1003C00000414FF0FF30AFF300801CBD032A40F224
:1003D000308010F0030C00F0158011F8013BBCF1E7
:1003E000020F624498BF11F801CB00F8013B38BFFF
:1003F00011F8013BA2F1040298BF00F801CB38BF0D
:1004000000F8013B11F0030300F05780083AC0F0F8
:10041000088051F8043B083A51F804CBA0E80810D2
:10042000F5E7121D5CBF51F8043B40F8043BAFF305
:100430000080D20724BF11F8013B11F801CB48BF5F
:1004400011F8012B24BF00F8013B00F801CB48BF95
:1004500000F8012B704702F0FF0343EA032242EA4F
:10046000024200F002B84FF0000200B51346944675
:100470009646203922BFA0E80C50A0E80C50B1F1FC
:100480002001BFF4F7AF090728BFA0E80C5048BF10
:100490000CC05DF804EB890028BF40F8042B08BFAE
:1004A000704748BF20F8022B11F0804F18BF00F8AA
:1004B000012B704770477047704710B5203AC0F065
:1004C0000B80B1E81850A0E81850B1E81850A0E827
:1004D0001850203ABFF4F5AF5FEA027C24BFB1E8C0
:1004E0001850A0E8185044BF18C918C0BDE8104003
:1004F0005FEA827C24BF51F8043B40F8043B08BF0C
:100500007047D20728BF31F8023B48BF11F8012BD2
:1005100028BF20F8023B48BF00F8012B7047754602
:1005200000F02CF8AE4605006946534620F007005F
:10053000854618B020B5FFF785FEBDE820404FF096
:1005400000064FF000074FF000084FF0000BAC46DC
:10055000ACE8C009ACE8C009ACE8C009ACE8C00927
:1005600021F007018D46704710B50446AFF30080B7
:100570002046BDE81040FFF750BE0000004870471D
:100580005000002001491820ABBEFEE72600020003
:1005900070470000FEE7000070470000EFF3108096
:1005A00072B600BFFEE7000070B5866D044600F02D
:1005B00045F994F83510022925D105462068216CAB
:1005C000026822F016020260426922F08002426153
:1005D00009B9A16C19B1016821F008010160016835
:1005E00021F00101016000BF20680068C0070ED043
:1005F00000F024F9401B0628F6D320206065032074
:1006000084F835000CE080206065012008E0E06D92
:100610003F2101FA00F0B060012084F8350000208D
:10062000002184F8341070BD90F83510022909D1EA
:10063000052180F835100068016821F00101016092
:1006400000207047802141650120704780B543F646
:100650001000C4F202004FF0FF310022016102617C
:10066000416142610160026041604260816082607C
:1006700000F098F9002080BD2DE9F04F83B000F123
:100680003E4202F1FF724FEAB22241F60047019268
:10069000C4F2020708224FF0010E00254FF0000AB5
:1006A0004FF00008B84208BF072200920AE000BFDE
:1006B00008F101080AF1040AB8F1100F05F102056A
:1006C00000F0A4800C680EFA08FB14EA0B09EFD0C6
:1006D0004C6804F0030CACF1010EBEF1010F11D80F
:1006E0000322876802FA05F6CA68B743AA403A436C
:1006F00082604268C4F3001722EA0B0207FA08F787
:100700003A434260BCF1030F1CD0C26803238E68D9
:1007100003FA05F7BA4306FA05F73A43BCF1020FAC
:10072000C2600FD16FF0030202EA580202440AF0DD
:100730001C060F23176A03FA06F40B69A743B3409C
:100740003B431362026803234F68AB409A4307F0B0
:100750000303AB401A4317F4403F4FF0010E026011
:10076000A6D0002243F644030292C4F202031A68A0
:1007700043F6004442F480421A601A68C4F201044D
:1007800002F480420292029A28F003024FF6084BCC
:100790002244CFF6FF7B52F80B300AF00C070F26ED
:1007A000BE4023EA060C019B009E072B38BF1E4665
:1007B00006FA07F747EA0C0342F80B30A2684B68C9
:1007C00042EA090743F60C4CDE0258BF22EA090749
:1007D000A760C4F2010CDCF800209E0242EA09077F
:1007E00058BF22EA0907CCF8007062689E0342EA0B
:1007F000090758BF22EA090767602268DB0342EA5B
:10080000090358BF22EA0903236051E703B0BDE89A
:10081000F08F00000069084018BF012070470000F9
:10082000426902EA0103914341EA03418161704751
:10083000002A08BF090481617047000044F220507B
:10084000C2F2000000687047B0B538B304460068D3
:10085000D4E901124CF6CC43036045F255530360D2
:1008600041608260FFF7EAFF2168CA68920710D0F2
:10087000054603E02168C86880070AD0FFF7DEFF5D
:10088000401B3228F6D32068C0688007F2D00320CE
:10089000B0BD4AF6AA2008600020B0BD0120B0BD5E
:1008A00001684AF6AA2200200A60704740F23F0021
:1008B00044F22051C2F20000C2F2000100780A683E
:1008C000104408607047000080B543F60040C4F251
:1008D0000200016841F400710160016841F4806127
:1008E0000160016841F480710160032000F094F818
:1008F0000F2000F005F800F057F8002080BD000040
:10090000B0B586B0002543F644010195C4F202015A
:100910000A68044642F001020A60096801A801F071
:10092000010101910199694600F0BEF900F0F4F966
:100930004DF68361C4F21B31A0FB01014FF0FF3083
:1009400000EB914140F2CC000022C2F20000C4F260
:10095000010240F2E733C0E90021C0E9025305611A
:10096000856100F025FC0546C0B940F2CC00C2F21A
:10097000000000F06FFC054680B9192000F038F83F
:100980000F2C0AD819202146002200F035F840F239
:100990004000C2F20000046000E00125284606B0D5
:1009A000B0BD00007047000080B582B0002043F663
:1009B00040010190C4F202014A6842F480424A6058
:1009C0004A6802F480420192019A0090086800226D
:1009D00040F08050086008680F2100F080500090BF
:1009E00000986FF0010000F007F802B080BD000031
:1009F00080B501F07BFB80BD70B514460D46064600
:100A000001F084FB2946224601F0A4F80146304655
:100A100001F084FB70BD000080B501F099FB80BD42
:100A200001F0A6FB2DE9F041002800F08B8043F691
:100A30000808C4F202080446D8F8F8030D4600F08E
:100A40000700884207D288F8F853D8F8F80300F076
:100A50000700A84276D12068810717D5410705D540
:100A6000D8F8001041F4E051C8F80010010705D58E
:100A7000D8F8001041F46041C8F80010D8F8001010
:100A8000A26821F0F0011143C8F80010C0073FD15F
:100A9000D8F8F80300F00700A84207D988F8F853FF
:100AA000D8F8F80300F00700A8424BD120684107AE
:100AB00007D5D8F80010E26821F4E0511143C8F8D6
:100AC0000010000708D5D8F80000216920F4604024
:100AD00040EAC100C8F8000000F030F9D8F8001072
:100AE00045F24E12C1F30311C0F60202515C40F20E
:100AF000000220FA01F140F24000C2F2000000685A
:100B0000C2F200021160FFF7FBFE0020BDE8F08199
:100B10006068811E022907D258F8081C89015CBF51
:100B20000120BDE8F08110E0012807D158F8081C29
:100B300089035CBF0120BDE8F08106E058F8081C7D
:100B4000890702D40120BDE8F081D8F8001021F017
:100B500003010843C8F80000FFF770FE064641F2A3
:100B6000883700BFD8F80000616800F00C00B0EBD7
:100B7000810F8DD0FFF762FE801BB842F2D90320AF
:100B8000BDE8F081F0B581B043F60006C4F202067C
:100B9000FFF754FE3168044641F00100306000BFA9
:100BA0003068800705D4FFF749FE001B0228F7D9FB
:100BB0003EE0306840F080003060FFF73FFE0546C1
:100BC000002041F28837B060B468FFF737FE14F0B8
:100BD0000C0F044603D0601BB842F5D928E03068FA
:100BE00020F45020306000BF3568FFF727FEA903CE
:100BF000054603D5281B6428F6D919E0306820F093
:100C0000807030603468FFF719FEA101044603D5F7
:100C1000601B0228F6D90BE0306820F0806030605D
:100C20003068000107D5FFF709FE001B0228F7D93D
:100C3000032001B0F0BD43F21000C0F2004070602C
:100C400043F20000C2F20000C6F88400F06840F2EF
:100C5000000120F4F850F060F06842F2004220F405
:100C60000050F060F068C2F2000140F41F00F06034
:100C7000F068C0F2F40240F40010F060706F20F0F1
:100C800001007067706F40F08070706740F2400044
:100C9000C2F2000000680A60FFF732FE002818BFA9
:100CA000012001B0F0BD00000F22026043F60802EF
:100CB000C4F20202136803F003034360136803F0F5
:100CC000F0038360136803F4E053C360D2F800C0FC
:100CD0004FF4E05303EADC030361D2F8F80300F0B9
:100CE000070008607047000040F20000C2F20000F8
:100CF0000068704780B5FFF7F7FF43F60801C4F2BC
:100D00000201096845F25E12C1F38221C0F60202B7
:100D1000515CC84080BD000080B5FFF7E5FF43F699
:100D20000801C4F20201096845F25E12C1F34231C2
:100D3000C0F60202515CC84080BD000010B543F609
:100D40000404C4F20204606800F00C0142F20040A6
:100D50000829C0F2F40007D0042918BF10BD41F2E1
:100D60000020C0F27A0010BD216801F03F02216826
:100D700023684902C3F3881105D4A1FB00010023B5
:100D8000FFF772FA06E041F20020C0F27A00484311
:100D9000B0FBF2F021680222C1F3014102EB4101F4
:100DA000B0FBF1F010BD00002DE9F04182B0002849
:100DB00000F0A2800446007843F60006C007C4F2A3
:100DC000020643D0B06800F00C00042805D130685A
:100DD00080033BD56068C8BB8EE0B06800F00C00B3
:100DE000082802D170684002F1D46568B5F5A02FDB
:100DF0000AD0B5F5803F0BD0306820F480303060E9
:100E0000306820F4802006E0306840F480203060B4
:100E1000306840F480303060FFF710FD002D05464B
:100E200011D000BF3068800310D4FFF707FD401BCE
:100E30006428F7D922E100BFFFF700FD401B6428BA
:100E40004FF0030055D830688003F5D42078800730
:100E50001AD5B06810F00C0F09D0B06800F00C0083
:100E6000082840F08A807068400200F1868030686F
:100E7000800702D5E06801283ED13068216920F062
:100E8000F80040EAC10030602078000738D42078AC
:100E900040074CD4A5695DB3B06800F00C00082889
:100EA00040F09E80012D27D07068E16900F4800237
:100EB0008A4221D1216A00F03F028A421CD147F6C2
:100EC000C071626A0140B1EB821F15D1A26A002392
:100ED000CFF6FF7303EBC23200F440316FF30F0221
:100EE000914209D1E16A00F07060B0EB016F03D16B
:100EF000002002B0BDE8F081012002B0BDE8F08121
:100F00006069002840F20000C4F2472057D0012158
:100F1000C0F8801EFFF792FC054600BF706F800787
:100F2000B5D4FFF78BFC401B0228F7D9A6E0306C44
:100F300010F080580AD100200190306C40F08050B1
:100F40003064306C00F080500190019847F2000747
:100F5000C4F200073868C00524D4386840F48070B3
:100F60003860FFF76BFC05463868C0051AD4FFF7F8
:100F700065FC401B0228F7D980E0E068002851D0CA
:100F80000020C4F2472001210160FFF757FC05460D
:100F9000306880073FF571AFFFF750FC401B022817
:100FA000F6D96BE0A568052D50D0012D52D0306FD9
:100FB00020F001003067306F20F004004DE0002188
:100FC000C0F8801EFFF73AFC054600BF706F80072F
:100FD0007FF55DAFFFF732FC401B0228F6D94DE0EC
:100FE0000027C4F2472700203866FFF727FC022DB0
:100FF00005460BD13068800158D5FFF71FFC401B18
:1010000002284FF00300F5D973E700BF3068800174
:101010007FF56EAFFFF712FC401B02284FF0030074
:10102000F4D966E70020C4F2472000210160FFF7F1
:1010300005FC0546306880077FF526AFFFF7FEFB0D
:10104000401B02284FF00300F4D952E7306F40F004
:1010500004003067306F40F001003067FFF7EEFBAF
:10106000002D054641F2883714D000BF306F80074D
:1010700013D4FFF7E3FB401BB842F7D9032002B0BB
:10108000BDE8F081FFF7DAFB401BB8424FF00300E8
:101090003FF62FAF306F8007F4D4B8F1000F7FF424
:1010A000F9AE306C20F080503064F3E604F11C059A
:1010B0002FCD08430021CFF6FF7140EA821001EBEB
:1010C000C3316FF30F0140EA0560084370600120EF
:1010D0003866FFF7B3FB0446306880013FF508AF80
:1010E000FFF7ACFB001B02284FF00300F4D900E728
:1010F000704700007047000010B590F83C20012AAE
:101100004FF0020252D0012380F83C3080F83D209D
:101110000268D2F804E0D2F808C00C682EF0700320
:10112000234341F2FF74C4F20004A24253600DDC79
:1011300040F2FF73C4F200039A4215DCB2F1804F13
:1011400029D040F20043C4F2000322E040F2FF3312
:10115000C4F201039A4212DC41F60003C4F2000318
:101160009A4218D0002312E040F60003C4F20003B4
:101170009A4210D040F60043C4F2000309E044F262
:101180000003C4F201039A4205D040F20043C4F2C6
:1011900001039A4204D149682CF0800319439160FD
:1011A0000121002280F83D1080F83C20104610BD3F
:1011B000002804BF0120704710B5044690F83D0098
:1011C00028B9002084F83C00204600F01FF80220D7
:1011D00084F83D002068211D00F092FD012084F874
:1011E000460084F83E0084F83F0084F8400084F80C
:1011F000410084F8420084F8430084F8440084F8F5
:10120000450084F83D00002010BD000080B582B08C
:10121000006841F20001C4F20001884201D002B02E
:1012200080BD0020019043F64000C4F20200016836
:10123000002241F0100101600068062100F010005A
:10124000019001983620FFF7D7FB3620FFF7D0FB3F
:1012500002B080BD90F83D1001291CBF01207047ED
:10126000022180F83D10006841F2FF72C168C4F2AB
:101270000002904241F00101C1600DDC40F2FF71BB
:10128000C4F20001884215DCB0F1804F29D040F251
:101290000041C4F2000122E040F2FF31C4F201013A
:1012A000884212DC41F60001C4F20001884218D0E5
:1012B000002112E040F60001C4F20001884210D083
:1012C00040F60041C4F2000109E044F20001C4F21A
:1012D0000101884205D040F20041C4F20101884278
:1012E00006D1816801F00701062904BF002070477C
:1012F000016841F001010160002070477047000063
:1013000010B5044600680169890744BFC1685FEAF7
:10131000817138D420680169490744BFC1685FEA18
:1013200041713CD420680169090744BFC1685FEA84
:10133000017141D420680169C90644BFC1685FEAF0
:10134000C16145D420680169C9071CBFC1685FEA53
:10135000C1714AD120680169090644BFC1685FEACA
:10136000016149D420680169490644BFC1685FEA48
:10137000416148D420680169890644BFC1685FEAB9
:10138000816147D410BD6FF0020101610121217715
:101390008069800745D02046FFF7B0FF47E06FF037
:1013A0000401016102212177806910F4407F41D05E
:1013B0002046FFF7A3FF43E06FF00801016104211D
:1013C0002177C06980073ED02046FFF797FF40E0B5
:1013D0006FF01001016108212177C06910F4407F8E
:1013E0003AD02046FFF78AFF3CE06FF0010101612F
:1013F000204600F03FF8ADE76FF080010161204624
:10140000FFF776FEAEE76FF040010161204600F085
:1014100045F8AFE76FF0200101612046FFF76AFE53
:1014200010BD204600F022F8204600F021F80020F0
:1014300020776FE7204600F019F8204600F018F8F2
:10144000002020776EE7204600F010F8204600F0DC
:101450000FF8002020776DE7204600F007F82046BF
:1014600000F006F8002020776CE7000070470000CD
:1014700070470000B0B541F200050446C4F2000513
:10148000006805F57041884208BFFFF70FFA206831
:10149000A84208BF00F0CCFEB0BD000070470000BD
:1014A0007047000070470000B0B582B00368044682
:1014B0001868D9685A6900F02F05202D01F0200521
:1014C00005D125B1204600F0F1FC02B0B0BD5FEAC5
:1014D000007C1EBF02F0010E01F4907212EB0E02AE
:1014E00048D1226B0840C1063BD5012A39D10020E2
:1014F0000190186801905868019001985869400659
:1015000040D4A08DE18DE28D002A1CBF401A5FEA15
:10151000004101D102B0B0BD216851E8031F22682B
:1015200021F4907142E80313002BF5D1216851E8B2
:10153000051F226821F0010142E80513002BF5D1B7
:10154000202184F83E100021216300BF216851E86A
:10155000031F226821F0100142E80313002BF5D18C
:1015600052E0010656D44006D4D5204600F092FC45
:1015700002B0B0BDC20718BF11F480724FD142074C
:1015800053D459E0A06B016849688AB2002AC1D0DF
:10159000A38D9A42BED2E185C069B0F5807F30D07C
:1015A000206850E8030F216820F4807041E80302AE
:1015B000002AF5D1206850E8050F216820F00100CD
:1015C00041E80502002AF5D1206850E8050F21689E
:1015D00020F0400041E80502002AF5D1202084F8DF
:1015E0003E000020206300BF206850E8030F216800
:1015F00020F0100041E80302002AF5D1A06BFEF7AD
:10160000D3FFA08DE18D401A81B22046FFF748FF3D
:1016100002B0B0BD204600F035FD02B0B0BD226C76
:1016200042F001022264420706D5BEF1000F03D04A
:10163000226C42F002022264820706D5BEF1000F3E
:1016400003D0226C42F004022264BCF1000F06D5E4
:101650005EEA050203D0226C42F008022264226C8A
:10166000002A3FF457AF0840800602D5204600F01C
:101670001DFC20684069216C00F0400001F0080169
:10168000401827D0204600F0DDFB20684069400666
:101690001BD500BF206850E8050F216820F04000EE
:1016A00041E80502002AF5D1A06B70B141F6356121
:1016B000C0F602010165FEF7B7FF00283FF42AAF2C
:1016C000A06B016D884702B0B0BD2046FFF7EAFE6F
:1016D00002B0B0BD2046FFF7E5FE0020206402B056
:1016E000B0BD0000002804BF0120704710B50446BB
:1016F00090F83D0028B9002084F83C00204600F016
:1017000021F8242084F83D002068C16821F40051AC
:10171000C160204600F02CFC2068016921F4904152
:101720000161416921F02A014161C16841F4005120
:10173000C16000202021206484F83D1084F83E1010
:1017400010BD000010B586B0006841F20042C4F23E
:10175000010200219042CDE90411CDE9021101916D
:1017600025D044F60041C4F20001884252D1002045
:1017700043F630010090C4F202010A69342442F4B5
:1017800000220A610A6902F400220092009A009085
:10179000086840F001000860086800F0010000904F
:1017A0000098032001900020C4F202001FE043F6DD
:1017B00030000091C4F202004269472442F0200246
:1017C0004261426902F020020092009A0091016891
:1017D00041F004010160006800F0040000900098EE
:1017E000C02001900020C4F2020000F50060022138
:1017F000029100210391032104910821059101A97F
:10180000FEF73AFF204605210022FFF7F5F82046B3
:10181000FFF7EEF806B010BD10B590F83E30202B63
:101820000BD100294FF0010418BF002A01D1204636
:1018300010BD90F83C30012B01D1022010BD0123D6
:10184000002480F83C30046300F000FC204610BD0A
:10185000B0B50446006844F60045C4F20005A8424D
:1018600020D140F2B600C2F20000027840F2E470EB
:10187000C2F2000001788A4214D1012905D14078D2
:10188000012802D1FFF7CCF80CE040F2D470C2F28C
:10189000000040F2BF010068C2F2000101220A709C
:1018A00000F0E2FF206805F54841884200D0B0BD55
:1018B00040F2EC74C2F200042078022811D0012812
:1018C00018BFB0BD40F2E411C2F2000111F8012BC3
:1018D00040F2A010C2F20000FFF79EFF022020702D
:1018E000B0BD40F2D470C2F2000040F2ED71006869
:1018F000C2F2000101220A7000F0B6FFB0BD000084
:10190000034690F83D0020280AD100294FF001003D
:1019100018BF002A00D1704793F83C00012801D17C
:10192000022070471962002021219A84DA84186409
:1019300083F83D10196883F83C00CA6842F08002C1
:10194000CA607047B0B50446006844F60045C4F26A
:101950000005A8420AD140F25C1040F2E471C2F2E4
:101960000000C2F200010822FFF756FF206805F5CB
:101970004841884218BFB0BD40F2A01040F2E411C7
:10198000C2F20000C2F2000101220124FFF744FF6D
:1019900040F2EC70C2F200000470B0BDFEE700003F
:1019A0002DE9F04387B0002743F630000697CDE9D4
:1019B0000477CDE902770197C4F20200016840F292
:1019C000000941F0800101600168C4F2020901F0E0
:1019D0008001019101990197016809F5406541F085
:1019E000010101600168002201F0010101910199EA
:1019F0000197016843F2500641F008010160016857
:101A000001F00801019101990197016841F0040179
:101A10000160006843F2500100F004000190019859
:101A20002846FEF705FF48464FF4807100224FF428
:101A30008078FEF7FDFE029602AE0124284631466C
:101A4000CDE903470597FEF717FE48463146CDE935
:101A50000284CDE90477FEF70FFE07B0BDE8F083FE
:101A600080B540F2C00043F20001C2F20000C4F2AF
:101A70000001062240F6FF7380E80E00FEF7E4FE48
:101A8000002808BF80BDFEF789FD000010B582B0B8
:101A900040F2141041F200010024C2F20000C4F22E
:101AA000000140F2E733CDE9004441F63F7280E89F
:101AB0001600C3608461FFF77BFB68B92020CDE985
:101AC000000440F21410C2F200006946FFF714FB54
:101AD000002804BF02B010BDFEF760FD80B540F2E3
:101AE0005C1044F60041C2F20000C4F20001002381
:101AF0004FF00C0C4FF4E13280E80E00C0E90333E4
:101B0000C0E905C3C361FFF7EDFD002808BF80BD34
:101B1000FEF744FD80B540F2A01041F20041C2F250
:101B20000000C4F2010100234FF00C0C4FF461429D
:101B300080E80E00C0E90333C0E905C3C361FFF7C5
:101B4000D1FD002808BF80BDFEF728FDFEE700009C
:101B5000FEE7000000F0070080F00703042B28BF19
:101B600004234FF0FF3C03380CFA03F338BF002086
:101B7000994381400CFA00F022EA000008437047C4
:101B8000EFF30980BFF36F8F154B1A681EF0100F2B
:101B900008BF20ED108A20E9F04F10602DE9090000
:101BA0004FF0500080F31188BFF34F8FBFF36F8F5A
:101BB00002F0A6F94FF0000080F31188BDE809009B
:101BC00019680868B0E8F04F1EF0100F08BFB0ECBD
:101BD000108A80F30988BFF36F8F704700BF00BF82
:101BE000580300200000000000000000000000007A
:101BF000074B19680868B0E8F04F80F30988BFF315
:101C00006F8F4FF0000080F31188704700BF00BF56
:101C10005803002080B500F093FA80BD80B54EF2E5
:101C20001000CEF20000006802F0E0FF012818BFAB
:101C300002F070FA80BD000070B592B006AC20468C
:101C40003021FEF710FC002543F640000595CDE954
:101C50000355CDE901550095C4F202000168012643
:101C600041F080510160006800F0805000900098C1
:101C700047F200000095C4F20000016841F4804181
:101C80000160006800F480400090009809200690F0
:101C90004FF4803007902046CDE90B65FFF784F8BC
:101CA00068B90F20CDE9010601A80021CDE903554F
:101CB0000595FEF7B7FE002804BF12B070BDFEF711
:101CC0006DFC00004EF68850CEF20000016841F431
:101CD000700101604FF0006140F8801C7047000007
:101CE00080B540F2CC00C2F20000FFF709FB80BDD6
:101CF00080B540F21410C2F20000FFF701FB80BD76
:101D000010B540F6FF3E0368C4F2000E40F2004CEE
:101D10007045C4F2010C0FDCB0F1804F19D040F2D5
:101D20000042C4F20002904213D040F60002C4F216
:101D3000000290420DD010E040F60042C4F20002D2
:101D4000904206D0604504D00022C4F201029042C5
:101D500003D14A6823F07003134341F6FF72C4F2C3
:101D6000000290420DDC70451FDCB0F1804F41D085
:101D700040F20042C4F2000290423BD040F6000222
:101D800021E043F6FF72C4F20102904220DC42F2ED
:101D90000002C4F2000290422CD00022C4F20102E0
:101DA000904227D0604525D028E040F60042C4F29A
:101DB000000290421ED041F60002C4F2000290429E
:101DC00018D041F60042C4F20002904212D015E051
:101DD00044F20002C4F2010290420BD044F6000229
:101DE000C4F20102904205D044F20042C4F2010262
:101DF000904203D1CA6823F44073134323F0800256
:101E00004B69D1F800E08C681A430260C46240F468
:101E10008062C0F828E0624504BF096901630121BE
:101E2000416110BD80B540F25C10C2F20000FFF7C6
:101E30003BFB80BD80B5806B0021C185C184FFF76D
:101E400031FB80BD016851E8031F026821F49071E5
:101E500042E80313002BF5D1016851E8051F026821
:101E600021F0010142E80513002BF5D1016B012996
:101E70000AD100BF016851E8031F026821F0100178
:101E800042E80313002BF5D1202180F83E100021F9
:101E90000163704780B50168CA6822F04002CA60D9
:101EA000202180F83D10FFF74DFD80BD80B582B048
:101EB00090F83E1022291ED18268B2F5805F02D1CF
:101EC0000169002948D0816AB2F5805F07D00AB95C
:101ED000026922B10268526802F07F0201E00268E2
:101EE00052680A700121826A11448162C18D0139F0
:101EF0000A04C18501D002B080BD0168CA6822F021
:101F00002002CA60CA6822F48072CA604A6922F05C
:101F100001024A61202180F83E10016B012923D182
:101F200000210163016851E8031F026821F01001DC
:101F300042E80313002BF5D101680A68D20606D5E2
:101F4000002201920A680192496801910199818DEC
:101F5000FFF7A6FA02B080BD0168826A49686FF394
:101F60005F2111800221BEE7FFF772FC02B080BD45
:101F700010B504460068D4E902C22369016921F45E
:101F8000405111430161626943EA0C01E369114365
:101F9000C268194349F20C639A431143C160416915
:101FA000A26921F4407141F20043114340F4806280
:101FB000C4F201039A42416102D1FEF7ADFE01E095
:101FC000FEF798FEE16963681922B1F5004FA0FBA6
:101FD00002011CD15A00DB0FFEF746F948F21F51EF
:101FE000C5F2EB11A0FB01235A096FF0630302FB5A
:101FF0000300322303EBC000A0FB01014FF4F87093
:1020000000EA111000EB0210C1F342111AE09A002D
:102010009B0FFEF729F948F21F51C5F2EB11A0FB07
:1020200001235A096FF0630302FB0300322303EB21
:102030000010A0FB0101F02000EA511000EB02109B
:10204000C1F3431122680843906010BD816282850C
:10205000C28500212222016480F83E20026980F8B6
:102060003C1022B10168CA6842F48072CA600168FB
:10207000486940F001004861C86840F02002002033
:10208000CA60704790F83D10212923D18168B1F5CD
:10209000805F01D1016931B1016A02684B1C0362A2
:1020A0000978516007E0016A036831F8022B6FF389
:1020B0005F225A600162C18C01390A04C18418BFD1
:1020C00070470068C16821F08001C160C16841F0BB
:1020D0004001C1607047000080B540F2A010C2F21C
:1020E0000000FFF7E1F980BDFEE70000002848BFCF
:1020F000704700F01F01012202FA01F14EF20012B6
:102100004009CEF2000242F8201070474EF60C5003
:10211000CEF200000068C0F3022070474EF6145360
:1021200000F00F02CEF2000309011A4400F16043EF
:10213000B0F1FF3FC8BF03F5644211707047000063
:102140004EF61F50CEF200000021017070470000D3
:102150004EF60C51CEF200010A684FF6FF031A400A
:1021600060F30A2242F0806040F0FD700860704722
:102170004EF60C50BFF34F8FCEF2000001680422E0
:1021800001F4E061C0F2FA5211430160BFF34F8FD6
:1021900000BFFDE7B0B505780446681EC1B2204611
:1021A00001F0CAFB291931F8011C081A18BF4FF0B9
:1021B000FF30B0BD10B540F22601C2F20001082286
:1021C000044600F0ABF900281CBF2A2010BD40F2E5
:1021D0002E01C2F200012046082200F09FF90028DB
:1021E0001CBF342010BD40F23601C2F2000120466F
:1021F000082200F093F900281CBF352010BD40F2E2
:102200001401C2F200012046082200F087F90028DC
:102210001CBF3F2010BD40F21C01C2F2000120464D
:10222000012200F07BF9002818BF3E2010BD0000FD
:1022300080B540F2EE70C2F20000018801310180E9
:1022400040F61411C2F200010A6801320A600188E6
:102250004EF6EF62CEF6EE62514344F244424FEA4C
:10226000B101C0F24442914240F2B501C2F2000114
:102270009CBF01220A700288B2F5617F40F61212FB
:10228000C2F2000203D900230380012010700878F5
:102290001178084308BF80BD40F6EC00C2F2000090
:1022A000006800F0E1FA80BD01384FF0FF3200BF56
:1022B00010F801CF8B180132052A83F801C0F7D13D
:1022C0007047000080ED040A704700006FF00300C3
:1022D00000BF00BF00BF013000BFF9D3704700004E
:1022E0002DE9F04F85B0DDF838801D4616460F46C3
:1022F000044600F03BF84FF000092681CDF810901D
:10230000CDF8089000966E464FF0010A4FF0020B90
:1023100038463146C4E90075A4F80A80CDF804A017
:10232000CDF80CB0FEF7A8F9284631468DE8000F2D
:10233000FEF7A2F9206821890122FEF779FA0A2026
:1023400000F0BAF9206821890022FEF771FA0A200C
:1023500000F0B2F9204600F041F8204600F03EF8C7
:10236000204600F037F805B0BDE8F08F10B5044600
:10237000007D28B1012000F09FF9207D0028F9D1CF
:102380000120207510BD00002DE9F0410D4680466A
:10239000FFF7ECFF7DB1002400260027404600F047
:1023A0001DF8361847EBE077052000F085F9013479
:1023B000AC42F3D301E000260027304639462A46D6
:1023C0000023FDF7C9FFC8F80C00404600F002F8F2
:1023D000BDE8F081002101757047000070B504462A
:1023E000FEF72CFA054600BF60686189FEF712FA15
:1023F000012809D1012000F05FF9FEF71FFA401B08
:102400009628F1D9002070BD00260025206821897A
:102410000122FEF70DFAFFF759FF206821890022FB
:10242000FEF706FAFFF752FF606861896D00FEF75C
:10243000F1F9012808BF0135172E06F10106E5D391
:1024400020682189012285F40005FEF7F1F9FFF7E4
:102450003DFF206821890022FEF7EAF9FFF736FFE9
:10246000284670BD2DE9F0412DED028B0D468046CA
:10247000FFF77CFF0026002765B100244046FFF7E8
:10248000ADFF361847EBE077052000F015F9013471
:10249000AC42F3D3304639462A460023FDF75CFFB1
:1024A000D8F80C1098ED041A401A00EE100AB8EE95
:1024B000C00A404680EE018AFFF78CFFB0EE480A62
:1024C000BDEC028BBDE8F08110B582B040F218245B
:1024D00040F60041C2F20004C4F202014FF0100CB9
:1024E000204640220B46CDF800C0FFF7F9FEB7EEBC
:1024F000000A2046FFF7E6FE642000F0DDF82046E3
:102500000A21FFF741FF02B010BD000080B540F284
:102510001410C2F20000FEF79DFE80BD80B56AB1C6
:102520004FF0000E90F800C00B789C4508D10EF1DA
:10253000010E0131964500F10100F3D3012080BD69
:10254000002080BD002200BF90F800C00B789C45A1
:102550001CBF00207047042A00F1010002F10102B3
:1025600001F1010184BF01207047EDE74EF60850EC
:102570000021CEF20000C0F60201016043F63000F7
:10258000C4F20200016821F001010160016821F03C
:1025900002010160016821F004010160016821F07D
:1025A00008010160FEF7EEFAFEF750F862B6FEF79A
:1025B0008BF9FFF741FBFFF7F3F9FFF751FAFFF74C
:1025C0008DFAFFF763FAFFF7A5FA42F20800CEF2A0
:1025D0000400016841F480510160FFF797FF00F0AB
:1025E0007DF845F2F412C0F602020120012100F04C
:1025F000D9F840F6EC01C2F2000145F2C0120860C1
:10260000C0F602020120012100F0CCF840F2DC719A
:10261000C2F2000145F28C120860C0F602020120ED
:10262000012100F0BFF840F2D471C2F2000108604D
:1026300043F6510045F20422C0F60200C0F6020241
:10264000002100F041F940F6F001C2F200010860FB
:1026500043F23D7045F2D012C0F60200C0F602020D
:10266000002100F031F940F2E071C2F2000108608F
:1026700043F2296045F26812C0F60200C0F6020279
:10268000002100F021F940F2D071C2F2000108608F
:1026900043F2E96045F29C12C0F60200C0F6020265
:1026A000002100F011F940F2D871C2F20001086077
:1026B00000F028F8FEE70000EFF3058100291CBFB9
:1026C0006FF005007047002804BF0020704780B5F8
:1026D00080B201F0F3FA002080BD0000EFF3058026
:1026E00000281CBF6FF00500704740F2B000C2F236
:1026F00000000168002911BF4FF0FF300121016087
:102700000020704710B5EFF3058000281CBF6FF064
:10271000050010BD40F2B004C2F200042068012898
:102720001CBF4FF0FF3010BDFFF774FA022020608D
:1027300001F08CFB002010BD10B582B020B10C461A
:10274000EFF3058121B184B16FF0030002B010BD39
:10275000A1B202F0A9F801281CD06FF00100002CF2
:1027600008BF6FF0020002B010BD0021019101AA64
:10277000002102F043F801280FD1019850B14EF624
:102780000450CEF200004FF080510160BFF34F8F34
:10279000BFF36F8F002002B010BD6FF0020002B0D7
:1027A00010BD000070B582B00D4685424FF00006A6
:1027B000EFF3058155D8002853D0002951D1144694
:1027C0009AB1A36863B1E66800224F2E4FF0000172
:1027D00088BF0122502E38BF01214F2E07D833B9B0
:1027E000E168002918BF012100E00021002209B1A1
:1027F000002636E0012809D172B1A3680326012022
:1028000000210022009601F00BFD0AE0DAB1A26877
:10281000294601F0B9FC19E001200021032201F052
:10282000DBFC0646002D18BF002E10D030460021DC
:102830000022002301F080FD012808D0304601F07D
:10284000EDF9002603E0294601F07CFC06463EB186
:10285000002C14BF21680021304601F0CBF900E0C4
:102860000026304602B070BD80B582B0C8B1EFF32B
:102870000581D1B10021019101A901F09BFE012840
:102880001ED1019850B14EF60450CEF200004FF028
:1028900080510160BFF34F8FBFF36F8F002002B0F4
:1028A00080BD6FF0030002B080BD00210022002334
:1028B00001F042FD013818BF6FF0020002B080BD88
:1028C0006FF0020002B080BD70B584B08E4600216A
:1028D00000280391EFF3058146D0002944D1FAB1D5
:1028E0009369002B08BF1823382B16D81179C90714
:1028F00013D15569946811684FEA950C002D08BFF3
:102900004FF0800CFCB1D6685C2E1BD3D5B1156995
:10291000C5B10024012555B91BE0002004B070BDED
:102920000124002118234FF0800C00258DB19468FC
:1029300012690294CDE900326246734602F01AF938
:10294000039011E00CB9D4689CB100250024002D3F
:10295000EDD14CB103AC00931FFA8CF27346019495
:1029600002F0D4F8012802D1039804B070BD002011
:10297000E6E71469B4FA84F46409D6E710B540F2C6
:10298000F07CC2F2000C05218CF8001040F2B80176
:10299000C2F200010A688988CCF80120ACF8051061
:1029A00040F61411C2F200010A6844F6F43E120E19
:1029B0008CF807200A6844F6F033120C8CF80820D3
:1029C0000A68C2F2000E120A8CF809200968C2F2E5
:1029D00000038CF80A1000210EEB010090ED000AB4
:1029E0000CEB010283ED000A10EE100A1C68000EC9
:1029F000D072200C04311073200AF02950739473A4
:102A0000EAD110BDF0B581B00C4644F6E45140F275
:102A10005836C2F20001C2F200060F88316805463E
:102A2000081D00F0A5FF4FF6FF7085420AD14CB19A
:102A30003068011D44F6BC50C2F2000000F0F4FF03
:102A400001B0F0BD7C19A5B23068A54284800AD0DF
:102A500040F26830C2F2000000683168043100F0D2
:102A6000C5FF01B0F0BD40F26030C2F20000006866
:102A70003168043100F0BAFF44F64850C2F2000059
:102A800001888D4238BF048001B0F0BD70B50446A6
:102A900000F0E2FF44F22450C2F20000016840F26C
:102AA000583501310160C2F20005296844F6B0567C
:102AB000C2F2000641B1306860B92868E16AC06AB4
:102AC000884298BF2C6005E02C600068012801D185
:102AD00000F0CEF944F23050C2F20000016801313A
:102AE0000160616444F23451C2F20001E06A0A6894
:102AF000904288BF086040F2703100EB8000C2F263
:102B0000000101EB8000211D00F08EFF00F0C8FFE6
:102B1000306880B12868E16AC06A884228BF70BD09
:102B20004EF60450CEF200004FF080510160BFF32A
:102B30004F8FBFF36F8F70BD70B582B000F08CFF08
:102B400044F6E856C2F20006306850BB44F6E8444A
:102B5000C2F20004204600F039FF44F6FC45C2F200
:102B60000005284600F032FF40F25C30C2F200005F
:102B7000046040F26C30C2F2000040F2622240F287
:102B8000043305600025C2F20002C2F200030A20ED
:102B90001021009501F044FB306010B103A101F059
:102BA00029F800F07DFF02B070BD00BF546D725176
:102BB00000000000F0B581B044F22855C2F20005D3
:102BC0002868E0B144F6D05644F22457C2F2000619
:102BD000C2F2000700F040FFF068C468201D00F05A
:102BE000C7FE38680138386028680138286000F06E
:102BF00057FF204600F058F828680028EAD101B0B5
:102C0000F0BD000080B5026C002A08BF80BDD0E98D
:102C100002C31344C360634524BF0368C360C36831
:102C200008461946FDF7D2FB80BD000070B5866BE3
:102C3000036C0446E3B115461AB3E0681A46FDF783
:102C4000C5FBE168206C2268091A9142E16003D259
:102C5000A16840420844E060A81EB0FA80F0400934
:102C60003146002E18BF01210840361A002516E013
:102C70002068002598B9A06802F08AF8A56005468A
:102C80000DE060681A46FDF7A1FB216CD4E9010252
:102C9000002508446060904224BF20686060711C79
:102CA0002846A16370BD000010B5044690F8590095
:102CB000022808BF10BD012803D030B9206B00F0F6
:102CC00007FF204600F004FF10BD4FF0500080F3D6
:102CD0001188BFF36F8FBFF34F8F00BFFEE7000077
:102CE000416A00290FBF0020006B0088C0F1380046
:102CF0007047000040F25C31C2F2000109680A68C6
:102D0000B2FA82F35B090360002A0EBF0020C86894
:102D10000088704740F61810C2F20000C21D22F071
:102D2000070210F0070CA0EB020318BF104644F690
:102D3000B452C2F200020021C2E900014FF4705205
:102D4000BCF1000F18BF03F570520244083A40F27C
:102D5000643322F00702C2F200031A60C2E90011D4
:102D6000111A1A68C0E9002144F64450C2F200006A
:102D7000016044F63C50C2F20000016044F610507D
:102D8000C2F20000012101707047000040F270346F
:102D90004EF60455C2F20004CEF200054FF0805604
:102DA000FFF708FF20680228FAD32E60BFF34F8F89
:102DB000BFF36F8FF4E70000B0B5049D002914BF86
:102DC0002A602D60C5E90F01284601211C4601F04B
:102DD00073FA85F84C40B0BD2DE9F0470A9C824655
:102DE000206B16460F46DDE908599100A52298464A
:102DF000FDF731FB206B00EB8600A0F1040020F012
:102E000007067FB104F13400002100BF7A5C425410
:102E10007A5C1AB10F2901F10101F7D3002084F87F
:102E2000430002E0002084F834000027201D372DE5
:102E300028BF3725E562C4E9135700F0D3FD04F13C
:102E4000180000F0CFFDC5F1380020833046514610
:102E5000424624616462676584F8587000F054FB50
:102E6000B9F1000F206018BFC9F80040BDE8F08735
:102E7000B0B540F270350024C2F20005281900F008
:102E8000A5FD1434B4F58C6FF8D144F61454C2F295
:102E90000004204600F09AFD44F62855C2F20005D1
:102EA000284600F093FD44F65C50C2F2000000F0AA
:102EB0008DFD44F6D050C2F2000000F087FD44F6CC
:102EC000BC50C2F2000000F081FD40F26030C2F25E
:102ED0000000046040F26830C2F200000560B0BD3E
:102EE00080B544F6B452C2F2000200BF1146126827
:102EF0008242FBD3D1F804C001EB0C03834203D11F
:102F00004068604448600846D0F804C000EB0C03F9
:102F1000934201D013460BE040F26433C2F2000347
:102F20001B689A4204D0D2E9003E0EEB0C024260CC
:102F30008142036018BF086080BD000080B58C46E8
:102F4000014621F804CF9445006108D99A4201D284
:102F50009C4512D240F25C30C2F2000008E0D21A66
:102F6000008B92B2824208D240F26C30C2F2000072
:102F7000006800F03BFD002080BD012080BD000006
:102F800010B5044600F068FDA06BB0FA80F044096B
:102F900000F086FD204610BD10B5044600F05CFD33
:102FA000A06BE16B401AB0FA80F0440900F078FDA4
:102FB000204610BD08480068006880F308884FF07C
:102FC000000080F3148862B661B6BFF34F8FBFF381
:102FD0006F8F00DF00BF00BF08ED00E070B582B06A
:102FE00040F25C32C2F2000212680546D2680E4618
:102FF000D468201D00F0BCFC94F82800410704D4DC
:1030000000F0FE0084F8280011E0208B32462844AE
:1030100081B220462B46FFF791FF40B100262046A3
:1030200000212A460023009602F050F820B1216AC0
:103030002046884702B070BD4FF0500080F31188E1
:10304000BFF36F8FBFF34F8FFEE700002DE9F04114
:1030500086B044F6E857C2F20007386802A9002299
:103060004FF0000801F006FB002800F0708001AC72
:1030700002AD0AE000F0FE0086F828003868294614
:10308000002201F0F7FA002861D00298B0F1FF3F6A
:1030900003DCDDE903200599904702980028EDD470
:1030A000049E706910B1301D00F062FC204600F0F3
:1030B000BBF802990929E1D80246DFE801F00808C7
:1030C00008052E3F0808052E96F82800D2E796F846
:1030D0002800BDF80C30318B40F0010086F8280044
:1030E000C81881B23046FFF729FF0028C6D0316AE0
:1030F0003046884796F828004007BFD5BDF80C0039
:10310000318B0023084482B230460021CDF8008084
:1031100001F0DCFF0028B1D125E096F8280040F04E
:103120000101BDF80C0086F82810308390B11044DE
:1031300081B230461346FFF701FF9FE796F828005B
:1031400081073FF597AF304600F0C2FC96E706B026
:10315000BDE8F0814FF0500080F31188BFF36F8F0E
:10316000BFF34F8FFEE74FF0500080F31188BFF39D
:103170006F8FBFF34F8F00BFFEE7000070B582B0C6
:103180000E46044600F0B4FE01A800F04DF8019987
:1031900019B101F0D5FE02B070BD05464EB9A54289
:1031A00007D301F0CDFE20462946FFF717FF02B0F6
:1031B00070BD4EB140F26C30C2F200000068006891
:1031C000B0FA80F0420900E0002244F6E850C2F272
:1031D00000000068611B89B200F04EFD01F0B0FEF6
:1031E0000028D8D14EF60450CEF200004FF08051A6
:1031F0000160BFF34F8FBFF36F8F02B070BD00004F
:1032000040F26030C2F200000168096821B1006834
:10321000C068C068808801E04FF6FF7044F64851EE
:10322000C2F200010880704770B5044601F0F2FC5C
:1032300040F25436C2F2000631880546884203D275
:1032400000F008F8012000E00020206028463580CA
:1032500070BD00002DE9F04182B040F25C37C2F24F
:1032600000073868016891B34FF0000809E000BF1B
:10327000A08038682946246100F0B8FB38680168EE
:1032800029B3C068C4680688251D284600F070FB75
:10329000216A2046884794F828004007EED5208B05
:1032A000304481B2B142E3D82046002132460023A7
:1032B000CDF8008001F00AFF0028DFD14FF0500068
:1032C00080F31188BFF36F8FBFF34F8FFEE740F29B
:1032D0006C31C2F200010A6808603A6002B0BDE8D1
:1032E000F081000081B00020009040F24400C2F262
:1032F000000000684FF0500181F31188BFF36F8F19
:10330000BFF34F8F013001D0FEE700BF00980028C7
:10331000FCD001B07047000082B001AC2046FFF73E
:10332000E9FC0199FFF72AFFFFF790FEF6E700009E
:10333000F0B581B0044600F08FFB94F94560012E92
:103340000FDB04F1240500BF286850B1284601F0C6
:10335000AFFD002818BF00F0E9FC70B2013E012863
:10336000F2DCFF2684F8456000F09AFB00F074FB65
:1033700094F94470012F0EDB04F11005286850B158
:10338000284601F095FD002818BF00F0CFFC78B268
:10339000013F0128F2DC84F8446000F081FB01B0B9
:1033A000F0BD00002DE9F04381B0044600F0A0FD1F
:1033B00040F26436C2F200063068002808BFFFF70A
:1033C000A9FC44F61058C2F2000898F80000002842
:1033D00018BF4FF0004020420DD0002401F0B0FD96
:1033E00060071ED04FF0500080F31188BFF36F8F3D
:1033F000BFF34F8FFEE7C4B114F0070004F10801DA
:103400001EBF081A00F108015FEA41700ED04FF0AC
:10341000500080F31188BFF36F8FBFF34F8F00BF51
:10342000FEE7204601B0BDE8F083002144F63C5998
:10343000C2F20009D9F800004A1E8242CDD244F6F9
:10344000B450C2F2000005682F4657F8042F8A4294
:1034500011D22B685BB100BF1F4657F8042F2846D6
:103460001D468A4207D22B68002BF5D103E044F6B3
:10347000B450C2F2000033689D42AED004682B689D
:10348000521A112A036010D36818430709D04FF06D
:10349000500080F31188BFF36F8FBFF34F8F00BFD1
:1034A000FEE742603960FFF71BFD44F6445039687F
:1034B000D9F80020C2F200000368511A9942C9F8F5
:1034C000001038BF016098F80000396800284FF0FC
:1034D000000018BF41F00041286044F65050C2F28D
:1034E0000000026808343960511C016076E7000072
:1034F00040F25830C2F20000016819B101680A6D4B
:1035000001320A6500687047034643F2E520C0F6C1
:1035100002004FF0807C21F0010103E903106FF0FD
:10352000020043F8240CA3F1440043F8202C704718
:103530002DE9F04182B0427940F6F40CC2F2000C61
:1035400042B3ACF1010400F10A0E4FF000086946E5
:10355000DEF80350DEF80060CDF8035000964FF01F
:10356000FF3526464F19BB787F781B063F0147EA97
:1035700013730135052D06F8013FF3D1013A08F127
:103580000108130604F10604E2D14FF0FF3151FAAD
:1035900088F101E04FF0FF31407988B101EB410043
:1035A0000CEB400440F2B801C2F200012046FEF7E5
:1035B000C9FF40F2B401C2F200010978084302D009
:1035C00002B0BDE8F08140F2B801C2F2000120462D
:1035D000FEF76AFE40F2DC70C2F200000068FFF7FE
:1035E00043F902B0BDE8F08180B5FEF7E3FD2A287B
:1035F00012D1FFF7C3F940F25C1040F2F071C2F251
:103600000000C2F20001FB22FEF77AF940F2B60098
:10361000C2F200000521017040F2B400C2F20000C5
:103620000021017080BD000000F0D8F840F21D04B8
:10363000C2F20004207878B1002501E0207858B16A
:103640004FF47A70FFF738F80135E8B2FF28F5D16A
:1036500000F0DAF80025F1E740F2302440F2C0052E
:1036600040F60046C2F20004C2F20005C4F20206AF
:103670004FF47A70FFF720F82046012100F0DAF8C5
:103680002846FDF70DF930464FF48051FDF7C8F894
:10369000EEE7000010B50446FEF77CFD00B110BD5A
:1036A00040F2B700C2F200000178A0788142F6D162
:1036B00001280ED02128F2D1607840F2BE01C2F27A
:1036C0000001087040F21D00C2F2000000210170EC
:1036D00010BDE0780128E2D16079002808BF10BD54
:1036E0002046FFF725FF10BD40F2D47640F2BF0719
:1036F00040F2ED7440F2E41840F2E479C2F20006C0
:10370000C2F20007C2F20004C2F200080025C2F2B1
:10371000000900BF30684FF6FF71FFF70DF83878E9
:1037200018B14846FFF760FF3D7020780028F1D0BF
:103730004046FFF7AFFF2570ECE70000FEF7C4FE40
:1037400040F2DC7A40F23E0644F6E54740F21824A7
:1037500044F6F43540F6EC08C2F2000AC2F2000664
:103760004FF00109C2F200074FF0000BC2F2000453
:10377000C2F20005C2F2000802E000BF86F800B005
:10378000DAF800004FF6FF71FEF7D6FF3078002818
:10379000F4D140F2B400C2F2000080F8009087F843
:1037A00000B000BF1420FEF787FF20460A21FEF775
:1037B00059FE387805EB8001013081ED000AC1B275
:1037C0003C293870EED3D8F8000044F6E441C2F248
:1037D000000181F80090FFF747F8D1E780B500209D
:1037E000C4F202004FF480710122FDF721F84FF47A
:1037F000FA60FEF761FF40F23020C2F200002121A2
:1038000000F018F880BD000010B50020C4F20200DE
:103810004FF4807100220024FDF70AF84FF47A700B
:10382000FEF74AFF40F2EC70C2F200000470FFF7AE
:10383000D5FF10BD10B5044600F0B0FB207821463E
:10384000421C40F2A010C2F20000FEF759F810BD71
:1038500040F6EC0544F6E44640F2B50A40F2B608FC
:1038600040F25C1440F2040940F21E07C2F2000567
:10387000C2F20006C2F2000AC2F20008C2F200045C
:10388000C2F20009C2F200074FF0040B0AE000BFC9
:10389000204639460822FEF733F888F800B00120A8
:1038A000FEF70AFF28684FF6FF71FEF745FF3078F4
:1038B0000028EDD19AF80000A0B140F24800C2F211
:1038C00000000088494600BA000CA9F80100204613
:1038D0000822FEF715F8012088F8000000208AF879
:1038E0000000DCE740F61210C2F200000078002869
:1038F000D5D0062088F8000040F61210C2F2000071
:103900000021017040F20C012046C2F200010822A1
:10391000FDF7F6FFC3E70000B0B505780446681E62
:10392000C1B2204600F008F8291901F8010C2178ED
:10393000000A6054B0BD0000B0B54FF6FF72A9B1E7
:103940004FF0000C48F2084E10F80C305A4000239B
:103950008EEA5204D50708BF54082246072B03F10C
:103960000103F5D30CF1010C8C45EDD190B2B0BD43
:10397000D0E9013201699A60D1F804C082688445B7
:10398000536008BF4A60002202610868013808607D
:103990000868704744F23873C2F20003036044F2CF
:1039A0003850C2F2000008608020106070470000AC
:1039B00044F69433C2F20003036044F29470C2F2FE
:1039C000000008604FF48070106070474FF6FF7180
:1039D000024622F8081F00214260C0E9032201606C
:1039E00070470000002101617047000080B5B1F808
:1039F00000C04FF6FF72944502D1D0F810E006E007
:103A000000F108039E465B681A886245FAD9DEF821
:103A1000042008614A609160C1F808E0CEF8041003
:103A200001680131016080BDD0F800C043680861C1
:103A30009A684B608A609A68996051600CF1010144
:103A400001607047DFF80C00016841F4700101600B
:103A5000704700BF88ED00E04FF0500080F3118800
:103A6000BFF36F8FBFF34F8F40F24400C2F20000EC
:103A700001684A1C026001B170474EF60450CEF254
:103A800000000068000608BF70474FF0500080F348
:103A90001188BFF36F8FBFF34F8F00BFFEE70000A9
:103AA00040F24400C2F20000016839B101390160FE
:103AB00018BF7047002080F3118870474FF0500006
:103AC00080F31188BFF36F8FBFF34F8FFEE70000C5
:103AD000B0B5002808BFB0BD044644F61050C2F28D
:103AE0000000007854F8041C002818BF4FF0004074
:103AF00008420CD0A4F108052A6892B14FF050009A
:103B000080F31188BFF36F8FBFF34F8FFEE74FF045
:103B1000500080F31188BFF36F8FBFF34F8F00BF4A
:103B2000FEE721EA000044F8040C00F0E1F944F655
:103B30003C51C2F2000154F8040C0A6810440860B9
:103B40002846FFF7CDF944F65450C2F20000016850
:103B50000131016001F0F4F9B0BD00004EF2100037
:103B6000CEF2000000210160816040F20001C2F24B
:103B70000001096844F6D352C1F26202A1FB0212AD
:103B80004FF0FF3101EB9211416007210160704756
:103B9000EFF30580102814D34EF2F031CEF200017D
:103BA000405C44F21851C2F200010978884208D200
:103BB0004FF0500080F31188BFF36F8FBFF34F8F2A
:103BC000FEE74EF60C50CEF2000044F21C510068A5
:103BD000C2F20001096800F4E060884298BF7047B3
:103BE0004FF0500080F31188BFF36F8FBFF34F8FFA
:103BF000FEE7000044F6705C0022C2F2000C00BF39
:103C00005CF8323023B10132082A08BF7047F7E769
:103C10000CEBC2034CF832105860704710B558B125
:103C2000044600F013F894F84600002818BF10BDB1
:103C30002046FFF74DFF10BD4FF0500080F3118874
:103C4000BFF36F8FBFF34F8FFEE7000044F6705C49
:103C50000021C2F2000C00BF0CEBC1035A68824283
:103C600004D00131082908BF7047F5E700204CF85F
:103C7000310058607047000070B515460E46044686
:103C8000FFF7EAFE94F84400FF2804BF002084F800
:103C9000440094F84500FF2804BF002084F8450044
:103CA000FFF7FEFEA06B28B904F1240031462A4636
:103CB00000F05EF82046FFF73BFB70BD10B5D8B1B1
:103CC000044644F22C50C2F20000006848B14FF0A4
:103CD000500080F31188BFF36F8FBFF34F8F00BF89
:103CE000FEE700F005F920460021FEF78BFE01F00B
:103CF00027F9002818BF10BD4EF60450CEF2000080
:103D00004FF080510160BFF34F8FBFF36F8F10BD35
:103D100044F64C51C2F200010968016044F6E451D6
:103D2000C2F20001098881807047000044F6F0501B
:103D3000C2F20000012101607047000010B568B1B7
:103D40000C4640F25831C2F2000109681831FFF701
:103D50004DFE20460121FEF755FE10BD4FF05000EC
:103D600080F31188BFF36F8FBFF34F8FFEE7000022
:103D7000B0B590B10D4640F25831C2F20001096869
:103D800014461831FFF750FE002C18BF4FF6FF7590
:103D900028462146FEF736FEB0BD4FF0500080F3B6
:103DA0001188BFF36F8FBFF34F8F00BFFEE7000096
:103DB00070B510B3026D044602B3E06C884238BFA0
:103DC0000846012A19D1E16A814208BF70BD40F25C
:103DD0005832C2F200021268A24218D040F2703685
:103DE000626901EB8101C2F2000606EB81018A42A1
:103DF000E062C0F13800208313D070BD4FF0500056
:103E000080F31188BFF36F8FBFF34F8FFEE74FF042
:103E1000500080F31188BFF36F8FBFF34F8F00BF47
:103E2000FEE7251D2846FFF7A3FD44F23451C2F2F8
:103E30000001E06A0A68904288BF086000EB8000D9
:103E400006EB80002946FFF7EFFD70BD10B586B088
:103E5000002405A804A903AACDE90444FFF79AFDAC
:103E6000DDE9032005990023CDE9010142F68D50DB
:103E7000C0F602001CA1009400F07CFE44F6405104
:103E8000C2F20001086010B101F0E6F80446601CBF
:103E900020D0012C1CD14FF0500080F31188BFF3CB
:103EA0006F8FBFF34F8F44F64850C2F200004FF6B9
:103EB000FF71018044F6B050C2F2000001210160A0
:103EC00044F6E450C2F200000021018000F08EF8B8
:103ED00006B010BD4FF0500080F31188BFF36F8F14
:103EE000BFF34F8FFEE700BF49444C450000000080
:103EF00044F22C50C2F200000168013101607047A9
:103F000044F22C50C2F20000006830B144F6F05088
:103F1000C2F2000001210160704744F6F050C2F285
:103F20000000002144F2345C0160C2F2000CDCF8B5
:103F3000001040F2703201EB8103C2F2000252F82D
:103F4000230048B902EB8300A0F11403D9B153F860
:103F5000140901390028F9D001EB810002EB80023D
:103F600052F8040F4368101D8342136001D1586852
:103F70001060106840F25832C068C2F2000210604F
:103F8000CCF8001070474FF0500080F31188BFF359
:103F90006F8FBFF34F8F00BFFEE7000010B5012900
:103FA000044606D0212916D14FF604702080A17056
:103FB00011E00D20207040F2BE00C2F20000007837
:103FC000A17060700420A4F803000120607100203B
:103FD000C4F8060060812046FFF79EFCA07840F2FE
:103FE000B701C2F20001087010BD000080B582B0B8
:103FF0004EF20040CEF200004CF27021C4F20F11DC
:10400000D0F800294B1C9A4209D14FF0500080F3A0
:104010001188BFF36F8FBFF34F8F00BFFEE7D0F85B
:1040200000298A4209D14FF0500080F31188BFF374
:104030006F8FBFF34F8F00BFFEE7017844F2185235
:104040000191FF2101700178C2F200028DF8031086
:104050009DF8031011F05001117047D044F21C512B
:10406000C2F2000107220A609DF90320B2F1FF3F6E
:104070000BDC0A689DF80330013A5B008DF80330D1
:104080009DF90330002BF5D40A600A68032A36D163
:104090004FF4E06303EA02220A6001990170D0F84C
:1040A000201941F47F01C0F82019D0F8201941F0FF
:1040B0007F41C0F82019FFF751FD40F24400C2F2E1
:1040C000000000210160FFF7BDFC4EF63470CEF217
:1040D0000000016841F040410160FEF76BFFFFF70F
:1040E0000FFFFFF7FFF8002002B080BD4FF0500037
:1040F00080F31188BFF36F8FBFF34F8FFEE74FF050
:10410000500080F31188BFF36F8FBFF34F8F00BF54
:10411000FEE7000080B54FF0500080F31188BFF338
:104120006F8FBFF34F8F00F081FD30B14EF604501A
:10413000CEF200004FF080510160002080F3118822
:1041400080BD000010B560B10C46814213D94FF01C
:10415000500080F31188BFF36F8FBFF34F8F00BF04
:10416000FEE74FF0500080F31188BFF36F8FBFF36D
:104170004F8F00BFFEE70021022200F02DF800283B
:1041800018BF846310BD000010B582B058B10C4652
:10419000814212D94FF0500080F31188BFF36F8F26
:1041A000BFF34F8FFEE74FF0500080F31188BFF34D
:1041B0006F8FBFF34F8F00BFFEE713464FF0020C27
:1041C00000210022CDF800C000F02AF8002818BF16
:1041D000846302B010BD0000F0B581B0B0B10546F7
:1041E0004843503014460E46FFF7DCF8074650B1FE
:1041F000002007F1500287F8460028463146234642
:104200000097FEF7D9FD384601B0F0BD4FF05000E1
:1042100080F31188BFF36F8FBFF34F8FFEE700006D
:10422000B0B582B068B11D46ABB1F1B9EAB14FF09B
:10423000500080F31188BFF36F8FBFF34F8F00BF23
:10424000FEE74FF0500080F31188BFF36F8FBFF38C
:104250004F8F00BFFEE74FF0500080F31188BFF38F
:104260006F8FBFF34F8F00BFFEE751B14AB94FF0D8
:10427000500080F31188BFF36F8FBFF34F8F00BFE3
:10428000FEE750230193019B502B0AD1069B019C12
:10429000012485F846400095FEF78EFD284602B0C1
:1042A000B0BD4FF0500080F31188BFF36F8FBFF3A4
:1042B0004F8F00BFFEE7000070B5F8B104460E4610
:1042C000FFF7CAFB2068D4E90F12002502FB0103A7
:1042D000013901FB0201A563C4E90103FF20E1608C
:1042E00084F8440084F8450004F110007EB1FFF723
:1042F0006DFB04F12400FFF769FB18E04FF050005C
:1043000080F31188BFF36F8FBFF34F8FFEE7016813
:1043100069B100F0CDFD50B14EF60450CEF2000070
:104320004FF080510160BFF34F8FBFF36F8FFFF7E6
:10433000B7FB012070BD00002DE9F04F83B0ADF850
:104340000A20C0B11D460E460446F1B1022D03D12C
:10435000E06B012840F09D8000F048FC08BBBDF8F0
:104360000A00F0B14FF0500080F31188BFF36F8F57
:10437000BFF34F8FFEE74FF0500080F31188BFF37B
:104380006F8FBFF34F8F00BFFEE7206C0028DDD09A
:104390004FF0500080F31188BFF36F8FBFF34F8F42
:1043A000FEE7FFF759FBA06B022D5AD0E16B884264
:1043B00057D304F1100801206F464FF0000B0DF1A8
:1043C0000A094FF0805A00BFBDF80A10002900F01A
:1043D0007C80C00702D03846FFF79AFCFFF760FBED
:1043E000FFF786FDFFF738FB94F84400FF2808BF6D
:1043F00084F844B094F84500FF2808BF84F845B01D
:10440000FFF74EFB3846494600F038FB00285FD1E5
:104410002046FEF7C1FDA8B1BDF80A104046FFF7DF
:104420008DFC2046FEF784FF00F08AFD78B94EF639
:104430000450CEF20000C0F800A0BFF34F8FBFF3CE
:104440006F8F04E02046FEF773FF00F079FDFFF761
:1044500003FBA06B022D04D0E16B88424FF00000FB
:10446000B2D2204631462A46FEF7E0FB54F8241F1C
:10447000C9B1204600F01CFD08B34EF60450CEF240
:1044800000004FF080510160BFF34F8FBFF36F8F7B
:1044900015E04FF0500080F31188BFF36F8FBFF32A
:1044A0004F8F00BFFEE750B14EF60450CEF2000031
:1044B0004FF080510160BFF34F8FBFF36F8FFFF755
:1044C000EFFA012003B0BDE8F08FFFF7E9FA04E04E
:1044D0002046FEF72DFF00F033FD002003B0BDE8BD
:1044E000F08F00002DE9F04381B0E8B11E469146FF
:1044F00005460F4609B3022E02D1E86B012837D1D9
:10450000FFF746FBEFF311884FF0500080F311885E
:10451000BFF36F8FBFF34F8FA86B022E19D0E96BDB
:10452000884216D300203FE04FF0500080F31188FE
:10453000BFF36F8FBFF34F8FFEE7286C0028DAD0F0
:104540004FF0500080F31188BFF36F8FBFF34F8F90
:10455000FEE795F84540A86B284639463246FEF7F7
:1045600065FBFF2C0DD0601C85F8450001201BE089
:104570004FF0500080F31188BFF36F8FBFF34F8F60
:10458000FEE755F8240F70B1284600F091FC014673
:10459000B9F1000F4FF0010006D000291CBF012027
:1045A000C9F8000000E0012088F3118801B0BDE8DF
:1045B000F083000070B560B10546006C98B14FF013
:1045C000500080F31188BFF36F8FBFF34F8F00BF90
:1045D000FEE74FF0500080F31188BFF36F8FBFF3F9
:1045E0004F8F00BFFEE728680C46F0B1FFF7D0FA06
:1045F000EFF311864FF0500080F31188BFF36F8FF7
:10460000BFF34F8FA96BE86B81420AD295F8450042
:104610000131FF28A96314D0013085F8450001203D
:104620001CE0002086F3118870BDA8680028DDD04A
:104630004FF0500080F31188BFF36F8FBFF34F8F9F
:10464000FEE755F8240F60B1284600F031FC014622
:10465000002C4FF0010018BF002906D186F3118805
:1046600070BD012086F3118870BD0120206086F3A3
:10467000118870BD2DE9F04F85B0ADF81220A0B1C2
:104680000C460546002900F0A78000F0AFFAB0B94B
:10469000BDF8120098B14FF0500080F31188BFF3BD
:1046A0006F8FBFF34F8F00BFFEE74FF0500080F3D6
:1046B0001188BFF36F8FBFF34F8F00BFFEE705F187
:1046C000240005F11009019002AF0DF1120A4FF01C
:1046D00000080AE02846FEF72BFE00F031FC2846D1
:1046E000FEF74EFC002840F08480FFF7B5F9D5F8BE
:1046F00038B0BBF1000F1DD028462146FEF782FAE4
:10470000ABF10100A863286970B1484600F0D0FB06
:1047100050B14EF60450CEF200004FF080510160CF
:10472000BFF34F8FBFF36F8FFFF7BAF90020012659
:10473000A0B95FE0BDF8120050B1B8F1000F02D18E
:104740003846FFF7E5FA4FF00108012030B951E093
:10475000FFF7A6F90026002000284BD0FFF7A0F9AC
:10476000FFF7C6FBFFF778F995F84400FF2804BF70
:10477000002085F8440095F84500FF2804BF00207C
:1047800085F84500FFF78CF93846514600F076F978
:1047900000289FD12846FEF7F3FBB8B1BDF81210F0
:1047A0000198FFF7CBFA2846FEF7C2FD00F0C8FBE0
:1047B00000289AD14EF60450CEF200004FF08051FE
:1047C0000160BFF34F8FBFF36F8F8EE72846FEF770
:1047D000AFFD00F0B5FB88E7286C00283FF455AF2B
:1047E0004FF0500080F31188BFF36F8FBFF34F8FEE
:1047F000FEE70026304605B0BDE8F08F2DE9F04316
:1048000081B000B3914605460E4631B3FFF7C0F9BB
:10481000EFF311884FF0500080F31188BFF36F8FD2
:10482000BFF34F8FAC6B24B395F8447028463146E4
:10483000FEF7E8F9601EFF2FA8631CD0781C85F8EE
:10484000440001202AE04FF0500080F31188BFF3AC
:104850006F8FBFF34F8F00BFFEE7286C0028D5D0C5
:104860004FF0500080F31188BFF36F8FBFF34F8F6D
:10487000FEE7002012E055F8100F70B1284600F056
:1048800017FB0146B9F1000F4FF0010006D00029D7
:104890001CBF0120C9F8000000E0012088F3118846
:1048A00001B0BDE8F08300002DE9F04F85B0ADF810
:1048B000121060B10446006C98B14FF0500080F3C4
:1048C0001188BFF36F8FBFF34F8F00BFFEE74FF02C
:1048D000500080F31188BFF36F8FBFF34F8F00BF7D
:1048E000FEE700F083F960B9BDF8120048B14FF05F
:1048F000500080F31188BFF36F8FBFF34F8F00BF5D
:10490000FEE704F1240004F1100501904FF00008C7
:1049100002AF0DF1120A4FF000094FF0000B0AE050
:104920002046FEF705FD00F00BFB2046FEF728FBB6
:10493000002840F08280FFF78FF8A06BF0B10138BB
:10494000A063206810B9FEF7D3FDA060286870B19D
:10495000284600F0ADFA50B14EF60450CEF20000F9
:104960004FF080510160BFF34F8FBFF36F8FFFF7A0
:1049700097F801260020C8B972E000BFBDF8120008
:1049800050B1BBF1000F02D13846FFF7C1F94FF02B
:10499000010B012050B963E0B9F1000F64D1FFF7BA
:1049A0007FF80020002600285AD000BFFFF778F8D3
:1049B000FFF79EFAFFF750F894F84400FF2808BF6D
:1049C00084F8448094F84500FF2808BF84F84580A7
:1049D000FFF766F83846514600F050F800289FD19E
:1049E0002046FEF7CDFA28B92046FEF7A1FC00F0DC
:1049F000A7FAA0E7206838B9FFF72EF8A06800F002
:104A000011FA8146FFF74CF8BDF812100198FFF734
:104A100095F92046FEF78CFC00F092FA00287FF40E
:104A20008AAF4EF60450CEF200004FF08051016084
:104A3000BFF34F8FBFF36F8F7DE7B9F1000F0ED03B
:104A4000FFF70AF82046FEF74BF9A1680246084630
:104A50001146FFF7ADF9FFF723F8002600E0002626
:104A6000304605B0BDE8F08F4FF0500080F311885C
:104A7000BFF36F8FBFF34F8FFEE70000B0B5E0B11B
:104A80000D4621B30446FEF7E7FF44F6E450C2F2B8
:104A90000000018828884FF6FF72904221D044F62A
:104AA0004C53A288C2F20003D3F800C091421AD33B
:104AB00023689C4517D0012423E04FF0500080F379
:104AC0001188BFF36F8FBFF34F8F00BFFEE74FF02A
:104AD000500080F31188BFF36F8FBFF34F8F00BF7B
:104AE000FEE700240DE0891A8AB2904206D9401AE6
:104AF00028802046FFF70CF9002402E00020012462
:104B00002880FEF7CDFF2046B0BD00002DE9F04320
:104B100083B007469000984615468946FEF742FC4A
:104B200078B106465C20FEF73DFC38B104460663CA
:104B300054B94FF0FF3003B0BDE8F0833046FEF7C4
:104B4000C7FF0024002CF4D0DDE90A10002284F80D
:104B50005920CDE90010384649462A46434602947A
:104B6000FEF73AF92046FDF791FF012003B0BDE8BA
:104B7000F083000070B586B00B9CCCB10C9E06B3E0
:104B80005C250495049D5C2D25D1049DDDF828C08D
:104B9000022586F8595005AD3463CDE900C502966B
:104BA000FEF71AF93046FDF771FF059806B070BDA3
:104BB0004FF0500080F31188BFF36F8FBFF34F8F1A
:104BC000FEE74FF0500080F31188BFF36F8FBFF303
:104BD0004F8F00BFFEE74FF0500080F31188BFF306
:104BE0006F8FBFF34F8F00BFFEE7000044F6B05059
:104BF000C2F200000068002804BF0120704744F2A0
:104C00002C50C2F200000068B0FA80F04009400069
:104C10007047000010B5FEF71FFF44F6E450C2F2E3
:104C200000000488FEF73CFF204610BD2DE9F04F40
:104C300081B044F22C50C2F20000006840B144F64A
:104C40005850C2F2000001880024013101809AE02E
:104C500044F6E450C2F20000018801318EB28E4267
:104C6000018021D040F26030C2F200000168096882
:104C700049B14FF0500080F31188BFF36F8FBFF33D
:104C80004F8F00BFFEE740F26832C2F200020168B7
:104C90001368036044F64C501160C2F200000168D2
:104CA00001310160FEF7ACFA44F64851C2F200014E
:104CB000088840F2583B40F270388642C2F2000B3E
:104CC000C2F2000801D200244BE040F26037C2F289
:104CD000000738680024006800284FF6FF703FD0B6
:104CE00044F23459C2F200091AE000BFDAF82C008D
:104CF000D9F80010884288BFC9F8000000EB800096
:104D000008EB80002946FEF78FFEDAF82C00DBF86E
:104D10000010C96A3A68884228BF01241068A0B10F
:104D20003868C068D0F80CA0554635F8040F8642A4
:104D300012D32846FEF71CFEDAF828000028D5D04A
:104D40000AF11800FEF714FED0E744F64851C2F20B
:104D500000014FF6FF7003E044F64851C2F2000133
:104D60000880DBF80000C06A00EB800058F82000E3
:104D7000012844F6F050C2F2000088BF0124006808
:104D8000002818BF0124204601B0BDE8F08F0000C4
:104D9000B0B580B1044640F25830C2F2000000685D
:104DA000A0420AD04FF0500080F31188BFF36F8FFC
:104DB000BFF34F8FFEE70020B0BD206D38B3013840
:104DC00020654FF0000018BFB0BDE16AE26C91426F
:104DD0001CD0251D2846FEF7CBFDE06CC0F1380144
:104DE000218344F23451E062C2F200010A68904229
:104DF00088BF086040F2703100EB8000C2F2000111
:104E000001EB80002946FEF70FFE0120B0BD4FF0F8
:104E1000500080F31188BFF36F8FBFF34F8F00BF37
:104E2000FEE70000F0B581B0E8B140F25836C2F2BA
:104E300000060446C06A3168C96A884216D23168E1
:104E400040F27037898D626900EB8000C2F2000782
:104E500007EB80008242C1F1380020830FD0306818
:104E6000C06AE06221E0002001B0F0BDE16C306872
:104E7000C26A0020914238BF012001B0F0BD251D5B
:104E80002846FEF775FD306844F23451C06AC2F21C
:104E90000001E0620A68904288BF086000EB800071
:104EA00007EB80002946FEF7BFFD012001B0F0BDF1
:104EB000B0B5C068C5687DB105F118042046FEF79D
:104EC00057FD44F22C50C2F20000006868B144F66D
:104ED0005C50C2F200001DE04FF0500080F31188DA
:104EE000BFF36F8FBFF34F8FFEE72C1D2046FEF7F9
:104EF0003FFD44F23451C2F20001E86A0A68904270
:104F000088BF086040F2703100EB8000C2F20001FF
:104F100001EB80002146FEF787FD40F25831C2F2D6
:104F20000001E86A0968C96A884291BF002044F616
:104F3000F051C2F20001012088BF0860B0BD00003E
:104F40002DE9F04F81B044F22C54C2F200042068E5
:104F500068B1FEF781FD206801382060206880B1CB
:104F60000024FEF79DFD204601B0BDE8F08F4FF014
:104F7000500080F31188BFF36F8FBFF34F8F00BFD6
:104F8000FEE744F22450C2F20000006800285FD01F
:104F900044F65C56C2F20006306844F6F058C2F29D
:104FA000000890B344F2345740F2703940F2583B55
:104FB000C2F20007C2F20009C2F2000B4FF0010A70
:104FC000F068C56805F11800FEF7D2FC2C1D2046DC
:104FD000FEF7CEFCE86A3968884288BF386000EB8B
:104FE000800009EB80002146FEF71EFDE86ADBF831
:104FF0000010C96A884228BFC8F800A0306800289D
:10500000DED1002D18BFFEF7FBF844F65854C2F26B
:105010000004258865B10126FFF708FE0028A5F1E8
:10502000010518BFC8F800602804F5D100202080D1
:10503000D8F8000070B14EF60450CEF200004FF0E8
:1050400080510160BFF34F8F0124BFF36F8F88E75A
:10505000002486E7002484E780B586B0FDF76CFD68
:1050600044F6E850C2F20000006808B30020CDE921
:10507000040005A804A903AAFEF79AFCDDE90320B1
:105080000221DDF814C0CDE9001043F21930C0F65A
:1050900002000CA10023CDF808C0FFF76BFD44F619
:1050A000EC51C2F20001086010B1012006B080BDD1
:1050B0004FF0500080F31188BFF36F8FBFF34F8F15
:1050C000FEE700BF546D72205376630010B584B0C4
:1050D000B0B144F6E854C2F2000484462068C0B17E
:1050E00005290091ADF80420CDF808C014DCFFF7C5
:1050F0007DFD01462068022915D1069A694614E013
:105100004FF0500080F31188BFF36F8FBFF34F8FC4
:10511000FEE7002004B010BD69461A460023FFF7E1
:10512000E1F904B010BD694600220023FFF704F93D
:1051300004B010BDF1EE100A4FF6FF71C0F2C0319D
:1051400020EA010040F04070E1EE100A70470000D4
:105150000000000000000102030406070809000027
:1051600000000102030400002852020800000000B1
:10517000000000000000000000000000000200002D
:105180001900000000000000000000007652020834
:105190000000000000000000000000005052020863
:1051A00000000000000000000000000000000000FF
:1051B000000200001A0000000000000000000000D3
:1051C000685202080000000000000000000000001B
:1051D0004152020800000000000000000000000032
:1051E00000000000000200001800000000000000A5
:1051F000000000005D5202080000000000000000F6
:10520000000000003552020800000000000000000D
:105210000000000000000000000200001700000075
:10522000000000000000000072656164526669645D
:105230005461736B0073656E644D73675461736B77
:1052400000726561645765696768745461736B00C7
:1052500072656164556172745461736B0073656E3D
:10526000644D736753656D00726561645765696766
:10527000687453656D00726561645561727453653D
:105280006D000000A852020800000020500000003D
:10529000C4010208F852020850000020A853000080
:1052A000E0010208000000000024F40001000100F9
:1052B00000000000060100000000000006020000DF
:1052C0000000000006FF04010000000000000402CE
:1052D00000000000000005010000000000000502C1
:1052E000000000000000010110000000AAAAAAAA04
:0852F0000100000000000000B5
:040000050802018963
:00000001FF
