:020000040800F2
:1000000000000220553A00086D0700086F0700083D
:10001000710700087307000875070008000000005A
:10002000000000000000000000000000770700084A
:1000300079070008000000007B0700087D07000822
:10004000A53A0008A53A0008A53A0008A53A000814
:10005000A53A0008A53A0008A53A0008A53A000804
:10006000A53A0008A53A0008A53A0008A53A0008F4
:10007000A53A0008A53A0008A53A0008A53A0008E4
:10008000A53A0008A53A0008A53A0008A53A0008D4
:10009000A53A0008A53A0008A53A0008A53A0008C4
:1000A000A53A0008A53A0008A53A0008A53A0008B4
:1000B000A53A0008A53A0008A53A0008A53A0008A4
:1000C000A53A0008A53A0008A53A0008A53A000894
:1000D000A53A0008A53A0008A53A0008A53A000884
:1000E000A53A0008A53A0008A53A0008A53A000874
:1000F000A53A0008A53A0008A53A0008A53A000864
:10010000A53A0008A53A0008A53A0008A53A000853
:10011000A53A0008A53A0008A53A0008A53A000843
:10012000A53A0008A53A0008A53A0008A53A000833
:10013000A53A0008A53A0008A53A0008A53A000823
:10014000A53A0008A53A0008A53A00088507000866
:10015000A53A0008A53A0008A53A0008A53A000803
:10016000A53A0008A53A0008A53A0008A53A0008F3
:10017000A53A0008A53A0008A53A000800000000CA
:08018000A53A0008A53A0008A9
:100188000348044B834202D0034B03B1184770471E
:10019800100000201000002000000000054806495B
:1001A8000B1AD90F01EBA301491002D0034B03B17D
:1001B80018477047100000201000002000000000C1
:1001C80010B5064C237843B9FFF7DAFF044B13B197
:1001D8000448AFF300800123237010BD10000020F5
:1001E80000000000A83A000808B5044B1BB10449F8
:1001F8000448AFF30080BDE80840CFE700000000E6
:1002080014000020A83A000870B50D4E0D4D761B5D
:10021800B61006D0002455F8043B01349847A6428E
:10022800F9D1094E094D761B03F03AFCB61006D0F9
:10023800002455F8043B01349847A642F9D170BD13
:10024800E03A0008E03A0008E43A0008E03A00081A
:10025800830730B548D0541E002A3FD0CAB203469F
:1002680001E0013C3AD303F8012B9D07F9D1032C97
:100278002DD9CDB245EA05250F2C45EA054536D9D5
:10028800A4F1100222F00F0C03F1200EE6444FEA0D
:10029800121C03F1100242E9045542E902551032DA
:1002A8007245F8D10CF1010214F00C0F03EB0212A5
:1002B80004F00F0C13D0ACF1040323F00303043350
:1002C800134442F8045B9342FBD10CF003042CB1B5
:1002D800CAB21C4403F8012B9C42FBD130BD6446D2
:1002E8001346002CF4D1F9E703461446BFE71A4633
:1002F800A446E0E753B94AB9002908BF00281CBF43
:100308004FF0FF314FF0FF3000F074B9ADF1080C39
:100318006DE904CE00F006F8DDF804E0DDE902231B
:1003280004B070472DE9F047089D04468E46002B1F
:100338004DD18A42944669D9B2FA82F252B101FA91
:1003480002F3C2F1200120FA01F10CFA02FC41EAA1
:10035800030E94404FEA1C48210CBEFBF8F61FFA26
:100368008CF708FB16E341EA034306FB07F19942C1
:100378000AD91CEB030306F1FF3080F01F81994274
:1003880040F21C81023E63445B1AA4B2B3FBF8F04E
:1003980008FB103344EA034400FB07F7A7420AD9D5
:1003A8001CEB040400F1FF3380F00A81A74240F2FD
:1003B80007816444023840EA0640E41B00261DB168
:1003C800D4400023C5E900433146BDE8F0878B429D
:1003D80009D9002D00F0EF800026C5E9000130465C
:1003E8003146BDE8F087B3FA83F6002E4AD18B4236
:1003F80002D3824200F2F980841A61EB03030120E0
:100408009E46002DE0D0C5E9004EDDE702B9FFDECB
:10041800B2FA82F2002A40F09280A1EB0C014FEA76
:100428001C471FFA8CFE0126200CB1FBF7F307FBD3
:10043800131140EA01410EFB03F0884208D91CEB76
:10044800010103F1FF3802D2884200F2CB80434613
:10045800091AA4B2B1FBF7F007FB101144EA0144F2
:100468000EFB00FEA64508D91CEB040400F1FF3181
:1004780002D2A64500F2BB800846A4EB0E0440EA6F
:1004880003409CE7C6F12007B34022FA07FC4CEA78
:10049800030C20FA07F401FA06F31C43F9404FEA6B
:1004A8001C4900FA06F3B1FBF9F8200C1FFA8CFE80
:1004B80009FB181140EA014108FB0EF0884202FAD4
:1004C80006F20BD91CEB010108F1FF3A80F0888095
:1004D800884240F28580A8F102086144091AA4B252
:1004E800B1FBF9F009FB101144EA014100FB0EFED3
:1004F8008E4508D91CEB010100F1FF346CD28E4502
:100508006AD90238614440EA0840A0FB0294A1EB92
:100518000E01A142C846A64656D353D05DB1B3EBEF
:10052800080261EB0E0101FA07F722FA06F3F1401F
:100538001F43C5E9007100263146BDE8F087C2F1C6
:100548002003D8400CFA02FC21FA03F3914001433E
:100558004FEA1C471FFA8CFEB3FBF7F007FB103677
:100568000B0C43EA064300FB0EF69E4204FA02F423
:1005780008D91CEB030300F1FF382FD29E422DD976
:10058800023863449B1B89B2B3FBF7F607FB1633AB
:1005980041EA034106FB0EF38B4208D91CEB01012B
:1005A80006F1FF3816D28B4214D9023E6144C91AAB
:1005B80046EA004638E72E46284605E70646E3E6BB
:1005C8001846F8E64B45A9D2B9EB020864EB0C0EC5
:1005D8000138A3E74646EAE7204694E74046D1E7D4
:1005E800D0467BE7023B614432E7304609E7644482
:1005F800023842E7704700BF82B0002100910B4BE0
:100608001A6B42F080021A631A6B02F080020092A1
:10061800009A01911A6B42F001021A631B6B03F0F6
:1006280001030193019B02B0704700BF00380240EC
:1006380038B5064C656801F023FF02F05DFA72B622
:10064800236883F30888A84738BD00BF0000010865
:1006580072B6FEE708B50A480A4B03604FF4E13367
:10066800436000238360C36003610C22426183619D
:10067800C36102F089FB00B908BDFFF7E9FF00BFBD
:100688002C000020004C004000B595B0302200211D
:1006980008A8FFF7DDFD0023039304930593069351
:1006A80007930193204A116C41F080511164126C38
:1006B80002F080520192019A02931C4B1A6842F48C
:1006C80080421A601B6803F480430293029B09234B
:1006D80008934FF48033099301230D9302230E935B
:1006E8004FF480020F9204221092A82211921293C2
:1006F8000723139308A801F087FB88B90F230393F6
:1007080002210491802305934FF48053069300231C
:10071800079303A801F0DEFD20B915B05DF804FBCE
:10072800FFF796FFFFF794FF003802400070004083
:1007380008B502F01DFAFFF7A7FFFFF75DFFFFF707
:1007480089FF41F2883002F03FFA054800F084F84A
:1007580010B9FFF76DFFFEE7014800F0A7F8F8E7CA
:100768002C000020FEE7FEE7FEE7FEE7FEE7704705
:100778007047704708B502F015FA08BD08B5024879
:1007880000F038FC08BD00BFA400002082B00021A2
:1007980000910B4B5A6C42F480425A645A6C02F432
:1007A80080420092009A01911A6C42F080521A64B9
:1007B8001B6C03F080530193019B02B0704700BF8C
:1007C8000038024000B589B00023039304930593D1
:1007D800069307930268144B9A4202D009B05DF859
:1007E80004FB0021019103F5F6331A6C42F4002250
:1007F8001A641A6C02F400220192019A02911A6B8F
:1008080042F001021A631B6B03F001030293029B7F
:10081800032303930222049206930823079303A950
:10082800024802F017F8D9E7004C004000000240E7
:1008380000231A4604E010F803C06244D2B2013320
:1008480001F1FF3C9C45F6D810F80C30934201D0DA
:10085800002070470120704738B504464FF6FF73F3
:100868000322104902F0BFFA0F4D41F288330522E6
:100878002946204602F023FB2B78042B01D00020C8
:1008880038BD6B78012B01D00020F9E7AB78012B3C
:1008980001D00020F4E7EB78062B01D00020EFE729
:1008A8000120EDE704000020700000202DE9F04150
:1008B80086B00646002304938DF8143002938DF811
:1008C8000C304FF6FF730322334902F08CFA42F2E0
:1008D8001073052202A9304602F0F1FA052102A898
:1008E800FFF7A6FF804618B9404606B0BDE8F0817C
:1008F8009DF80A703F023FB29DF80B301F43BFB20C
:1009080001F0EEFE254B9122DA600221042001F06D
:1009180077FF0221052001F073FF74238DF804305E
:1009280000241F4DA7422EDD4FF6FF73012201A9B7
:10093800304602F058FA42F21073052204A93046F4
:1009480002F0BDFA9DF810209DF8110011189DF8CD
:10095800123053FA81F19DF813C05CFA81F1C9B2E3
:100968009DF814E08E4511D11B0443EA0C6343EA59
:1009780000231A4300232946022001F003FF04350F
:1009880038B90434CEE701F0C3FEADE74FF00008F4
:10099800AAE74FF00008A7E700000020003C02404B
:1009A8000000010808B500F2C441D0F8080502F0BB
:1009B80015FB08BD08B501EBC10300EB8303D3F8B1
:1009C8008C22D0F8080502F0D6FB08BD08B501EB6B
:1009D800C10300EB8303DA6CD0F8080502F02EFCA3
:1009E80008BD08B5D0F8080502F070FB08BD10B5C1
:1009F8000446C3683BB1022B01D1012104E0FFF793
:100A080027FE012100E00021D4F8080502F044FB8C
:100A1800D4F8080502F00EFB10BD000010B504461E
:100A2800D0F8080502F03BFB2268D2F8003E43F0FC
:100A38000103C2F8003E236A23B1034A136943F055
:100A48000603136110BD00BF00ED00E008B5D0F843
:100A5800080502F02EFB08BD08B5D0F8080502F01D
:100A68005DFB08BD08B5D0F8080502F040FB08BDDD
:100A780008B5D0F8080502F068FB08BD08B5D0F83D
:100A8800080502F064FB08BDD0F8C83211F0800FE9
:100A980008D101F07F0101EBC10103EB810191F85D
:100AA8007E02704701F07F0101EBC10103EB810178
:100AB80091F83E007047032805D8DFE800F00504E8
:100AC8000205012070470320704708B594461A466E
:100AD8006346D0F8C80200F051F9FFF7ECFF08BDF3
:100AE80008B5D0F8C80200F0ECF9FFF7E4FF08BD3C
:100AF80008B5D0F8C80200F028FAFFF7DCFF08BDF7
:100B080008B5D0F8C80200F025F9FFF7D4FF08BDF2
:100B180008B5D0F8C80200F0A5F9FFF7CCFF08BD6A
:100B280008B5D0F8C80200F06EF9FFF7C4FF08BD99
:100B38002DE9F04383B0D0F8008001EBC10300EB4E
:100B48008303DA6D5B6D9A4254D807460C469B1AAC
:100B580001EBC10200EB8202926C9A4200D31A4662
:100B680002F103094FEA990915E006F103094FEA72
:100B7800990904EBC40507EB8505E96C3B7C0093F8
:100B8800B3B2E2B2404600F003FFEB6C3344EB64CF
:100B9800EB6D3344EB6508EB441303F510639B6975
:100BA8009BB24B4512D304EBC40207EB8202D16D12
:100BB800536D99420AD24BB15B1A04EBC40207EB9E
:100BC8008202966C9E42D0D31E46CEE704EBC40048
:100BD80007EB80077A6DFB6D9A420FD804F00F047B
:100BE8000123A340D8F8344824EA0304C8F8344859
:100BF800002000E0012003B0BDE8F0830020FAE700
:100C080070B504460D460068066C00EB411303F509
:100C180030639A682169012911D038498E4256D02B
:100C28003DB905EBC50304EB8303D3F89432002BDD
:100C38005ED0E9B22046FFF7BDFE002070BD12F07D
:100C4800080F09D02E498E42F7D912F4004FF4D07C
:100C58004FF400429A60F0E712F0200F02D02022F1
:100C68009A60EAE712F0280FE7D125498E4206D9A3
:100C780012F4004F03D04FF400429A60DDE705EB11
:100C8800C50204EB8202D2F898121B69C3F312035F
:100C9800CB1AC2F89C327DB905EBC50204EB82027F
:100CA800D2F894226AB105EBC50204EB8202D2F8AD
:100CB8008C120B44C2F88C32E9B22046FFF77AFE58
:100CC800BBE704F2C442012101F06EF8F4E712F424
:100CD800004F03D04FF400429A60AEE712F0200FA5
:100CE80001D020229A60E9B22046FFF763FEA4E70C
:100CF80004F2C442002101F057F89AE70A31544F30
:100D08000A30544F38B5044603681D6C03EB411391
:100D1800D3F8081B0E4A954207D903F5306311F43E
:100D2800004F02D04FF400429A602046FFF73AFE87
:100D3800074B9D4202D92369012B01D0002038BD01
:100D480004F2C4420121206801F02EF8F6E700BF42
:100D58000A30544F90F8BC34012B0DD010B504461E
:100D6800012380F8BC3480F83810006800F0C7FF11
:100D7800002084F8BC0410BD0220704738B5054631
:100D88008C4611F0800F29D101F00F0E0EEBCE0426
:100D9800A40004F51E740444211D0EEBCE0E00EBD6
:100DA8008E0E00208EF87D020CF00F0C81F800C02A
:100DB800CA600B714A780AB1A1F808C0022B1DD08D
:100DC80095F8BC34012B1CD0012385F8BC34286865
:100DD80000F09FFC002085F8BC0438BD01F00F002E
:100DE80000EBC001890038312944043100EBC00010
:100DF80005EB8000012480F83D40D5E700234B71C6
:100E0800DEE70220E9E710B501F00F0404EBC401A6
:100E1800890001F51E710144043104EBC40C00EB98
:100E28008C0CCCF88C22CCF894320023CCF89C3271
:100E38008CF87D328CF87C420369012B06D064B9AA
:100E4800DAB2006800F0B3FC002010BD04EBC40C5B
:100E580000EB8C0CCCF89022F1E7DAB2006800F0D5
:100E6800AFFDF1E710B501F00F0404EBC4018900F0
:100E780038310144043104EBC40C00EB8C0CCCF881
:100E88004C20CCF854300023CCF85C3001238CF88B
:100E98003D308CF83C400369012B06D064B9DAB2C6
:100EA800006800F084FC002010BD04EBC40C00EBCB
:100EB8008C0CCCF85020F1E7DAB2006800F080FD25
:100EC800F1E738B501F00F054268954239D8044674
:100ED8000B4611F0800F1FD101EBC101890001F50C
:100EE8001E710144043103EBC30300EB83030022AA
:100EF80083F87D2201238B700D7094F8BC34012B8C
:100F080021D0012384F8BC34206800F09DFE8DB107
:100F1800002084F8BC0438BD05EBC50189003831D0
:100F28000144043105EBC50300EB8303012283F878
:100F38003D20DFE704F2C442217C206800F034FF42
:100F4800E6E70120E7E70220E5E701F00F03426842
:100F5800934231D810B5044611F0800F1ED103EB2F
:100F6800C301890001F51E710144043103EBC3027A
:100F780000EB8202002082F87D0200228A700B704A
:100F880094F8BC34012B19D0012384F8BC342068B0
:100F980000F087FE002084F8BC0410BD03EBC301F9
:100FA800890038310144043103EBC30200EB8202AB
:100FB800012082F83D00E0E7012070470220ECE7BD
:100FC80008B511F0800F0CD101F00F0101EBC10140
:100FD800890001F51E7101440431006800F079FCB4
:100FE80008BD01F00F0101EBC1018900383101444E
:100FF8000431F2E72DE9F04F83B00446056828462E
:1010080000F0BEFE10B103B0BDE8F08F06462068C0
:1010180000F085FE0028F6D005F50067BB68C3F32D
:101028000D23C4F8FC34206800F079FE10F0020F9C
:1010380004D02268536903F002035361206800F06A
:101048006EFE10F0100F13D02268936923F010037E
:101058009361D5F8208008F00F09C8F34343022BA9
:101068004BD0062B6FD02268936943F0100393612D
:10107800206800F054FE10F4002F76D1206800F0AC
:101088004EFE10F4802F40F0E080206800F047FE0C
:101098000028C0F26381206800F041FE10F4006F60
:1010A80009D0BB6813F0010F40F0708122685369C2
:1010B80003F400635361206800F031FE10F4805F90
:1010C80040F06881206800F02AFE10F4005F40F0CC
:1010D800B581206800F023FE10F0080F40F0C681AB
:1010E800206800F01CFE10F0800F00F0D981AB6979
:1010F80023F08003AB610126C2E147F6F07318EADA
:10110800030FB0D04FEA181B4FEAC903019309EB4C
:10111800C90A04EB8A0AC8F30A12DAF88C122846BC
:1011280000F068FDCBF30A0BDAF88C325B44CAF89E
:101138008C32019B4B4404EB8303D3F89C325B4411
:10114800CAF89C328FE7082204F2C441284600F00E
:1011580051FDC8F30A1809EBC90204EB8202D2F860
:101168009C324344C2F89C327DE7206800F0DBFDE6
:101178008046B14635E005EB49130122C3F8082B38
:1011880049462046FFF73CFD3CE005EB49130822A1
:10119800C3F8082B49462046FFF7B4FD35E009EBB4
:1011A800C90304EB830393F87F32012B41D005EB8D
:1011B80049130222C3F8082B1AF0200F04D005EBBC
:1011C80049132022C3F8082B1AF4005F05D005EB59
:1011D80049134FF40052C3F8082B09F101094FEAEB
:1011E8005808B8F1000F3FF449AF18F0010FF4D0D8
:1011F8005FFA89FB5946206800F0A5FD824610F089
:10120800010FB8D11AF0080FBFD11AF0100F04D08F
:1012180005EB49131022C3F8082B1AF0020FCBD0A4
:101228006B6913F0800FBAD07B6843F480637B60EE
:10123800B5E709EBC90304EB8303002283F87F2297
:1012480059462046FFF708FCB1E7206800F073FD17
:101258008046B14625E059462046FFF7B7FB1AF00D
:10126800080F04D005EB49130822C3F808291AF01F
:10127800100F04D005EB49131022C3F808291AF0FF
:10128800400F04D005EB49134022C3F808291AF08F
:10129800020F40D11AF0800F5BD109F101094FEA22
:1012A8005808B8F1000F3FF4F0AE18F0010FF4D071
:1012B8005FFA89FB5946206800F04EFD824610F01F
:1012C800010FCCD009F00F03012101FA03F27B6B67
:1012D80023EA02037B6305EB4913C3F80819236962
:1012E8008B42B8D109EBC90304EB8303996CDA6C20
:1012F8000A44DA64B9F1000FADD109EBC90304EB74
:1013080083035B6D002BA6D104F2C442012120683F
:1013180000F04AFD9FE74946284600F0C1F909EB6D
:10132800C90304EB830393F83F30012B05D005EB89
:1013380049130222C3F80829ACE709EBC90304EBF7
:101348008303002283F83F2059462046FFF78AFB93
:10135800EDE749462046FFF7EBFB9EE77B6823F065
:1013680001037B6094F8F434012B08D02046FFF782
:101378006DFB2268536903F0004353618BE600213B
:1013880084F8F414204600F017F9F2E72046FFF736
:1013980045FB8BE67B6823F001037B601021206806
:1013A80000F07EF91AE005EB46134FF67F31C3F8DB
:1013B8000819D3F8002922F40012C3F80029C3F849
:1013C800081BD3F8002B22F40012C3F8002BD3F823
:1013D800002B42F00062C3F8002B01366368B34269
:1013E800E1D8FB6943F00113FB61236BDBB1D7F84C
:1013F800843043F00B03C7F884307B6C43F00B0355
:101408007B64D5F8003823F4FE63C5F8003804F28D
:10141800C442217C206800F0C7FC2268536903F4A9
:10142800805353614EE67B6943F4005343F02B032A
:101438007B613B6943F00B033B61E2E7206800F006
:10144800A3FC206800F054F9E060266800F0F2FF81
:101458000146227B304600F0B1F82046FFF7C7FA74
:101468002268536903F40053536132E62046FFF7BC
:10147800B8FA2268536903F00803536130E601366D
:101488006368B3420CD906EBC60304EB830393F8F5
:101498007F32012BF3D1F1B22046FFF791FDEEE741
:1014A800206800F03CFC10F4801F27D1206800F071
:1014B80036FC10F4001F5BD0012328E00136636876
:1014C800B3421DD905EB4613D3F8002906EBC60332
:1014D80004EB830393F84030012BEFD1002AEDDAB7
:1014E80006EBC60304EB8303012283F83F2066F072
:1014F8007F01C9B22046FFF763FDDFE70126DEE77B
:101508002268536903F480135361CFE7013362689B
:101518009A4228D905EB4312D2F8001B03EBC30209
:1015280004EB820292F88022012AEFD10029EDDA39
:1015380001F48031D4F8FC2402F001029142E5D193
:1015480003EBC30204EB8202012182F87F12AA692D
:1015580042F08002AA616A6912F0800FD6D17B68D6
:1015680043F400737B602268536903F400135361EA
:10157800206800F0D4FB10F0804F10D1206800F0F4
:10158800CEFB10F0040F3FF43EAD23685D6815F004
:10159800040F0DD1226853682B43536033E520466E
:1015A800FFF766FA2268536903F080435361E5E761
:1015B8002046FFF763FAEDE770470000022A0AD0D9
:1015C8000921C26822F47052C260C36843EA8123C9
:1015D800C36000207047234B0B44234A93422FD902
:1015E800224B0B44224A93422CD9A1F57403A3F54C
:1015F8001053204A934227D9A1F18373A3F5E743F7
:101608001D4A934222D31D4B0B441D4A93421FD9B6
:101618001C4B0B441C4A93421CD31C4B0B441C4AC6
:10162800934219D3A1F1B773A3F55853194A9342BA
:1016380014D3194B0B44194A934211D20721C0E71E
:101648000F21BEE70E21BCE70D21BAE70C21B8E750
:101658000B21B6E70A21B4E70921B2E70821B0E770
:101668000621AEE7405327FFFF340C00401E1BFF46
:101678003F420F007F4F120020D6130060B6E5FEF0
:101688005FE3160000D3CEFE40771B00C05BB3FEBD
:10169800C091210020753800E05459FEE09C4100BB
:1016A80082B000230193019B01330193019A0F4BF0
:1016B8009A4215D80369002BF5DA002301938901B2
:1016C80041F020010161019B01330193019A074B0D
:1016D8009A4208D8036913F0200FF4D1002000E0E3
:1016E800032002B070470320FBE700BF400D030052
:1016F800D0F8083813F0060307D0022B07D0062BC2
:1017080001D00F2070470220704700207047022048
:10171800704710B591F800C04B78012B23D000F525
:10172800006ED0F81C380CF00F040122A24043EAE6
:101738000243C0F81C3800EB4C10D0F8003B13F4FF
:10174800004F0ED1D0F8003BCA68C2F30A020979EB
:1017580042EA8142134343F0805343F40043C0F804
:10176800003B002010BDD0F81C280CF00F0E03FA27
:101778000EF39BB21343C0F81C3800EB4C10D0F8A2
:10178800003913F4004FECD1D0F80039CA68C2F31D
:101798000A02097942EA814242EA8C5C43EA0C0374
:1017A80043F0805343F40043C0F80039D9E770B4DC
:1017B8000B784C78012C29D000EB431000F53063EE
:1017C8001C69E40CE4041C611C6924F0FF5424F433
:1017D800C0141C618C690CB1CC688C61CC68CC617C
:1017E8001C6944F400241C611C69CD69C5F3120C02
:1017F80044EA0C041C61012A66D0D0F8003B43F08F
:101808000443C0F8003B002070BC70478C696CBB77
:1018180000EB4314D4F8105925F0FF5525F4C015F2
:10182800C4F81059D4F8105945F40025C4F81059D3
:10183800D4F81059ED0CED04C4F81059012A34D02D
:1018480000EB4313D3F8002942F00442C3F80029FF
:101858008B69002BD7D0D0F834380A7802F00F0102
:1018680001228A401343C0F83438CCE700EB431414
:1018780004F510642569ED0CED042561256925F052
:10188800FF5525F4C0152561CD688E69AE4200D993
:101898008D61256945F40025256125698E69C6F3A2
:1018A800120C45EA0C052561C8E74A691AB100EB34
:1018B8004311C1F8142900EB4310D0F8002942F075
:1018C8000442C0F800299EE70A69002A95D05A61A7
:1018D80093E710B483B002460023019348780128A7
:1018E8000BD00B7802EB4313D3F8000B00282DDB49
:1018F800002003B05DF8044B70470B7802EB4313EC
:10190800D3F80049002C01DB0020F2E7D3F80049A6
:1019180044F00064C3F800490B7802EB4313D3F892
:10192800004944F08044C3F80049019B0133019306
:10193800019C42F210739C42DBD80B7802EB4313F4
:10194800D3F80039002BF0DB0020D2E7D3F8000BE6
:1019580040F00060C3F8000B0B7802EB4313D3F898
:10196800000B40F08040C3F8000B019B013301934A
:10197800019842F21073984208D80B7802EB43138F
:10198800D3F8003B002BF0DB0020B2E70120B0E7E2
:1019980010B59DF8084084B903334FEA930E4FF011
:1019A800000C08E000EB023303F5805351F8044BB8
:1019B8001C600CF1010CF445F4D3002010BD0000AC
:1019C800F0B583B00B784C78012C33D000EB43137F
:1019D80003F5306CDCF81040E40CE404CCF810405B
:1019E800DCF8104024F0FF5424F4C014CCF8104064
:1019F8008C69002C40F0C780DCF81040CD68C5F336
:101A080012052C43CCF81040DCF8104044F40024B4
:101A1800CCF81040012A00F0D0800A79012A00F0A1
:101A2800D380D3F8002B42F00442C3F8002B0020E7
:101A380003B0F0BD8C6984BB00EB4314D4F8105993
:101A480025F0FF5525F4C015C4F81059D4F81059DD
:101A580045F40025C4F81059D4F81059ED0CED04DC
:101A6800C4F81059012A4CD000EB4313D3F80049AD
:101A780044F00444C3F800490C79012C6AD08B69FE
:101A8800002BD4D0D0F834380A7802F00F010122A4
:101A98008A401343C0F83438C9E700EB4314D4F83C
:101AA8001059ED0CED04C4F81059D4F8105925F06C
:101AB800FF5525F4C015C4F81059D4F810698D697C
:101AC800CF683D44013DB5FBF7F5494F07EAC545E9
:101AD8003543C4F81059D4F810598E69C6F3120664
:101AE8003543C4F8105904F510640D79012DB9D1A6
:101AF800256925F0C0452561256945F00055256112
:101B0800B0E74A691AB100EB4314C4F814290A79FA
:101B1800012A08D000EB4313D3F8002942F004420D
:101B2800C3F8002983E7D0F8082812F4807F08D189
:101B380000EB4311D1F8002942F00052C1F8002906
:101B4800E8E700EB4311D1F8002942F08052C1F8D0
:101B58000029DFE7D0F8084814F4807F0CD1D3F8C7
:101B6800004944F00054C3F8004900920B8B0A78EE
:101B78000969FFF70DFF5AE7D3F8004944F080548C
:101B8800C3F80049F1E7CD682C44013CB4FBF5F4F7
:101B9800A4B204FB05F5CD61DCF81050144E06EA3A
:101BA800C4442C43CCF81040DCF81040CD69C5F390
:101BB80012052C43CCF810402CE70A69002A3FF4A0
:101BC8002CAFCCF8142028E7D0F8082812F4807F2E
:101BD80006D1D3F8002B42F00052C3F8002B20E7BF
:101BE800D3F8002B42F08052C3F8002B19E700BF4E
:101BF8000000F81F00B583B0844608464FEA920EED
:101C080002F00302002305E00CF58051096840F852
:101C1800041B01337345F7D39AB10CF5805CDCF8EB
:101C2800003001934FF0000C5FFA8CF3D900019B50
:101C3800CB4000F8013B0CF1010C013A92B2002AAA
:101C4800F2D103B05DF804FB0B784A78012A14D06E
:101C580000EB4310D0F8002B002A06DB2BB1D0F89C
:101C6800003B23F08043C0F8003BD0F8003B43F42E
:101C78000013C0F8003B0020704700EB4310D0F879
:101C88000029002A06DB2BB1D0F8003923F0804365
:101C9800C0F80039D0F8003943F40013C0F800390F
:101CA800E9E70B784A78012A0ED000EB4310D0F808
:101CB800003B23F40013C0F8003B0B79023BDBB276
:101CC800012B15D90020704700EB4310D0F80039DC
:101CD80023F40013C0F800390B79023BDBB2012B67
:101CE800F0D8D0F8003943F08053C0F80039E9E75C
:101CF800D0F8003B43F08053C0F8003BE2E7D0F84F
:101D0800003823F4FE63C0F80038D0F80038090121
:101D180001F4FE611943C0F80018002070474269B9
:101D2800806910407047D0F8183800F50060C06925
:101D38001840000C7047D0F8183800F50060C069EA
:101D4800184080B2704700EB4111D1F8082B00F51C
:101D5800006040691040704710B4D0F81048D0F8BF
:101D6800343801F00F02D340DB01DBB2234300EB30
:101D7800411000F51060806818405DF8044B70470A
:101D8800406900F001007047D0F8003923F4FF6380
:101D980023F00703C0F80039D0F8043843F48073FF
:101DA800C0F804380020704710B4046C154B9C42EE
:101DB80003D9D0F8003B002B16DB0024C0F8104BE9
:101DC800D0F8104B44F40024C0F8104BD0F8104B56
:101DD80044F01804C0F8104BD0F8104B44F0C0443D
:101DE800C0F8104B012903D000205DF8044B704760
:101DF800C0F8142BD0F8003B43F08023C0F8003B18
:101E0800F2E700BF0A30544F002800F0E08170B5B7
:101E180082B00446036813F0010F3BD09F4B9B68C8
:101E280003F00C03042B2CD09C4B9B6803F00C0391
:101E3800082B21D06368B3F5803F4FD0B3F5A02FAE
:101E480052D0964B1A6822F480321A601A6822F42B
:101E580080221A606368002B50D000F0AFFE054660
:101E68008E4B1B6813F4003F14D100F0A7FE401BF3
:101E78006428F5D90320B1E1884B5B6813F4800F1F
:101E8800D8D0864B1B6813F4003F03D06368002B3F
:101E980000F09F81236813F0020F54D07F4B9B689A
:101EA80013F00C0F3ED07D4B9B6803F00C03082BFE
:101EB80033D0E368002B68D0794B01221A6000F018
:101EC8007DFE0546754B1B6813F0020F54D100F0D8
:101ED80075FE401B0228F5D903207FE16F4A13687D
:101EE80043F480331360B5E76C4B1A6842F48022E0
:101EF8001A601A6842F480321A60ABE700F05EFE9E
:101F08000546664B1B6813F4003FC3D000F056FE2D
:101F1800401B6428F5D9032060E1604B5B6813F42B
:101F2800800FC6D15D4B1B6813F0020F03D0E36826
:101F3800012B40F05081594A136823F0F8032169B6
:101F480043EAC1031360236813F0080F42D06369A2
:101F58006BB3534B0122C3F8802E00F02FFE0546C9
:101F68004E4B5B6F13F0020F34D100F027FE401B7D
:101F78000228F5D9032031E1484A136823F0F80311
:101F8800216943EAC1031360DDE7454B00221A606B
:101F980000F014FE0546414B1B6813F0020FD2D027
:101FA80000F00CFE401B0228F5D9032016E13C4B3B
:101FB8000022C3F8802E00F001FE0546374B5B6F08
:101FC80013F0020F06D000F0F9FD401B0228F5D9E6
:101FD800032003E1236813F0040F77D02F4B1B6C09
:101FE80013F0805F33D1002301932C4B1A6C42F01D
:101FF80080521A641B6C03F080530193019B0125E6
:10200800284B1B6813F4807F23D0A368012B34D09E
:10201800052B38D0214B1A6F22F001021A671A6F6C
:1020280022F004021A67A368002B3DD000F0C6FD19
:1020380006461A4B1B6F13F0020F46D100F0BEFD87
:10204800801B41F288339842F3D90320C6E000256B
:10205800D6E7144A136843F48073136000F0AEFDAA
:102068000646104B1B6813F4807FCED100F0A6FD06
:10207800801B0228F5D90320B0E0084A136F43F00B
:1020880001031367CFE7054B1A6F42F004021A6782
:102098001A6F42F001021A67C5E700BF0038024014
:1020A800000047420070004000F088FD0646524B91
:1020B8001B6F13F0020F08D000F080FD801B41F267
:1020C80088339842F3D9032088E0EDB9A369002B3F
:1020D80000F08380484A926802F00C02082A51D026
:1020E800022B17D0454B00221A6600F067FD044604
:1020F800414B1B6813F0007F42D000F05FFD001BCE
:102108000228F5D9032069E03B4A136C23F0805379
:102118001364DBE7394B00221A6600F04FFD0546D1
:10212800354B1B6813F0007F06D000F047FD401BBD
:102138000228F5D9032051E0E369226A1343626A51
:1021480043EA8213A26A5208013A43EA0243E26A66
:1021580043EA0263284A5360284B01221A6600F0BA
:102168002DFD0446244B1B6813F0007F06D100F0B8
:1021780025FD001B0228F5D903202FE000202DE0C3
:1021880000202BE0012B2BD01B4B5B6803F4800154
:10219800E269914226D103F03F02216A8A4223D1A3
:1021A800616A47F6C0721A40B2EB811F1ED103F470
:1021B8004031A26A5208013AB1EB024F18D103F03C
:1021C8007063E26AB3EB026F14D1002006E00120CD
:1021D8007047012002E0012000E0002002B070BD3D
:1021E8000120FBE70120F9E70120F7E70120F5E7E7
:1021F8000120F3E70120F1E70038024000004742E0
:1022080008B5314B9B6803F00C03042B57D0082BFF
:1022180057D12D4B5A6802F03F025B6813F4800FC8
:102228002AD0294B5968C1F3881C4FEA4C11B1EBED
:102238000C006EEB0E0E4FEA8E1343EA9063810199
:10224800091A63EB0E03DB0043EA5173C90011EB73
:102258000C0C43F10003590200234FEA4C2041EAD9
:10226800DC51FEF747F8184B5B68C3F301430133B1
:102278005B00B0FBF3F025E0134B5968C1F3881CF1
:102288004FEA4C11B1EB0C006EEB0E0E4FEA8E13B9
:1022980043EA90638101091A63EB0E03DB0043EA0A
:1022A8005173C90011EB0C0C43F100039902002390
:1022B8004FEA8C2041EA9C51FEF71CF8D3E703480B
:1022C80000E0034808BD00BF0038024000127A0051
:1022D8000024F400002800F09B8070B50D460446E9
:1022E8004F4B1B6803F007038B4208D2CBB24C4A12
:1022F8001370136803F007038B4240F08B80236848
:1023080013F0020F17D013F0040F04D0454A936856
:1023180043F4E0539360236813F0080F04D0414A54
:10232800936843F4604393603E4A936823F0F00354
:10233800A1680B439360236813F0010F32D06368E0
:10234800012B21D09A1E012A25D9364A126812F08B
:10235800020F61D033498A6822F0030213438B606D
:1023680000F02CFC06462F4B9B6803F00C036268B8
:10237800B3EB820F16D000F021FC801B41F28833AA
:102388009842F0D9032042E0264A126812F4003F2E
:10239800E0D101203BE0234A126812F0007FD9D136
:1023A800012034E01E4B1B6803F00703AB4207D93A
:1023B800EAB21B4B1A701B6803F00703AB422DD11E
:1023C800236813F0040F06D0164A936823F4E053E9
:1023D800E1680B439360236813F0080F07D0114A94
:1023E800936823F46043216943EAC1039360FFF7CC
:1023F80007FF0C4B9B68C3F303130B4AD35CD8400D
:102408000A4B18600A4B186800F08CFB002070BD5E
:10241800012070470120FAE70120F8E70120F6E7DC
:10242800003C024000380240C03A00080C0000207E
:1024380008000020014B1868704700BF0C000020FE
:1024480008B5FFF7F7FF044B9B68C3F38223034AE1
:10245800D35CD84008BD00BF00380240D03A00081D
:1024680008B5FFF7E7FF044B9B68C3F34233034A01
:10247800D35CD84008BD00BF00380240D03A0008FD
:1024880038B500F09BFB0446464A136843F0010345
:102498001360444B1B6813F0020F06D100F08EFB4B
:1024A800001B0228F5D9032038BD3E4D2B6843F0A8
:1024B80080032B6000F082FB04460023AB60394B9D
:1024C8009B6813F00C0F08D000F078FB001B41F25A
:1024D80088339842F3D90320E6E700F06FFB0446FF
:1024E800304A136823F4502313602E4B1B6813F4EF
:1024F800003F06D000F062FB001B6428F5D90320DA
:10250800D2E700F05BFB0446264A136823F0807389
:102518001360244B1B6813F0007F06D000F04EFBBD
:10252800001B0228F5D90320BEE700F047FB04464C
:102538001C4A136823F0806313601A4B1B6813F05E
:10254800006F06D000F03AFB001B0228F5D90320E3
:10255800AAE7144B144A5A60144AC3F88420DA686C
:1025680022F4F852DA60DA6822F40052DA60DA68A3
:1025780042F41F02DA60DA6842F40012DA605A6F35
:1025880022F001025A675A6F42F080725A67084B6C
:10259800084A1A60084B186800F0C4FA002883D06B
:1025A800012081E70038024010300004003000208C
:1025B8000C0000200024F4000800002010B40A4990
:1025C8000C6924F440740C610C6944F440740C6187
:1025D8000C6944F001040C610260BFF36F8F436023
:1025E8005DF8044B704700BF003C0240074B1A6976
:1025F80022F440721A611A6942F400721A611A6967
:1026080042F001021A610160704700BF003C0240BD
:10261800074B1A6922F440721A611A6942F48072EF
:102628001A611A6942F001021A610180704700BFFD
:10263800003C0240064B1A6922F440721A611A697A
:102648001A611A6942F001021A610170704700BFED
:10265800003C0240204BDB6813F0100F07D01F4AE4
:10266800D36943F01003D3611B4B1022DA601A4B75
:10267800DB6813F0200F07D0184AD36943F008032A
:10268800D361154B2022DA60134BDB6813F0400F3F
:1026980007D0124AD36943F00403D3610E4B40229A
:1026A800DA600D4BDB6813F0800F07D00B4AD36953
:1026B80043F00203D361084B8022DA60064BDB68E3
:1026C80013F0020F07D0054AD36943F02003D36102
:1026D800014B0222DA607047003C0240B00500203E
:1026E800094B1B69002B01DB00207047064B074A8A
:1026F8005A6002F188325A601B69002B01DB002006
:1027080070470120704700BF003C02402301674525
:10271800034A136943F0004313610020704700BF68
:10272800003C024038B50446144B0022DA6100F040
:1027380045FA0546124BDB6813F4803F0AD0B4F122
:10274800FF3FF7D024B100F039FA401BA042F1D97D
:1027580003200DE00A4BDB6813F0010F02D0084B91
:102768000122DA60064BDB6813F0F20F01D100207A
:1027780038BDFFF76FFF0120FAE700BFB005002062
:10278800003C0240F8B516461B4A127E012A30D09A
:1027980004460D461F46184B01221A764CF250305B
:1027A800FFF7C0FF90B9ACB1012C18D0022C1BD098
:1027B80032463B462846FFF701FF4CF25030FFF700
:1027C800B1FF0E4A136923F0010313610A4B00227B
:1027D8001A76F8BDF1B22846FFF72CFFEDE7B1B243
:1027E8002846FFF715FFE8E731462846FFF7FEFEC3
:1027F800E3E70220EDE700BFB0050020003C0240FF
:1028080049B1012921D0022902D04FF4407C04E0CB
:102818004FF4007C01E04FF0000C0D4B196921F4D6
:10282800407119611A6942EA0C021A611A6922F0A8
:10283800F8021A611A6942EAC00040F00200186101
:102848001A6942F480321A6170474FF4807CE4E7D9
:10285800003C024000230F2B00F2E48070B582B0E8
:1028680060E085685E000324B44025EA0405CC686E
:10287800B4402C438460456825EA02054C68C4F3DB
:1028880000129A402A4342605AE0DC08083450F8A3
:10289800246003F0070295000F22AA4026EA020EE0
:1028A8000A69AA4042EA0E0240F824205CE00722A6
:1028B80000E0002202FA0EF22A4302345A4D45F88B
:1028C80024205A4A94686FEA0C0224EA0C054E68E0
:1028D80016F4801F01D04CEA0405544CA560E46846
:1028E80002EA04054E6816F4001F01D04CEA0405FC
:1028F8004E4CE560646802EA04054E6816F4003F31
:1029080001D04CEA0405494C6560246822404D68B2
:1029180015F4803F01D04CEA0402444C2260013394
:102928000F2B7DD801229A400C6804EA020C32EA87
:102938000404F4D14C6804F00304013C012C90D940
:102948004A6802F00302032A09D0C4685D00032222
:10295800AA4024EA02048A68AA402243C2604A685C
:1029680002F00302022A90D004684FEA430E0322C1
:1029780002FA0EF224EA02044A6802F0030202FA9A
:102988000EF2224302604A6812F4403FC7D0002288
:102998000192274A546C44F480445464526C02F403
:1029A80080420192019A9C08A51C1F4A52F82550A2
:1029B80003F003024FEA820E0F2202FA0EF225EA12
:1029C80002051C4A90423FF474AF02F580629042BF
:1029D8001AD002F58062904218D002F580629042C7
:1029E80016D002F58062904214D002F580629042BF
:1029F80012D002F58062904210D002F580629042B7
:102A08003FF455AF082255E7012253E7022251E768
:102A180003224FE704224DE705224BE7062249E748
:102A280002B070BD704700BF00380140003C014053
:102A38000038024000000240074AD36823F4E063EC
:102A48001B041B0C000200F4E060034343F0BF6367
:102A580043F40033D360704700ED00E000B5194B34
:102A6800DB68C3F30223C3F1070CBCF1040F28BFD2
:102A78004FF0040C03F1040EBEF1060F18D9033B06
:102A88004FF0FF3E0EFA0CFC21EA0C0199400EFAB9
:102A980003F322EA0303194300280BDB0901C9B237
:102AA80000F1604000F5614080F800135DF804FB18
:102AB8000023E5E700F00F000901C9B2024B1954E1
:102AC800F4E700BF00ED00E014ED00E00138B0F1DC
:102AD800807F0BD24FF0E0235861054AF02182F83D
:102AE80023100020986107221A617047012070475F
:102AF80000ED00E07047000010B5094B4FF0FF32C1
:102B08001A6200241C625A625C621A611C615A6172
:102B18005C619A619C61FFF7EDFF204610BD00BF24
:102B28000038024010B504460E4B18784FF47A73FB
:102B3800B3FBF0F30C4A1068B0FBF3F0FFF7C6FFE5
:102B480068B90F2C01D901200AE0002221464FF074
:102B5800FF30FFF783FF054B1C60002000E00120D9
:102B680010BD00BF070000200C0000200800002056
:102B780008B50B4B1A6842F400721A601A6842F4DE
:102B880080621A601A6842F480721A600320FFF7A4
:102B980053FF0F20FFF7C6FFFDF7F8FD002008BD23
:102BA800003C0240034A1168034B1B780B44136036
:102BB800704700BFD005002007000020014B1868AF
:102BC800704700BFD005002038B50446FFF7F6FF70
:102BD8000546B4F1FF3F02D0044B1B781C44FFF7B5
:102BE800EDFF401BA042FAD338BD00BF070000200C
:102BF80038B504460268136923F44053C1680B438F
:102C0800136183680269134342691343C2691A4313
:102C18000168CB6823F4164323F00C031343CB60FD
:102C28000268536923F4407381690B435361036855
:102C3800314A934206D002F58062934202D0FFF7F0
:102C4800FFFB01E0FFF70CFCE369B3F5004F29D067
:102C58000021031849411B1841F10001C90041EA4C
:102C68005371DB00181863684FEA83024FEA9373C5
:102C780041F10001FDF73EFB204DA5FB0032510953
:102C8800642303FB11031B013233A5FB03235B09F8
:102C980003F0F00202EB011203F00F032168134462
:102CA8008B6038BD0023021843EB0301121841F171
:102CB8000001C90041EA5271D200101841F1000127
:102CC800626892185B41FDF715FB0C4DA5FB0032BD
:102CD8005109642303FB1103DB003233A5FB0323F3
:102CE8005B095A0002F4F87202EB011203F00703C1
:102CF800216813448B60D4E7001001401F85EB5115
:102D08002DE9F84305460F4616469946DDF820801A
:102D18002C68246837EA04030CBF4FF0010C4FF00D
:102D2800000CB4452DD1B8F1FF3FF1D0B8F1000F38
:102D380005D0FFF743FFA0EB09004045E8D92A6812
:102D480002F10C0353E8003F23F4D0730C3242E83D
:102D580000310029F3D12A6802F1140353E8003F37
:102D680023F00103143242E800310029F3D1202373
:102D780085F83D3085F83E30002385F83C30032047
:102D880000E00020BDE8F88358B310B5044690F879
:102D98003D300BB3242384F83D302268D36823F4F4
:102DA8000053D3602046FFF723FF2268136923F4FA
:102DB800904313612268536923F02A035361226800
:102DC800D36843F40053D36000202064202384F8A0
:102DD8003D3084F83E3010BD80F83C30FDF7F2FC01
:102DE800D8E7012070472DE9F04182B01E4690F8DF
:102DF8003D30DBB2202B54D104460D4690460029C5
:102E080053D0002A53D090F83C30012B51D00123E5
:102E180080F83C3000230364212380F83D30FFF71D
:102E2800CDFE0746A4F82480A4F82680A368B3F54D
:102E3800805F05D04FF00008002384F83C3012E092
:102E4800236913B14FF00008F6E7A8460025F3E719
:102E580038F8023B2268C3F308035360E28C92B24D
:102E6800013A92B2E284E38C9BB273B100963B467E
:102E7800002280212046FFF743FFE0B9002DE7D06C
:102E880015F8012B23685A60E8E700963B460022B4
:102E980040212046FFF734FF78B9202384F83D30DD
:102EA80000E0022002B0BDE8F0810120FAE701202D
:102EB800F8E70220F6E70320F4E70320F2E72DE91C
:102EC800F04182B01E4690F83E30DBB2202B5CD138
:102ED80004460D46904600295BD0002A5BD090F846
:102EE8003C30012B59D0012380F83C300023036487
:102EF800222280F83E200363FFF760FE0746A4F80D
:102F08002C80A4F82E80A368B3F5805F05D04FF01D
:102F18000008002384F83C3017E0236913B14FF010
:102F28000008F6E7A8460025F3E723685B68C3F3C3
:102F3800080328F8023B03E023685B682B7001351F
:102F4800E28D92B2013A92B2E285E38D9BB2BBB1B7
:102F580000963B46002220212046FFF7D1FEF0B91B
:102F6800002DE2D0A368B3F5805FE5D013B92369DB
:102F7800002BE1D023685B6803F07F032B70DEE74A
:102F8800202384F83E30002000E0022002B0BDE893
:102F9800F0810120FAE70120F8E70220F6E7032094
:102FA800F4E70000034AD2F8883043F47003C2F80B
:102FB8008830704700ED00E008B5D0F8B83213B19A
:102FC8001B68984708BD0020FCE708B5D0F8B83260
:102FD8005B68984700B908BD0320FCE738B504468C
:102FE80000F2AA25284600F094F90123C4F8943287
:102FF800B4F8B032C4F8983294F8AA1201F01F035A
:10300800012B0DD0022B10D02BB101F080012046EE
:10301800FDF766FD03E02946204600F04FFB38BD6A
:103028002946204600F085FBF9E72946204600F0AE
:10303800C2FBF4E7F8B50446012380F89C3200236C
:10304800C0F894324360C0F8A43280F8A032D0F8B7
:10305800B832DBB15B68DBB1002198470746C8B9D5
:103068004023002211462046FDF72FFD0126A4F833
:1030780064614025C4F860512B4600228021204617
:10308800FDF723FDA68425623846F8BD0027E7E74B
:103098000027E5E70327E3E701740020704790F86D
:1030A8009C32DBB280F89D32042380F89C320020E9
:1030B800704790F89C32DBB2042B01D00020704797
:1030C80090F89D32DBB280F89C32F7E708B590F8AB
:1030D8009C32DBB2032B01D0002008BDD0F8B832F7
:1030E800002BF9D0DB69002BF6D09847F4E708B538
:1030F800D0F8D432AE3350F823205AB190F89C322D
:10310800DBB2032B01D0002008BD136A23B1984716
:103118000020F9E70320F7E70020F5E708B5D0F825
:10312800D432AE3350F823205AB190F89C32DBB237
:10313800032B01D0002008BD536A23B19847002013
:10314800F9E70320F7E70020F5E70020704708B506
:10315800012380F89C32D0F8B83223B15B6801793A
:10316800984710B908BD0020FCE70320FAE70020C3
:1031780070470020704738B504460D46002943D1F2
:103188001346D0F89422032A01D0084638BDD0F857
:103198005C11D0F86021914212D890F8AA3203F05D
:1031A8001F03012B17D0022B1CD0284694F89C3201
:1031B800DBB2032B1BD0204600F032FC2846E5E7A3
:1031C800891AC0F85C118A4228BF0A46194600F0DD
:1031D8001FFC2846DAE790F8AE12FFF7C8FF002870
:1031E800E9D1E3E790F8AE12FFF7C3FFF7E700F184
:1031F800AE0354F823301A69002ADCD0C4F8D4028C
:103208001B6920469847D6E701F07F01FFF7B1FF19
:1032180090B994F89C32DBB2032BB7D100F1AE031E
:1032280054F823309A69002AB0D0C4F8D4029B69B4
:10323800294620469847A9E70020A7E738B504465D
:103248000D4600294BD11346D0F89422022A07D004
:1032580094F8A00218B1002384F8A032284638BD9B
:10326800C269016A8A420ED88A4218D094F89C3200
:10327800DBB2032B27D080212046FDF731FC204606
:1032880000F0D9FBE4E7521AC261194600F0B8FB16
:1032980000231A4619462046FDF742FCD8E7836901
:1032A8009942E3D8D0F898229342DFD200221146FF
:1032B80000F0A6FB0021C4F898120B460A462046E7
:1032C800FDF72EFCC4E7D4F8B832DA68002AD2D069
:1032D8000022C4F8D422DB6820469847CBE741F0A7
:1032E8008001FFF746FF90B994F89C32DBB2032BBC
:1032F800B5D100F1AE0354F823305A69002AAED094
:10330800C4F8D4025B69294620469847A7E70020FD
:10331800A5E70B7803704B7843708B78CA7843EA3B
:10332800022343800B794A7943EA022383808B790D
:10333800CA7943EA0223C380704710B50446802146
:10334800FDF7CEFB00212046FDF7CAFB10BD30B5C6
:1033580083B004460D460023ADF806304A88130AA8
:10336800013B062B00F2AB80DFE803F0041F33A912
:10337800A98D9A00D0F8B4321B680DF10601007CC3
:103388009847EA88002A00F0A380BDF80630002B91
:1033980000F099809A4228BF1A46ADF806200146E7
:1033A800204600F020FB03B030BD037C43B9D0F8C1
:1033B800B8329B6A0DF10600984702234370E0E794
:1033C800D0F8B832DB6A0DF1060098470223437043
:1033D800D7E7D2B2052A52D8DFE802F003101D2A37
:1033E8003744D0F8B4325B6823B10DF10601007C94
:1033F8009847C6E72946FFF7A0FFD4E7D0F8B432CC
:103408009B6823B10DF10601007C9847B9E729466E
:10341800FFF793FFC7E7D0F8B432DB6823B10DF1AB
:103428000601007C9847ACE72946FFF786FFBAE714
:10343800D0F8B4321B6923B10DF10601007C98471E
:103448009FE72946FFF779FFADE7D0F8B4325B690B
:1034580023B10DF10601007C984792E72946FFF752
:103468006CFFA0E7D0F8B4329B6923B10DF10601D7
:10347800007C984785E72946FFF75FFF93E72946D1
:10348800FFF75BFF8FE7037C33B9D0F8B8325B6B8B
:103498000DF10600984774E72946FFF74EFF82E7CB
:1034A800037C43B9D0F8B8321B6B0DF1060098477E
:1034B8000723437065E72946FFF73FFF73E729466F
:1034C800FFF73BFF6FE729462046FFF736FF6AE71D
:1034D800204600F0A5FA66E738B504468B88FBB9A4
:1034E800CB88EBB94B887F2B1AD803F07F0590F86F
:1034F8009C32DBB2032B0CD080F89E522946FDF794
:10350800FFFA204600F08CFA35B1022384F89C3289
:1035180009E0FFF712FF06E0012384F89C3202E07D
:103528002046FFF70AFF38BD70B504460E468D7871
:103538002F4B1D70012D10D890F89C32DBB2022B56
:103548000FD0032B26D0FFF7F8FE294B1978204619
:10355800FFF73BFD0325284670BDFFF7EEFE032568
:10356800F9E7A5B145602946FFF726FD054638B1BC
:1035780031462046FFF7E1FE022384F89C32EAE751
:10358800204600F04DFA032384F89C32E3E700F06C
:1035980047FAE0E7CDB141688D4225D0C9B2FFF7BF
:1035A80014FD134B197861602046FFF705FD0546A9
:1035B800B0B131462046FFF7C0FE21792046FFF71B
:1035C80004FD022384F89C32C5E7022380F89C326C
:1035D80045602946FFF7F9FC204600F021FABAE7D2
:1035E800204600F01DFAB6E700F01AFA0025B2E707
:1035F800D405002008B5CB88012B0BD190F89C325C
:10360800DBB2022B09D9032B09D10122011D00F0DD
:10361800EAF901E0FFF791FE08BD5BB213B9FFF7C5
:103628008CFEF9E70146002341F8083F012200F02B
:10363800DAF9F1E708B590F89C32013B022B12D871
:10364800CB88022B0CD10123C360D0F8A4320BB174
:103658000323C360022200F10C0100F0C4F908BD85
:10366800FFF76BFEFBE7FFF768FEF8E708B54B8846
:10367800012B04D0022B07D0FFF75FFE08BDC0F86E
:10368800A43200F0CDF9F9E78B881B0A80F8A03244
:1036980000F0C6F9F2E708B590F89C32013B022B1E
:1036A80009D84B88012B00D008BD0023C0F8A432EC
:1036B80000F0B6F9F8E7FFF740FEF5E738B50C7803
:1036C80004F06004202C06D0402C04D06CB1FFF725
:1036D80034FE002407E0D0F8D432AE3350F823305B
:1036E8009B6898470446204638BD4D78092D1DD85B
:1036F800DFE805F012191C161C08051C0F0BFFF754
:1037080026FEF0E7FFF7E8FEEDE7FFF70DFF0446BA
:10371800E9E7FFF76FFFE6E7FFF78CFF2C46E2E7E4
:10372800FFF7A4FFDFE7FFF7B6FFDCE7FFF705FECB
:10373800D9E770B505460C460B7803F06003202BDB
:1037480007D0402B05D023B1FFF7F7FD0026304600
:1037580070BD95F89C32013B022B26D821790129AE
:1037680005D921462846FFF7E8FD0026EFE7284659
:10377800FFF7FDFC68B900F1AE0255F82220916808
:1037880089B1C5F8D4029368214628469847064669
:1037980000E00326E388002BD9D1002ED7D1284694
:1037A80000F03EF9D3E70326F4E721462846FFF761
:1037B800C4FD0026CBE72DE9F04106460D468B886F
:1037C800DFB20C7804F06004202C08D0402C06D01E
:1037D800DCB1FFF7B2FD00242046BDE8F081394690
:1037E8003046FFF7C6FC0446002840F0F880C6F8CB
:1037F800D40200F1AE0356F823309B68002BEBD0BF
:103808002946304698470446E6E791F80180B8F122
:10381800010F31D0B8F1030F05D0B8F1000F67D010
:10382800FFF78BFDD8E790F89C32DBB2022B04D06F
:10383800032B12D0FFF781FDCEE70FB1802F04D103
:1038480029463046FFF779FDC6E73946FDF748F9BE
:1038580080213046FDF744F9BEE74B8823B91FB1F4
:10386800802F01D0CB881BB1304600F0D9F8B3E7E0
:103878003946FDF735F9F7E790F89C32DBB2022BB1
:1038880004D0032B12D0FFF758FDA5E70FB1802F06
:1038980004D129463046FFF750FD9DE73946FDF72C
:1038A8001FF980213046FDF71BF995E74B88002B5F
:1038B80092D117F07F0F17D1304600F0B1F8394692
:1038C8003046FFF756FC002886D1C6F8D40200F12E
:1038D800AE0256F822209268002A00F0828029461B
:1038E80030469047044677E73946FDF701F9E3E7A4
:1038F80090F89C22D2B2022A05D0032A27D0FFF7DB
:103908001CFD444668E70FB1802F13D113F0800FD8
:1039180014D107F07F0707EB8707B90001F5A871F5
:103928003144043100230B600222304600F05BF87A
:10393800444651E7FFF701FD44464DE707F07F078E
:1039480007EB8707B900103131440431EAE75BB26D
:10395800002B1FDB07F00F0202EB820200EB820252
:10396800B2F864211AB3002B25DB07F07F0303EBC1
:1039780083039C0004F5A874344404340FB1802FE9
:1039880022D10023236002222146304600F02BF882
:10399800444621E707F00F0202EB820200EB8202A5
:1039A800928C002ADFD1FFF7C8FC444614E7FFF7E2
:1039B800C4FC444610E707F07F0303EB83039C0035
:1039C800103434440434D9E739463046FDF75CF8FE
:1039D80010B101232360D6E700232360D3E7002436
:1039E800FAE60446F8E608B513460222C0F894221F
:1039F8008361C3610A460021FDF78AF8002008BDEB
:103A080008B513460A460021FDF782F8002008BDD4
:103A180008B513460A460021FDF782F8002008BDC4
:103A280008B50422C0F8942200231A461946FDF767
:103A38006FF8002008BD08B50522C0F894220023BD
:103A48001A461946FDF76CF8002008BDDFF834D097
:103A58000D480E490E4A002302E0D458C4500433DE
:103A6800C4188C42F9D30B4A0B4C002301E01360B5
:103A78000432A242FBD3FFF795FAFCF7C5FBFCF72B
:103A880057FE7047000002200000002010000020B0
:103A9800E83A000810000020D8050020FEE70000E2
:103AA800F8B500BFF8BC08BC9E467047F8B500BF23
:083AB800F8BC08BC9E467047F3
:103AC00000000000000000000102030406070809CE
:083AD0000000000001020304E4
:083AD80054C8FF7F010000004B
:043AE000F1010008E8
:043AE400C90100080C
:103AE8000202040002010301100000000024F40097
:0400000508003A5560
:00000001FF
