S31508010000284200209D01010849210108191E0108FD
S3150801001045210108A90201089532010800000000DE
S315080100200000000000000000000000002D3001085B
S31508010030AD02010800000000B12101088530010860
S31508010040B7010108B7010108B7010108B70101089D
S31508010050B7010108B7010108B7010108B70101088D
S31508010060B7010108B7010108B7010108B70101087D
S31508010070B7010108B7010108B7010108B70101086D
S31508010080B7010108B7010108B7010108B70101085D
S31508010090B7010108B7010108B7010108B70101084D
S315080100A0B7010108B7010108B7010108B70101083D
S315080100B0B7010108B7010108B7010108B70101082D
S315080100C0B7010108B7010108B7010108B70101081D
S315080100D0B7010108B7010108B7010108B70101080D
S315080100E0B7010108B7010108B7010108B7010108FD
S315080100F0B7010108B7010108B7010108B7010108ED
S31508010100B7010108B7010108B7010108B7010108DC
S31508010110B7010108B7010108B7010108B7010108CC
S31508010120B7010108B7010108B7010108B7010108BC
S31508010130B7010108B7010108B7010108B7010108AC
S31508010140B7010108B7010108B7010108B70101089C
S31508010150B7010108B7010108B7010108B70101088C
S31508010160B7010108B7010108B7010108B70101087C
S31508010170B7010108B7010108B7010108000000002D
S31508010180B7010108B7010108DFF80CD000F018F82B
S3150801019000480047213301082842002006488047C5
S315080101A006480047FEE7FEE7FEE7FEE7FEE7FEE74D
S315080101B0FEE7FEE7FEE7FEE7493101088901010886
S315080101C0064C074D06E0E06840F0010394E8070095
S315080101D098471034AC42F6D3FFF7DAFF8C3301089F
S315080101E0AC3301082DE9F05F0546002092469B468F
S315080101F088460646814640241BE02846414647462E
S31508010200224600F041F853465A46C01A914110D386
S3150801021011461846224600F028F82D1A67EB010800
S315080102204F4622460120002100F01FF817EB00096E
S315080102304E41201EA4F10104DFDC484631462A4618
S315080102404346BDE8F09FD2B201E000F8012B491EF2
S31508010250FBD270470022F6E710B513460A46044654
S315080102601946FFF7F0FF204610BD202A04DB203A85
S3150801027000FA02F1002070479140C2F1200320FAEA
S3150801028003F3194390407047202A04DB203A21FAE8
S3150801029002F00021704721FA02F3D040C2F1200290
S315080102A09140084319467047FFE7FEE7704700008B
S315080102B081B0EFF3108072B60090FFE7FEE7000009
S315080102C080B584B00220039000F0FAF902900398F1
S315080102D001900198013020B1FFE7019801300190A2
S315080102E0FFE7FFE700F0ECF90299401A0199884205
S315080102F001D2FFE7F6E704B080BD000087B006909B
S31508010300059100200390029001900490FFE704985C
S315080103100F2800F2BC81FFE70498012101FA00F0D9
S31508010320039005980068039908400290029803997A
S31508010330884240F0A781FFE70598406800F003006E
S31508010340012807D0FFE70598406800F00300022856
S315080103502FD1FFE706988068019004984000032191
S3150801036001FA00F0019921EA000001900598C06898
S315080103700499490088400199084301900198069912
S3150801038088600698406801900498012101FA00F0F6
S31508010390019921EA0000019005984068C0F3001010
S315080103A00499884001990843019001980699486083
S315080103B0FFE70598406800F00300032818D0FFE717
S315080103C00698C068019004984000032101FA00F0DC
S315080103D0019921EA0000019005988068049949006D
S315080103E0884001990843019001980699C860FFE77A
S315080103F00598406800F00300022826D1FFE7069811
S3150801040004996FF0030202EA51010844006A019057
S31508010410049800F0070080000F2101FA00F0019905
S3150801042021EA0000019005980069049901F0070185
S315080104308900884001990843019001980699049B0F
S3150801044002EA530211440862FFE706980068019020
S3150801045004984000032101FA00F0019921EA0000FD
S3150801046001900598406800F0030004994900884006
S3150801047001990843019001980699086005988079C1
S315080104808007002800F0FD80FFE7FFE700200090C5
S3150801049043F64400C4F20200016841F48041016058
S315080104A0006800F4804000900098FFE7049820F067
S315080104B0030043F60801C4F201014058019004986B
S315080104C000F0030080000F2101FA00F0019921EAEA
S315080104D00000019006980021C4F20201884202D167
S315080104E0FFE700204BE0069840F20041C4F2020102
S315080104F0884202D1FFE7012040E0069840F6000154
S31508010500C4F20201884202D1FFE7022035E00698CB
S3150801051040F60041C4F20201884202D1FFE70320F6
S315080105202AE0069841F20001C4F20201884202D18A
S31508010530FFE704201FE0069841F20041C4F20201D8
S31508010540884202D1FFE7052014E0069841F600012A
S31508010550C4F20201884202D1FFE7062009E00699A2
S3150801056041F60042C4F202020820914208BF072060
S31508010570FFE7FFE7FFE7FFE7FFE7FFE7FFE7C0B2B0
S31508010580049901F003018900884001990843019003
S315080105900198049921F0030143F60802C4F2010205
S315080105A0885043F60840C4F2010000680190029899
S315080105B0019921EA0000019005988079C006002872
S315080105C005D5FFE70298019908430190FFE70198CD
S315080105D043F60841C4F20101086043F60C40C4F22F
S315080105E00100006801900298019921EA0000019032
S315080105F0059880798006002805D5FFE702980199B4
S3150801060008430190FFE7019843F60C41C4F2010142
S31508010610086043F60440C4F201000068019002989C
S31508010620019921EA00000190059880798007002840
S3150801063005D5FFE70298019908430190FFE701985C
S3150801064043F60441C4F20101086043F60040C4F2CE
S315080106500100006801900298019921EA00000190C1
S3150801066005988079C00728B1FFE7029801990843E0
S315080106700190FFE7019843F60041C4F201010860C1
S31508010680FFE7FFE7FFE70498013004903FE607B06C
S315080106907047000083B00290ADF806100020009064
S315080106A0009828B1FFE7BDF806000299886105E0C0
S315080106B0BDF80600000402998861FFE703B0704798
S315080106C040F22420C2F200000068704780B584B069
S315080106D040F20800C2F200000290029818B9FFE73A
S315080106E00120039023E10298006C38B9FFE70298CC
S315080106F00021C163029800F01DF9FFE70298242141
S31508010700016402980068016821F0010101600298FC
S315080107100068016841F400410160029800680168B7
S3150801072021F40041016000F059FB009002984068ED
S3150801073048F2A061C0F2010188420AD8FFE7009990
S3150801074048F28042C0F21E020020914238BF0120C1
S3150801075009E0009940F60012C0F23D0200209142DC
S3150801076038BF0120FFE7012803D1FFE701200390E5
S31508010770DDE000984DF68361C4F21B31A0FB01014F
S31508010780880C019002980068406820F03F000199A2
S31508010790084302990968486002980068006A20F0CF
S315080107A03F000299496848F2A062C0F201029142EB
S315080107B003D8FFE7019901310DE001994FF49672CB
S315080107C0514344F6D352C1F26202A1FB021201213E
S315080107D001EB9211FFE7084302990968086202983A
S315080107E00068C0694CF6FF7188430299496848F266
S315080107F0A062C0F2010291421BD8FFE700990139B4
S31508010800029A52685200B1FBF2F101316FF31F31BE
S31508010810032902D8FFE704210AE000990139029A5F
S3150801082052685200B1FBF2F101316FF31F31FFE754
S3150801083042E00299896861B9FFE700990139029A8C
S31508010840526802EB4202B1FBF2F101316FF31F313B
S315080108500CE000990139029A526819235A43B1FBEF
S31508010860F2F10131042262F31F31FFE7090511B9DB
S31508010870FFE701211FE00299896861B9FFE700993D
S315080108800139029A526802EB4202B1FBF2F10131D7
S315080108906FF31F310CE000990139029A5268192346
S315080108A05A43B1FBF2F10131042262F31F31FFE72A
S315080108B041F40041FFE7FFE7084302990968C86167
S315080108C002980068006820F0C00002990A68CB699E
S315080108D0096A19430843106002980068806848F25B
S315080108E0FF31884302990A68CB68096919430843A5
S315080108F0906002980068C06820F0FF0002990A68B3
S315080109004B69896919430843D060029800680168F0
S3150801091041F00101016002980021816402982022B8
S31508010920026402980163029841640391FFE7039800
S3150801093004B080BD80B588B0079000200690059068
S315080109400490039002900798006845F20041C4F2AA
S315080109500001884234D1FFE7FFE70020019043F602
S315080109603000C4F20200016841F00201016000682A
S3150801097000F0020001900198FFE7C02002901220C2
S31508010980039000200490032005900420069040F26D
S315080109900040C4F2020002A9FFF7B0FCFFE70020FD
S315080109A0009043F64000C4F20200016841F40011C8
S315080109B00160006800F4001000900098FFE7FFE767
S315080109C008B080BD80B584B040F26400C2F2000070
S315080109D00290029818B9FFE70120039035E00298C2
S315080109E000684CF6CC4101600298006845F2555101
S315080109F00160029801684068486002980168806849
S31508010A008860FFF75DFE0190FFE702980068C068FD
S31508010A10800790B1FFE7FFF753FE0199401A322884
S31508010A200AD3FFE702980068C068800718B1FFE794
S31508010A300320039009E0FFE7E7E7029800684AF612
S31508010A40AA21016000200390FFE7039804B080BD46
S31508010A5040F22420C2F200000168013101607047AA
S31508010A6080B543F60040C4F20200016841F4007102
S31508010A700160016841F480610160016841F4807197
S31508010A80016000F071F80F2000F004F800F02EF86C
S31508010A9080BD000080B582B0009040F20400C2F229
S31508010AA00000006844F6D351C1F26201A0FB0101BE
S31508010AB0880901F061F818B1FFE70120019013E0F8
S31508010AC000980F280AD8FFE7009800F035F8009833
S31508010AD040F20001C2F20001086002E00120019023
S31508010AE002E000200190FFE702B080BD82B0FFE777
S31508010AF00020019043F64400C4F20200016841F463
S31508010B0080410160006800F4804001900198FFE788
S31508010B10FFE70020009043F64000C4F20200016896
S31508010B2041F080510160006800F080500090009803
S31508010B30FFE702B07047000010B584B04FF0FF31EF
S31508010B400391029000200190009002F0A5FB00900D
S31508010B50039C00980299019A01F0F8FA0146204689
S31508010B6002F0A2FB04B010BD80B582B0032001904B
S31508010B70019802F0B7FB02B080BD000080B584B0D1
S31508010B80029002200190029818B9FFE7012003900C
S31508010B901AE1019843F60041C4F20201096801F01D
S31508010BA00701884211D9FFE7019843F60041C4F2CB
S31508010BB002010870086800F007000199884203D00D
S31508010BC0FFE701200390FFE0FFE70298007880071E
S31508010BD000282AD5FFE7029800784007002809D59A
S31508010BE0FFE743F60800C4F20200016841F4E05148
S31508010BF00160FFE7029800780007002809D5FFE79A
S31508010C0043F60800C4F20200016841F4604101603C
S31508010C10FFE743F60800C4F20200016821F0F0017B
S31508010C20029A926811430160FFE702980078C007AB
S31508010C3000286AD0FFE702984068012810D1FFE72B
S31508010C4043F60000C4F20200006800F400300021F7
S31508010C50B1EB504F03D1FFE701200390B4E02AE03E
S31508010C6002984068022805D0FFE7029840680328E1
S31508010C7010D1FFE743F60000C4F20200006800F055
S31508010C8000700021B1EB506F03D1FFE701200390FB
S31508010C909AE00FE043F60000C4F20200006800F093
S31508010CA002000021B1EB500F03D1FFE701200390A9
S31508010CB08AE0FFE7FFE743F60800C4F2020001688D
S31508010CC021F00301029A526811430160FFF7F8FC0B
S31508010CD00090FFE743F60800C4F20200006800F03E
S31508010CE00C0002994968B0EB810F0DD0FFE7FFF7B9
S31508010CF0E7FC0099401A41F28931884203D3FFE79C
S31508010D000320039060E0E5E7FFE7019843F6004119
S31508010D10C4F20201096801F00701884211D2FFE70E
S31508010D20019843F60041C4F202010870086800F010
S31508010D3007000199884203D0FFE70120039043E0A9
S31508010D40FFE702980078400700280CD5FFE743F62D
S31508010D500800C4F20200016821F4E051029AD2683F
S31508010D6011430160FFE702980078000700280DD5B6
S31508010D70FFE743F60800C4F20200016821F4604166
S31508010D80029A126941EAC2010160FFE700F04AF8D6
S31508010D9043F60801C4F202010968C9B2090943F216
S31508010DA07232C0F60102515CC84040F20401C2F237
S31508010DB00001086040F20000C2F200000068FFF777
S31508010DC069FE00200390FFE7039804B080BD000088
S31508010DD040F20400C2F200000068704780B5FFF7D0
S31508010DE0F7FF43F60801C4F202010968C1F382213B
S31508010DF043F28232C0F60102515CC84080BD000050
S31508010E0080B5FFF7E5FF43F60801C4F20201096858
S31508010E1089B2490B43F28232C0F60102515CC840DD
S31508010E2080BD000080B584B0002003900290019037
S31508010E30009043F60800C4F20200006800F00C00B6
S31508010E4030B1FFE7042809D0FFE708280CD04FE0A6
S31508010E5042F20040C0F2F40000904FE041F2002057
S31508010E60C0F27A00009049E043F60400C4F2020099
S31508010E70016801F03F01039100684002002813D57B
S31508010E80FFE743F60400C4F202000068C0F38810C5
S31508010E9041F20021C0F27A01A0FB0101039A002365
S31508010EA0FFF7A0F9029012E043F60400C4F202002B
S31508010EB00068C0F3881042F20041C0F2F401A0FBB9
S31508010EC00101039A0023FFF78DF90290FFE743F624
S31508010ED00400C4F20200006800F44030022101EB6C
S31508010EE0D030019002980199B0FBF1F0009005E02D
S31508010EF042F20040C0F2F4000090FFE7009804B007
S31508010F0080BD000080B586B00490049818B9FFE743
S31508010F10012005903CE304980078C007002800F0FA
S31508010F20A280FFE743F60800C4F20200006800F059
S31508010F300C00042813D0FFE743F60800C4F20200A8
S31508010F40006800F00C0008281DD1FFE743F60400ED
S31508010F50C4F2020000684002002814D5FFE743F6F0
S31508010F600000C4F20200006800F400300021B1EB71
S31508010F70504F07D0FFE70498406818B9FFE70120EA
S31508010F80059005E36EE0FFE704984068B0F5803FF9
S31508010F9009D1FFE743F60000C4F20200016841F4F3
S31508010FA08031016020E004984068B0F5A02F0DD18A
S31508010FB0FFE743F60000C4F20200016841F480210C
S31508010FC00160016841F4803101600CE043F60000DC
S31508010FD0C4F20200016821F480310160016821F43C
S31508010FE080210160FFE7FFE7FFE704984068E0B169
S31508010FF0FFE7FFF765FB0390FFE743F60000C4F23E
S315080110000200006800F400300021B1EB504F0BD10B
S31508011010FFE7FFF755FB0399401A652803D3FFE756
S3150801102003200590B4E2E8E71BE0FFF749FB0390CC
S31508011030FFE743F60000C4F20200006800F400303E
S315080110400021B1EB504F0BD0FFE7FFF739FB0399AE
S31508011050401A652803D3FFE70320059098E2E8E7DD
S31508011060FFE7FFE7FFE7049800788007002840F1CB
S315080110709380FFE743F60800C4F20200006810F007
S315080110800C0F13D0FFE743F60800C4F2020000680C
S3150801109000F00C0008282BD1FFE743F60400C4F240
S315080110A0020000684002002822D4FFE743F6000048
S315080110B0C4F20200006800F002000021B1EB500FF3
S315080110C008D0FFE70498C068012803D0FFE701208C
S315080110D005905DE243F60000C4F20200016821F0C2
S315080110E0F801049A126941EAC2010160FFE752E078
S315080110F00498C06868B3FFE70020C4F247200121BD
S315080111000160FFF7DDFA0390FFE743F60000C4F23A
S315080111100200006800F002000021B1EB500F0BD16C
S31508011120FFE7FFF7CDFA0399401A032803D3FFE730
S31508011130032005902CE2E8E743F60000C4F202001A
S31508011140016821F0F801049A126941EAC2010160B5
S3150801115020E00020C4F2472000210160FFF7B0FA21
S315080111600390FFE743F60000C4F20200006800F0AE
S3150801117002000021B1EB500F0BD0FFE7FFF7A0FAF1
S315080111800399401A032803D3FFE703200590FFE1DB
S31508011190E8E7FFE7FFE7FFE704980078000700287C
S315080111A049D5FFE70498406910B3FFE740F6806028
S315080111B0C4F2472001210160FFF782FA0390FFE795
S315080111C043F67400C4F20200006800F00200002130
S315080111D0B1EB500F0BD1FFE7FFF772FA0399401AEB
S315080111E0032803D3FFE703200590D1E1E8E721E0CF
S315080111F040F68060C4F2472000210160FFF760FADB
S315080112000390FFE743F67400C4F20200006800F099
S3150801121002000021B1EB500F0BD0FFE7FFF750FAA0
S315080112200399401A032803D3FFE703200590AFE18A
S31508011230E8E7FFE7FFE7049800784007002840F150
S31508011240C880FFE70020019043F64000C4F202007F
S315080112500068C000002814D4FFE7FFE700200090CB
S3150801126043F64000C4F20200016841F08051016072
S31508011270006800F0805000900098FFE70120019077
S31508011280FFE747F20000C4F200000068C005002825
S3150801129021D4FFE747F20000C4F20000016841F4D7
S315080112A080710160FFF70CFA0390FFE747F200002F
S315080112B0C4F200000068C00500280BD4FFE7FFF759
S315080112C0FFF90399401A032803D3FFE70320059082
S315080112D05EE1EBE7FFE7FFE704988068012809D19B
S315080112E0FFE743F67000C4F20200016841F001010C
S315080112F001601FE00498806805280DD1FFE743F6D1
S315080113007000C4F20200016841F00401016001683D
S3150801131041F0010101600CE043F67000C4F20200DD
S31508011320016821F001010160016821F004010160F1
S31508011330FFE7FFE7FFE704988068F0B1FFE7FFF7EB
S31508011340BFF90390FFE743F67000C4F20200006894
S3150801135000F002000021B1EB500F0DD1FFE7FFF7B6
S31508011360AFF90399401A41F28931884203D3FFE75D
S31508011370032005900CE1E6E71DE0FFF7A1F90390CC
S31508011380FFE743F67000C4F20200006800F00200AD
S315080113900021B1EB500F0DD0FFE7FFF791F9039943
S315080113A0401A41F28931884203D3FFE703200590A9
S315080113B0EEE0E6E7FFE70198012809D1FFE743F6E2
S315080113C04000C4F20200016821F080510160FFE784
S315080113D0FFE704988069002800F0D780FFE743F605
S315080113E00800C4F20200006800F00C00082800F0AA
S315080113F08280FFE70498806902285AD1FFE76020B6
S31508011400C4F2472000210160FFF75AF90390FFE76C
S3150801141043F60000C4F20200006800F000700021E3
S31508011420B1EB506F0BD0FFE7FFF74AF90399401A62
S31508011430032803D3FFE703200590A9E0E8E704980A
S31508011440D0F81CC0026A436A816A42EA0C0242EA7F
S315080114508312C9034FF6FF739943A1F580311143EE
S31508011460C06A41EA006043F60401C4F20201086059
S315080114706020C4F2472001210160FFF721F903909A
S31508011480FFE743F60000C4F20200006800F00070AE
S315080114900021B1EB506F0BD1FFE7FFF711F9039963
S315080114A0401A032803D3FFE70320059070E0E8E715
S315080114B020E06020C4F2472000210160FFF700F90F
S315080114C00390FFE743F60000C4F20200006800F04B
S315080114D000700021B1EB506F0BD0FFE7FFF7F0F872
S315080114E00399401A032803D3FFE7032005904FE029
S315080114F0E8E7FFE748E004988069012803D1FFE798
S315080115000120059044E043F60400C4F20200006895
S31508011510029004988069012831D0FFE7029800F407
S3150801152080000499C969884229D1FFE7029800F029
S315080115303F000499096A884221D1FFE7029847F6D4
S31508011540C07108400499496AB0EB811F17D1FFE7BA
S31508011550029800F440300499896AC9034FF6FF726C
S315080115609143A1F58031884209D1FFE7029800F03D
S3150801157070600499C96AB0EB016F03D0FFE70120D7
S31508011580059005E0FFE7FFE7FFE700200590FFE785
S31508011590059806B080BD000010B58EB040F2700007
S315080115A0C2F200000D904FF400600C9000200490E8
S315080115B00D98032141630D98406C032830D0FFE74D
S315080115C00C98B0F5805F06D1FFE70D98816B41F065
S315080115D08051816323E00C98B0F5006F0AD1FFE7CB
S315080115E00D9801F0DBFC059005980D998A6B10435F
S315080115F0886313E00C9850B9FFE70D9801F088FC51
S31508011600059005980D998A6B1043886305E00D9836
S31508011610816B41F000618163FFE7FFE7FFE705E0C2
S315080116200D98816B41F080518163FFE70D98806BBE
S3150801163060B1FFE70D98006840F2FF51C0F2400122
S3150801164081630D9801214163049122E00D98406858
S3150801165006900D98806807900D98C06808900C98B8
S3150801166009900D9840690A900D9880690B900D981C
S3150801167000680699079A089BDDF824C0DDF828E07A
S315080116800B9C0294CDF804E0CDF800C000F0D0FD23
S31508011690FFE70D9800684FF4007100F063FE0590AE
S315080116A0059878B1FFE70D98006840F2FF51C0F23E
S315080116B04001816305980D998A6B1043886301205F
S315080116C00490FFE70D980121416304980EB010BDFF
S315080116D083B0019000910198406E800F00990870BF
S315080116E00198406EC0F38360009948700198406E76
S315080116F0C0F30160009988700198B0F866000099F6
S31508011700C8700198406E000A009908710198406EE8
S31508011710009948710198806E000D0099C88001985A
S31508011720806EC0F30340009908720198B0F868000A
S31508011730C00B009948720198806EC0F380300099F9
S3150801174088720198806EC0F340300099C87201987A
S31508011750806EC0F300300099087300980021417328
S315080117600198406C00284CD1FFE70198816EC06E44
S315080117706FF39F21890041EA9070009908610198E9
S31508011780C06EC0F3C260009908750198C06EC0F3B7
S315080117900260009948750198C06EC0F342500099DD
S315080117A088750198C06EC0F382400099C875019882
S315080117B0C06EC0F3C23000990876009800690130FE
S315080117C0019948650098007E00F007000230012162
S315080117D001FA00F0019A536D584350650098007A52
S315080117E000F00F0001FA00F0019988650198416D32
S315080117F0826D520A5143C16501984FF40071016621
S3150801180033E00198406C01281DD1FFE70198816EEC
S3150801181001F03F01B0F86E0040EA01400099086105
S31508011820009800694FF4806101EB802001994865B1
S315080118300198416DC16501984FF400718165019860
S31508011840816D016610E00198006840F2FF51C0F20F
S31508011850400181630198816B41F080518163019850
S3150801186001214163029172E0FFE70198C06EC0F35E
S315080118708030009948760198C06EC0F3C610009969
S3150801188088760198C06E00F07F000099C8760198A5
S31508011890006FC00F009908770198006FC0F3417077
S315080118A0009948770198006FC0F38260009988779C
S315080118B00198006FC0F383500099C8770198006FAB
S315080118C0C0F34050009981F820000099002081F862
S315080118D021000199096FC1F30041009A82F822108B
S315080118E00199B1F87010C90B009A82F82310019971
S315080118F0096FC1F38031009A82F824100199096FA2
S31508011900C1F34031009A82F825100199096FC1F394
S315080119100031009A82F826100199096FC1F38121D5
S31508011920009A82F827100199096FC1F30121009ADB
S3150801193082F82810019991F870104908009A82F8DE
S3150801194029100099012281F82A200290FFE70298BE
S3150801195003B0704780B582B040F27000C2F2000051
S315080119600090009818B9FFE7012001901FE0009840
S31508011970406B38B9FFE700980021C161009800F073
S315080119808DF8FFE7009803214163009800F012F8EB
S3150801199018B1FFE70120019009E000980021816351
S315080119A0009801630098012242630191FFE70198BB
S315080119B002B080BDB0B58EB00C9000240494059495
S315080119C0069407940894762009900C98006804995F
S315080119D0059A069BDDF81CC0DDF820E0099D0295F5
S315080119E0CDF804E0CDF800C000F022FC0A940A986C
S315080119F018B1FFE701200D904DE048F2A004C4F2AA
S31508011A002524002020600C98006800F03DFC012088
S31508011A102060FEF755FC0C9801F0E0F90B900B9845
S31508011A2050B1FFE70C98012141630B980C9A936B0F
S31508011A30184390630D912EE00C9801F00DF90B9067
S31508011A400B9850B1FFE70C98012141630B980C9A4A
S31508011A50936B184390630D911DE00C9800684FF441
S31508011A60007100F07FFC0B900B9888B1FFE70C988A
S31508011A70006840F2FF51C0F2400181630B980C994E
S31508011A808A6B104388630C98012141630D9102E02A
S31508011A9000200D90FFE70D980EB0B0BD2DE9F0417D
S31508011AA08AB0099000200890079006900590049046
S31508011AB00998006842F60041C4F20101884257D1EB
S31508011AC0FFE7FFE70020039043F64400C4F2020053
S31508011AD0016841F400610160006800F40060039048
S31508011AE00398FFE7FFE70020029043F63000C4F2AF
S31508011AF00200016841F004010160006800F0040079
S31508011B0002900298FFE7FFE70020019043F63000B4
S31508011B10C4F20200016841F008010160006800F0A2
S31508011B20080001900198FFE74FF4F85004904FF030
S31508011B300208CDF8148000260696032707970C2578
S31508011B40089540F60000C4F2020004AC2146FEF7EF
S31508011B50D5FB04200490CDF81480069607970895BE
S31508011B6040F60040C4F202002146FEF7C7FBFFE734
S31508011B700AB0BDE8F081000080B582B001900198F5
S31508011B8001F056FA02B080BD80B582B00090009887
S31508011B9018B9FFE70120019038E00098806908B17B
S31508011BA0FFE700E0FFE70098006C38B9FFE7009807
S31508011BB00021C163009800F02DF8FFE70098242161
S31508011BC0016400980068C16821F40051C160009859
S31508011BD001F0CAFA00980068016921F4904101618F
S31508011BE000980068416921F02A014161009800685E
S31508011BF0C16841F40051C1600098002181640098D0
S31508011C0020220264009842640191FFE7019802B01C
S31508011C1080BD000080B58EB00D9000200C900B9011
S31508011C200A90099008900D98006844F60041C4F29C
S31508011C300001884232D1FFE7FFE70020079043F60B
S31508011C404000C4F20200016841F400210160006805
S31508011C5000F4002007900798FFE7FFE700200690A9
S31508011C6043F63000C4F20200016841F00101016047
S31508011C70006800F0010006900698FFE70320089027
S31508011C800221099100210A910B9008200C9000204D
S31508011C90C4F2020008A9FEF731FBBAE00D98006804
S31508011CA041F20001C4F20101884234D1FFE7FFE79E
S31508011CB00020059043F64400C4F20200016841F091
S31508011CC010010160006800F0100005900598FFE713
S31508011CD0FFE70020049043F63000C4F202000168D1
S31508011CE041F001010160006800F0010004900498C8
S31508011CF0FFE74FF4C06008900220099000200A907F
S31508011D0003200B9007200C900020C4F2020008A9BA
S31508011D10FEF7F4FA7CE00D98006844F60001C4F277
S31508011D200001884235D1FFE7FFE70020039043F61B
S31508011D304000C4F20200016841F480210160006894
S31508011D4000F4802003900398FFE7FFE70020029044
S31508011D5043F63000C4F20200016841F00201016055
S31508011D60006800F0020002900298FFE74FF4406015
S31508011D7008900220099000200A9003200B90072062
S31508011D800C9040F20040C4F2020008A9FEF7B6FA28
S31508011D903DE00D98006841F20041C4F20101884214
S31508011DA034D1FFE7FFE70020019043F64400C4F26F
S31508011DB00200016841F020010160006800F020007E
S31508011DC001900198FFE7FFE70020009043F63000F5
S31508011DD0C4F20200016841F004010160006800F0E4
S31508011DE0040000900098FFE7C0200890022009909F
S31508011DF000200A9003200B9008200C9040F6000062
S31508011E00C4F2020008A9FEF779FAFFE7FFE7FFE740
S31508011E10FFE70EB080BD0000FFE7FEE72DE9F04FB2
S31508011E208BB000200A900990089007900690FFE76A
S31508011E300020059043F63000C4F20200016841F023
S31508011E4010010160006800F0100005900598FFE791
S31508011E50FFE70020049043F63000C4F2020001684F
S31508011E6041F080010160006800F080000490049848
S31508011E70FFE7FFE70020039043F63000C4F20200B3
S31508011E80016841F001010160006800F0010003905A
S31508011E900398FFE7FFE70020029043F63000C4F2FB
S31508011EA00200016841F002010160006800F00200C9
S31508011EB002900298FFE7FFE70020019043F6300001
S31508011EC0C4F20200016841F008010160006800F0EF
S31508011ED0080001900198FFE7FFE70020009043F60C
S31508011EE03000C4F20200016841F004010160006893
S31508011EF000F0040000900098FFE741F20007C4F2E1
S31508011F0002074FF0180B38461821FEF7C3FB40F2BB
S31508011F100009C4F202094FF4827A48464FF48271E5
S31508011F20FEF7B8FB40F60048C4F2020840464BF6F5
S31508011F300841FEF7AFFB0420069000250795089592
S31508011F4006AE38463146FEF7D9F9CDF818B0012460
S31508011F5007940895099538463146FEF7CFF9CDF825
S31508011F6018A007940895099548463146FEF7C6F91B
S31508011F704FF4844006900795089540463146FEF78A
S31508011F80BDF94BF608400690079408950995404611
S31508011F903146FEF7B3F90BB0BDE8F08F80B540F2D4
S31508011FA00800C2F2000045F20041C4F200010160D6
S31508011FB048F2A061C0F20101416000218160C1605F
S31508011FC04FF48042026141618161C1610162FEF79C
S31508011FD07DFB18B1FFE7FEF76BF9FFE780BD00004F
S31508011FE080B540F26400C2F2000043F20001C4F277
S31508011FF0000101600621416040F6FF718160FEF72C
S31508012000E1FC18B1FFE7FEF753F9FFE780BD0000D1
S3150801201080B540F27000C2F2000042F60041C4F2F7
S3150801202001010160002141608160C1604FF40062D5
S31508012030026141618161FFF78DFC18B1FFE7FEF787
S3150801204037F9FFE7FFF7A8FA18B1FFE7FEF730F906
S31508012050FFE780BD80B540F2F400C2F2000044F605
S315080120600041C4F2000101604FF4E13141600021F1
S315080120708160C16001610C2242618161C161FFF722
S3150801208083FD18B1FFE7FEF713F9FFE780BD0000EE
S3150801209080B540F24010C2F2000041F20001C4F2DC
S315080120A0010101604FF4E131416000218160C160A5
S315080120B001610C2242618161C161FFF765FD18B1B9
S315080120C0FFE7FEF7F5F8FFE780BD000080B540F2AF
S315080120D08C10C2F2000044F60001C4F2000101604E
S315080120E04FF4E131416000218160C16001610C2238
S315080120F042618161C161FFF747FD18B1FFE7FEF74C
S31508012100D7F8FFE780BD000080B540F2D810C2F2CB
S31508012110000041F20041C4F2010101604FF461413E
S31508012120416000218160C16001610C2242618161C7
S31508012130C161FFF729FD18B1FFE7FEF7B9F8FFE717
S3150801214080BD0000FFE7FEE7FFE7FEE786B00590E2
S3150801215004910392059800F0070002900298C0F1D5
S315080121600700052802D3FFE7042003E00298C0F11F
S315080121700700FFE7019002980430062802D8FFE716
S31508012180002002E002980338FFE7009004980199BD
S31508012190012202FA01F10139084000998840039B9E
S315080121A002FA01F101391940084306B070470000E7
S315080121B07047000083B002900191002000900198B9
S315080121C000680299486201984068029988620198F4
S315080121D08168C26803694069114319430843009934
S315080121E0084300900298C06A20F0F7000099084356
S315080121F00299C86203B0704781B0009000980069DF
S31508012200C0B201B07047000081B000900098006824
S3150801221000F0030001B0704783B002900191029863
S3150801222001990844143000900098006803B070477B
S3150801223010B588B0DDF830C0DDF82CE00A9CCDF881
S315080122401CC0CDF818E005940493039202910190FD
S315080122500020009002980399049A059B08431043AD
S3150801226018430699084307990843009908430090BB
S315080122700198406847F6FF61884300990843019928
S31508012280486008B010BD000081B000900098032195
S31508012290016001B07047000081B000900098D0F845
S315080122A0800001B07047000083B0029001910020C0
S315080122B000900198006802998860019841688268CF
S315080122C0C3680069114319430843009908430090FC
S315080122D00298C06840F6FF7188430099084302993D
S315080122E0C86003B07047000080B588B007900691B2
S315080122F00698019037200290402003900020049010
S315080123004FF480600590079801A9FFF7CDFF07985C
S31508012310372100F03FF90090009808B080BD000011
S3150801232080B588B007900020CCF210100690069868
S315080123300021C8F21001084301902920029040208B
S315080123400390002004904FF480600590079801A936
S31508012350FFF7AAFF079800F091FA0090009808B0D5
S3150801236080BD000080B588B0079006910698019057
S315080123701020029040200390002004904FF48060C2
S315080123800590079801A9FFF78FFF0798102100F01C
S3150801239001F90090009808B080BD000080B588B0AA
S315080123A00790069106980190062002904020039016
S315080123B0002004904FF480600590079801A9FFF763
S315080123C073FF0798062100F0E5F80090009808B019
S315080123D080BD000080B588B0079000200290039068
S315080123E0049005904FF480600690079802A9FFF7BC
S315080123F05BFF079800F0A0F80190019808B080BD2E
S3150801240080B588B007904FF4D570029008200390E4
S3150801241040200490002005904FF4806006900798AC
S3150801242002A9FFF741FF079800F0F6FA0190019813
S3150801243008B080BD80B58AB00990079306920698C0
S3150801244001900720029040200390002004904FF449
S3150801245080600590099801A9FFF726FF09980721C9
S3150801246000F098F8009000980AB080BD80B588B051
S3150801247007900020029002210391C0210491059042
S315080124804FF480600690079802A9FFF70DFF079899
S3150801249000F0A2F90190019808B080BD80B588B016
S315080124A0079006910698019009200290C020039092
S315080124B0002004904FF480600590079801A9FFF762
S315080124C0F3FE079800F088F90090009808B080BDDF
S315080124D080B588B0079000200290332103914021EE
S315080124E0049105904FF480600690079802A9FFF7BA
S315080124F0DBFE0798332100F04DF80190019808B0EA
S3150801250080BD000080B588B0079006910020019033
S31508012510032102914021039104904FF480600590B4
S31508012520079801A9FFF7C0FE0798069900F0ECF98C
S315080125300090009808B080BD83B0019040F2040075
S31508012540C2F200000068C00844F6D351C1F2620124
S31508012550A0FB0101880941F2883148430090FFE751
S315080125600098411E009120B9FFE74FF00040029004
S315080125700CE0FFE70198406B00060028F0D5FFE75D
S315080125800198C521816300200290FFE7029803B0F4
S315080125907047000080B588B006908DF8171041F293
S315080125A088300490049840F20401C2F200010968D7
S315080125B0C90844F6D352C1F26202A1FB021291097B
S315080125C048430190FFE70198411E019120B9FFE7B1
S315080125D04FF000400790FCE00698406B0290FFE739
S315080125E001209DF8081011F0450F05D0FFE79DF869
S315080125F00900C0F3C000FFE7C0070028E3D1FFE7E1
S315080126000698406B4007002805D5FFE70698042180
S3150801261081630791DDE00698406BC00728B1FFE7A3
S315080126200698012181630791D3E0FFE7FFE7069842
S31508012630C52181630698FFF7DFFD9DF817108842CB
S3150801264003D0FFE701200790C3E006980021FFF7B2
S31508012650E3FD039003984EF20801CFF6FF510842B5
S3150801266003D1FFE700200790B3E09DF80F000006AD
S31508012670002804D5FFE74FF000700790A9E09DF800
S315080126800F004006002803D5FFE740200790A0E089
S315080126909DF80F008006002803D5FFE780200790E4
S315080126A097E09DF80F00C006002804D5FFE74FF410
S315080126B0807007908DE09DF80F000007002804D56B
S315080126C0FFE74FF40070079083E09DF80F0040077D
S315080126D0002804D5FFE74FF48060079079E09DF85C
S315080126E00F00C00720B1FFE74FF40060079070E0C4
S315080126F09DF80E000006002804D5FFE74FF4805028
S31508012700079066E09DF80E004006002804D5FFE70D
S315080127104FF4005007905CE09DF80E0080060028F3
S3150801272004D5FFE74FF48040079052E09DF80E006C
S31508012730C006002804D5FFE74FF40040079048E09B
S315080127409DF80E004007002804D5FFE74FF4003036
S3150801275007903EE09DF80E008007002804D5FFE7A4
S315080127604FF48020079034E09DF80E00C00720B191
S31508012770FFE74FF4002007902BE09DF80D000006B7
S31508012780002804D5FFE74FF48010079021E09DF853
S315080127900D004006002804D5FFE74FF40010079006
S315080127A017E09DF80D008006002804D5FFE74FF4D1
S315080127B0800007900DE09DF80C000007002804D55D
S315080127C0FFE74FF40000079003E04FF480300790CD
S315080127D0FFE7079808B080BD84B0029040F2040074
S315080127E0C2F200000068C00844F6D351C1F2620182
S315080127F0A0FB0101880941F2883148430090FFE7AF
S315080128000098411E009120B9FFE74FF00040039060
S3150801281030E00298406B0190FFE701209DF8041013
S3150801282011F0450F05D0FFE79DF80500C0F3C0007C
S31508012830FFE7C0070028E3D1FFE70298406B40078E
S31508012840002805D5FFE7029804218163039111E069
S315080128500298406BC00728B1FFE7029801218163FE
S31508012860039107E00298C5218163FFE7FFE700208E
S315080128700390FFE7039804B07047000084B0029004
S3150801288040F20400C2F200000068C00844F6D351C1
S31508012890C1F26201A0FB0101880941F2883148436E
S315080128A00090FFE70098411E009120B9FFE74FF01D
S315080128B00040039025E00298406B0190FFE7012054
S315080128C09DF8041011F0450F05D0FFE79DF80500A6
S315080128D0C0F3C000FFE7C0070028E3D1FFE702986D
S315080128E0406B4007002805D5FFE70298042181635C
S315080128F0039106E00298C5218163FFE70020039052
S31508012900FFE7039804B0704780B588B006900320A6
S315080129108DF81700049140F20400C2F20000006825
S31508012920C00844F6D351C1F26201A0FB010188092E
S3150801293041F2883148430190FFE70198411E019110
S3150801294020B9FFE74FF00040079062E00698406B18
S315080129500290FFE701209DF8081011F0450F05D0F8
S31508012960FFE79DF80900C0F3C000FFE7C00700288C
S31508012970E3D1FFE70698406B4007002805D5FFE736
S31508012980069804218163079143E00698406BC007C6
S3150801299028B1FFE7069801218163079139E0FFE72E
S315080129A0FFE70698FFF728FC9DF81710884203D021
S315080129B0FFE7012007902CE00698C5218163069858
S315080129C00021FFF729FC03909DF80D0010F0E00F98
S315080129D007D1FFE7BDF80E0004990880002007908B
S315080129E017E09DF80D004006002804D5FFE74FF4CF
S315080129F0005007900DE09DF80D000006002804D54B
S31508012A00FFE74FF48050079003E04FF480300790BA
S31508012A10FFE7079808B080BD84B0029040F2040031
S31508012A20C2F200000068C00844F6D351C1F262013F
S31508012A30A0FB0101880941F2883148430090FFE76C
S31508012A400098411E009120B9FFE74FF0004003901E
S31508012A5037E00298406B0190FFE701209DF80410CA
S31508012A6011F0450F05D0FFE79DF80500C0F3C0003A
S31508012A70FFE7C0070028E3D1FFE70298406B40074C
S31508012A80002805D5FFE7029804218163039118E020
S31508012A900298406BC00728B1FFE7029801218163BC
S31508012AA003910EE0FFE7FFE70298406B4006002816
S31508012AB004D5FFE7029840218163FFE700200390D0
S31508012AC0FFE7039804B0704780B590B00E900D915A
S31508012AD0FDF7F6FD059000200490039002900D98ED
S31508012AE001900E9800680821FFF73CFC06900698AD
S31508012AF018B1FFE706980F90ABE00E990868096DC3
S31508012B000904FFF7F1FB0690069818B1FFE7069846
S31508012B100F909EE04FF0FF30079008200890302074
S31508012B20099002200A9000200B9001200C900E9823
S31508012B30006807A9FFF73EFB0E980068FFF7C8FC77
S31508012B400690069818B1FFE706980F9081E0FFE70F
S31508012B500E980068406B10F02A0F28D1FFE70E98EF
S31508012B600068406B800200280CD5FFE70E980068C4
S31508012B70FFF792FB049902AA42F821000498013052
S31508012B80049008E00E980068406B8004002801D480
S31508012B90FFE70DE0FFE7FDF793FD0599401A0130C0
S31508012BA020B9FFE74FF000400F9052E0D0E7FFE76A
S31508012BB00E980068406B0007002806D5FFE70E98B7
S31508012BC00068082181630F9143E00E980068406B05
S31508012BD08007002806D5FFE70E9800680221816361
S31508012BE00F9136E00E980068406B8006002806D5DE
S31508012BF0FFE70E980068202181630F9129E00E985E
S31508012C00006840F23A5181630398010600F47F4255
S31508012C1041EA022100F47F0241EA122141EA1060E9
S31508012C20019908600198043001900298010600F4A0
S31508012C307F4241EA022100F47F0241EA122141EA78
S31508012C40106001990860FFE7FFE7FFE700200F9092
S31508012C50FFE70F9810B080BDB0B592B01090012073
S31508012C60ADF80E0010980068FFF7CEFA20B9FFE715
S31508012C704FF080601190AEE01098406C03282AD07E
S31508012C80FFE710980068FFF7F1FB0490049818B164
S31508012C90FFE7049811909EE0109800680021FFF75D
S31508012CA0BBFA10994867109800680421FFF7B4FA2F
S31508012CB010998867109800680821FFF7ADFA1099EE
S31508012CC0C867109800680C21FFF7A6FA1099C1F891
S31508012CD08000FFE7FFE71098406C03280ED0FFE756
S31508012CE0109800680DF10E01FFF70CFC049004988A
S31508012CF018B1FFE7049811906DE0FFE71098406C52
S31508012D0003282FD0FFE7BDF80E0010990865109922
S31508012D100868096D0904FFF7C1FB0490049818B106
S31508012D20FFE70498119056E0109800680021FFF714
S31508012D3073FA10994866109800680421FFF76CFA2F
S31508012D4010998866109800680821FFF765FA1099A6
S31508012D50C866109800680C21FFF75EFA1099086793
S31508012D60FFE7FFE7109800680421FFF755FA000D01
S31508012D701099C864109805A9FEF7AAFC20B1FFE7C7
S31508012D804FF08050119026E010990868096D0A04E1
S31508012D900023FFF74FFB0490049818B1FFE7049846
S31508012DA0119018E0DDF840C0DCF80000DCF80410EA
S31508012DB0DCF80820DCF80C30DCF810E0DCF81450FC
S31508012DC0DCF8184002940195CDF800E0FFF730FAD7
S31508012DD000201190FFE7119812B0B0BD80B586B0FA
S31508012DE00490002003900290019004980068FFF770
S31508012DF0F1FA0090009818B1FFE70098059083E072
S31508012E0004980068FFF7FCFA0090009878B1FFE78C
S31508012E1004980021816404980068FFF7DBFA0090A2
S31508012E20009818B1FFE7009805906DE003E0049853
S31508012E3001218164FFE70498806C01280ED1FFE720
S31508012E40049800680021FFF74FFA0090009820B116
S31508012E50FFE74FF08050059056E0FFE7FFE703993B
S31508012E6000204FF6FE72914205D8FFE70198B0FAA5
S31508012E7080F04009FFE7C00758B3FFE704980068E8
S31508012E800021FFF731FA0090009818B1FFE7009882
S31508012E90059039E004980068FFF742FA0090009817
S31508012EA020B1FFE74FF0805005902DE004980068A7
S31508012EB00021FFF7B1F9029002984FF0FF3101EBBB
S31508012EC0D070B0FA80F04009019003980130039060
S31508012ED0C5E703984FF6FF71884204D3FFE74FF021
S31508012EE08070059010E09DF80B004006002804D577
S31508012EF0FFE704980121416403E004980021416435
S31508012F00FFE700200590FFE7059806B080BD0000A1
S31508012F1080B586B00490002003900290049800685A
S31508012F200021FFF779F98001002804D5FFE74FF45E
S31508012F30006005902FE0049802A9FFF7C5FD0190EE
S31508012F40019818B1FFE70198059024E09DF80E0055
S31508012F50C007E0B1FFE704990868096D0904FFF79E
S31508012F60C3F90190019818B1FFE70198059012E09D
S31508012F70049800680021FFF711FA0190019818B129
S31508012F80FFE70198059006E00020059003E04FF061
S31508012F9080600590FFE7059806B080BD80B586B0CC
S31508012FA00490002003900290049800680021FFF71E
S31508012FB033F98001002804D5FFE74FF40060059036
S31508012FC030E0049802A9FFF77FFD0190019818B136
S31508012FD0FFE70198059025E09DF80E0040070028B7
S31508012FE01CD5FFE704990868096D0904FFF77CF900
S31508012FF00190019818B1FFE70198059012E004982D
S3150801300000680221FFF7CAF90190019818B1FFE794
S315080130100198059006E00020059003E04FF08060D6
S315080130200590FFE7059806B080BD000070470000CF
S3150801303080B582B0009000980138B0F1807F03D343
S31508013040FFE70120019019E0009801384EF21401BA
S31508013050CEF2000108604FF0FF300F2100F024F98D
S315080130604EF21800CEF20000002101604EF2100067
S31508013070CEF20000072202600191FFE7019802B033
S3150801308080BD000080B5FDF7E3FC80BD80B594B036
S3150801309008A83021FDF7DEF8002007900690059074
S315080130A004900390FFE70020029043F64000C4F223
S315080130B00200016841F080510160006800F080500B
S315080130C002900298FFE7FFE70020019047F200000F
S315080130D0C4F20000016841F480410160006800F40F
S315080130E0804001900198FFE7092008904FF480304D
S315080130F0099001200D9002200E904FF480010F9146
S3150801310004211091A821119112900720139008A863
S31508013110FDF7F8FE18B1FFE7FDF7CAF8FFE70F203C
S31508013120039002200490802005904FF48050069069
S315080131300020079003A8FDF721FD18B1FFE7FDF769
S31508013140B7F8FFE714B080BD4EF68850CEF20000FE
S31508013150016841F4700101604EF60850CEF2000094
S315080131604FF0006101607047B0B584B003900398D1
S315080131700068006920F4405003990A68C968084341
S3150801318010610398816802694369C069114319434B
S315080131900843029003980068C06849F20C618843A5
S315080131A00299084303990968C86003980068406949
S315080131B020F4407003990A688969084350610398A5
S315080131C0006841F20001C4F20101884209D0FFE713
S315080131D00398006841F20041C4F20101884204D112
S315080131E0FFE7FDF70DFE019003E0FDF7F7FD0190FE
S315080131F0FFE70398C069B0F5004F25D1FFE70198AD
S315080132001921A0FB0101039A156853685A00DB0FBF
S31508013210FCF7E8FF48F21F51C5F2EB11A0FB0123A9
S315080132205A091301642402FB1400322202EBC0007E
S31508013230A0FB0101F82000EA511003EB4000C1F39D
S3150801324042110844A86023E001981921A0FB010155
S31508013250039A146853689A009B0FFCF7C3FF48F258
S315080132601F51C5F2EB11A0FB01235A09642302FB86
S315080132701300322303EB0010A0FB0101F02000EA42
S31508013280511000EB0210C1F343110844A060FFE797
S3150801329004B0B0BDFFE7FEE74EF60C50CEF20000D3
S315080132A00068C0F30220704782B00190009101982E
S315080132B0002809D4FFE70098000101994EF200425F
S315080132C0CEF2000288540AE000980001019901F043
S315080132D00F014EF61452CEF200028854FFE702B0EF
S315080132E07047000083B00290029800F00700009032
S315080132F04EF60C50CEF200000168019101994FF685
S31508013300FF02114001910199009A41EA0221002226
S31508013310C0F2FA52114301910199016003B0704755
S3150801332080B582B000200190FDF79AFBFFF7AEFE4B
S31508013330FEF774FDFEF7E8FEFEF78CFEFEF72EFE9D
S31508013340FEF766FEFEF7A4FEFEF7C0FEFEF748FE90
S31508013350FFE7FEE702E008C8121F08C1002AFAD1F2
S3150801336070477047002001E001C1121F002AFBD1F6
S315080133707047000000000000000001020304060770
S31508013380080900000000010203040000B033010827
S31508013390000000200800000054330108B833010872
S315080133A008000020204200006433010800000000E4
S30D080133B0100000000024F400DE
S7050801018967
